S00F0000413939303830622E7372656368
S11300006AC0000085C0000083C0000081C00000F9
S11300107FC000007DC000007BC0000079C00000EC
S113002077C0000075C0000073C000000C94A50ADE
S11300300C941D080C9446080C946F080C949808B2
S11300400C94C1080C94EA080C9413090C943C0910
S11300500C9465090C948E095BC000000C946F1716
S11300600C94231855C0000053C0000051C0000078
S11300702CC1000051C100004BC000000C94D819E1
S11300800C940F1A0C94461A0C942D1841C00000BD
S11300900C94B7090C94E0090C94090A0C94320AE4
S11300A00C94D5110C94031233C000008402A602F0
S11300B0C802EA020C032E03500372039403B6032E
S11300C0D803FA031F064A067506A006CB06F606F1
S11300D021074B07860711241FBECFEFCDBFD7E200
S11300E0DEBF11E2A0E0B0E2E6E9FEE302C0059063
S11300F00D92A03BB107D9F725E2A0EBB1E201C014
S11301001D92A639B207E1F70E94E01C0C94491F26
S113011077CF1F93CF93DF9300D000D0CDB7DEB756
S113012084E0AE014F5F5F4FFA01982F11929A95C8
S1130130E9F711E01B8389831A8360E080E893E088
S11301400E94751A60E080E893E00E94CA1A80EC6D
S11301508093B6001093840382E08093E107249691
S1130160CDBFDEBFDF91CF911F9108958093D3005F
S113017008956093B0217093B1218093B22190933C
S1130180B32108950F931F93E0EDF0E09081906800
S113019090834091B0215091B1216091B22170912E
S11301A0B3214483052F162F272F332705838B0173
S11301B0222733270683472F552766277727478328
S11301C01092B0211092B1211092B2211092B32159
S11301D0813019F4808180628083E0EDF0E08081D9
S11301E0807F80838081816080831F910F91089537
S11301F0CF92DF92EF92FF92E1EDF0E08081816097
S11302008083808180FDFDCF8091D00085FF2EC04A
S11302104091D4009091D5008091D6002091D700D0
S113022050E060E070E0722B592B682B20E280E0F4
S113023090E0DC01880F991FAA1FBB1F6A017B0194
S113024031E0C322DD24EE24FF248C0D9D1DAE1D60
S1130250BF1D7695679557954795215059F7BC0171
S1130260CD01609570958095909508C06091D400FB
S11302708091D50070E0782B80E090E0E0EDF0E034
S11302802081207F208320812083FF90EF90DF90C6
S1130290CF9008950F931F93CF93DF93EC018B01BD
S11302A0842F70DF0115110551F0BE01600F711F1D
S11302B0E3EDF0E0899180836C177D07D9F798DF2F
S11302C0DF91CF911F910F9108951F920F920FB656
S11302D00F9211242F933F934F935F936F937F93C8
S11302E08F939F93AF93BF93EF93FF93E091B721C5
S11302F0F091B8210995FF91EF91BF91AF919F9132
S11303008F917F916F915F914F913F912F910F90BA
S11303100FBE0F901F9018951F920F920FB60F9259
S113032011242F933F934F935F936F937F938F93F6
S11303309F93AF93BF93EF93FF93E091B521F09117
S1130340B6210995FF91EF91BF91AF919F918F9144
S11303507F916F915F914F913F912F910F900FBEBD
S11303600F901F9018958091B921882351F087EC44
S113037090E00197F1F700C000008091B92181114C
S113038004C081E08093B921089580E0089510921B
S1130390B9210895CF92DF92EF92FF920F931F93AA
S11303A0CF93DF938C01C62FDEDF282F8823C9F07B
S11303B06FEF7FEF80E090E0DCDED0E040E0BE0154
S11303C0C80168DF6B017C011092B92164E0C801A7
S11303D08C0F9D1F0E94380D21E08C159D0509F09E
S11303E020E0822FDF91CF911F910F91FF90EF902A
S11303F0DF90CF9008950F931F93CF938C01B3DFB9
S11304008823D9F06FEF7FEF80E090E0B2DE80E0E8
S1130410B9DE0132110560F080E290E0C0E20E9492
S1130420101BA4DECF5F8C2F90E080179107B8F3E8
S1130430DFDE1092B921CB0102C080E090E0CF91C1
S11304401F910F9108950F931F93CF93DF93CDB70F
S1130450DEB72A97CDBFDEBF062F4AE0BE016F5F2D
S11304607F4F0E94161F6981662359F110E080ECCA
S113047098E00E940D120023B1F011111FC0898170
S11304808D3279F06EE280EC98E00E940D1209C082
S113049089818D3241F46EE280EC98E00E940D1265
S11304A002C0123070F41F5FE1E0F0E0EC0FFD1FBA
S11304B0E10FF11D60816111DACF03C0113041F306
S11304C0F0CF2A96CDBFDEBFDF91CF911F910F9160
S11304D0089560E00C94660D0895FF920F931F93A6
S11304E0CF93DF93C82F80916806D82FD0720E94D3
S11304F0ED168C2F90E08C30910508F08AC1FC0138
S1130500EA5AFF4F0C94EE1EF090CC210091CD21BD
S113051010910F22C0911022D11106C09F2D802F5F
S1130520F12E0C2F192FC82F8DE190E2D2DF61E05C
S11305308F2D902F88DF8CE290E2CBDF61E0812F5A
S11305409C2F81DF84E390E2C4DF63C1F090CA2171
S11305500091CB2110910D22C0910E22D11106C021
S11305609F2D802FF12E0C2F192FC82F88E390E296
S1130570B0DF61E08F2D902F66DF8CE290E2A9DF7F
S113058061E0812F9C2F5FDF84E390E2A2DF41C111
S1130590F090C8210091C92110910B22C0910C2226
S11305A0D11106C09F2D802FF12E0C2F192FC82F8B
S11305B087E490E28EDF61E08F2D902F44DF8CE2A0
S11305C090E287DF61E0812F9C2F3DDF84E390E29E
S11305D080DF1FC1F090C6210091C721109109222C
S11305E0C0910A22D11106C09F2D802FF12E0C2F0D
S11305F0192FC82F86E590E26CDF61E08F2D902FD4
S113060022DF8CE290E265DF61E0812F9C2F1BDF0B
S113061084E390E25EDFFDC0F090BA210091BB213B
S11306201091FD21C091FE21D11106C09F2D802F74
S1130630F12E0C2F192FC82F85E690E24ADF61E0D6
S11306408F2D902F00DF8CE290E243DF61E0812F59
S11306509C2FF9DE84E390E23CDFDBC0F090C22102
S11306600091C32110910522C0910622D11106C028
S11306709F2D802FF12E0C2F192FC82F84E790E285
S113068028DF60E08F2D902FDEDE83E890E221DF0B
S113069060E0812F9C2FD7DE8CE890E21ADFB9C08E
S11306A0F090C4210091C52110910722C091082225
S11306B0D11106C09F2D802FF12E0C2F192FC82F7A
S11306C081E990E206DF60E08F2D902FBCDE83E8A5
S11306D090E2FFDE60E0812F9C2FB5DE8CE890E293
S11306E0F8DE97C0F090BE210091BF211091012245
S11306F0C0910222D11106C09F2D802FF12E0C2F04
S1130700192FC82F80EA90E2E4DE60E08F2D902F4D
S11307109ADE8CE290E2DDDE60E0812F9C2F93DE96
S113072084E390E2D6DE75C0F090002000910120B1
S113073010910920C0910A20D11106C09F2D802F4D
S1130740F12E0C2F192FC82F8FEA90E2C2DE60E041
S11307508F2D902F78DE8CE290E2BBDE60E0812F5B
S11307609C2F71DE84E390E2B4DE53C0F090BC2190
S11307700091BD211091FF21C0910022D11106C02A
S11307809F2D802FF12E0C2F192FC82F8EEB90E266
S1130790A0DE60E08F2D902F56DE8CE290E299DE91
S11307A060E0812F9C2F4FDE84E390E292DE31C023
S11307B0F090C0210091C12110910322C091042224
S11307C0D11106C09F2D802FF12E0C2F192FC82F69
S11307D08DEC90E27EDE60E08F2D902F34DE8CED88
S11307E090E277DE60E0812F9C2F2DDE84EE90E294
S11307F070DE0FC088EE90E26CDEDD2321F084EF22
S113080090E267DE03C089EF90E263DE86E091E266
S113081060DE0E94E916DF91CF911F910F91FF9046
S11308200895E0E6F4E080818F738083808180689E
S113083080830895E0E6F4E080818F738083808173
S1130840808308950F931F93CF93DF9300D0CDB788
S1130850DEB760E880E00E94AD19809193258F3F58
S113086009F4FFCF8FB78983F8949981EEE8F5E214
S113087085818F5F85839FBF1092B42100E614E0C9
S1130880F80180818F7C8083808180838081887F50
S1130890808380818360808381818C7F8183818157
S11308A0826081838181837F818381818860818368
S11308B081818F7C818381818062818381818F7337
S11308C08183818180688183B5DFF801128282810E
S11308D082838381807F838383818C60838383810C
S11308E08F7083838381806383838FB78A83F89433
S11308F09A81E4E5F6E0808187708083808181605D
S113090080839FBF80E1809346060F900F90DF9114
S1130910CF911F910F9108953F924F925F926F92E2
S11309207F928F929F92AF92BF92CF92DF92EF927B
S1130930FF920F931F93CF93DF9366EF72E280E0F1
S113094092E00E94AF18E6EFF2E2808191819F78F5
S113095090619183817E80618083C1E0C28384E061
S11309608383BF0180E092E00E945B184DEF52E266
S113097061E080E092E00E943119EDEFF2E2C08381
S113098011828281807F8283AF0161E080E092E006
S11309900E94E91880E092E025D36FE170E082E0E4
S11309A00E945A1BF82E6EE170E082E00E945A1BEE
S11309B0782E6FE270E082E00E945A1B082F10E04C
S11309C06EE270E082E00E945A1B102F0027082B71
S11309D06DE270E082E00E945A1BC82FD0E06CE206
S11309E070E082E00E945A1B382E6F2D70E080E088
S11309F090E00E94DB1D6B017C01B80180E090E077
S1130A000E94DB1D4B015C01672D70E080E090E0EB
S1130A100E94DB1D9B01AC01C701B6010E94E21CD0
S1130A202B013C01DC2FCC27C329BE0180E090E0E0
S1130A300E94DB1D9B01AC01C501B4010E94E21CB4
S1130A409B01AC01C301B2010E94471D9B01AC0193
S1130A5060930F2370931023809311239093122398
S1130A60C501B4010E94691E9B01AC01C701B60116
S1130A700E94E21C60930723709308238093092348
S1130A8090930A23DF91CF911F910F91FF90EF90E4
S1130A90DF90CF90BF90AF909F908F907F906F909A
S1130AA05F904F903F900895CF93DF9300D0CDB7E0
S1130AB0DEB7803148F0EDEFF2E210828051880F0A
S1130AC0880F880F818336C06A3049F4EDEFF2E273
S1130AD091E09083880F880F880F81832BC0643046
S1130AE050F4EDEFF2E292E09083880F880F880FC4
S1130AF0862B81831FC0683058F4EDEFF2E293E057
S1130B009083880F880F880F6450862B818312C0CE
S1130B1092E09093FD2290E0880F991F880F991F0F
S1130B20880F991F693011F027E001C024E0822B5F
S1130B308093FE224DEF52E261E080E092E00E9459
S1130B40E9188FB78983F8949981E0E0F2E0808115
S1130B50846080839FBF868180FFFDCFE0E0F2E068
S1130B6081E086838FB78A83F8942A8184A195A132
S1130B702FBF0F900F90DF91CF9108950F931F9384
S1130B80CF93DF9300D0CDB7DEB7E6EFF2E28081FA
S1130B90897E8061808381818F7881608183BF01B8
S1130BA080E092E00E945B18EDEFF2E21082118285
S1130BB0AF0161E080E092E00E94E9188FB7898379
S1130BC0F8949981E0E0F2E08081846080839FBFA3
S1130BD0868180FFFDCFE0E0F2E081E086838FB77D
S1130BE08A83F8948A8104A115A18FBFE6EFF2E20B
S1130BF08081897E8061808381818E788061818318
S1130C00BF0180E092E00E945B18C8010F900F9032
S1130C10DF91CF911F910F9108950F931F93CF935D
S1130C20DF9300D000D0CDB7DEB790E089309105D6
S1130C3008F0B1C1FC01EE59FF4F0C94EE1E68E0C0
S1130C4085E032DF092E000CAA0BBB0B89839A8343
S1130C50AB83BC8329813A814B815C81A1E7B2E0FB
S1130C600E94031F8B019C01992324F40150184F07
S1130C702F4F3F4FD901C801072E7BE0B595A795AB
S1130C80979587957A95D1F7702D8093CC21909381
S1130C90CD2181C168E081E007DF092E000CAA0B99
S1130CA0BB0B89839A83AB83BC8329813A814B81B3
S1130CB05C81A2E4BFE00E94031F8B019C01992385
S1130CC024F40150184F2F4F3F4FD901C801072E6C
S1130CD07BE0B595A795979587957A95D1F7702D73
S1130CE08093CA219093CB2156C168E083E0DCDE77
S1130CF0092E000CAA0BBB0B89839A83AB83BC839C
S1130D0029813A814B815C81A5E3BCE00E94031FE9
S1130D108B019C01992324F40150184F2F4F3F4F0E
S1130D20D901C801072E7BE0B595A79597958795BE
S1130D307A95D1F7702D8093C8219093C9212BC146
S1130D4068E084E0B1DE092E000CAA0BBB0B89839A
S1130D509A83AB83BC8329813A814B815C81A5E36F
S1130D60BCE00E94031F8B019C01992324F40150D1
S1130D70184F2F4F3F4FD901C801072E7BE0B5957F
S1130D80A795979587957A95D1F7702D8093C6216D
S1130D909093C72100C168E088E086DE092E000C2C
S1130DA0AA0BBB0B89839A83AB83BC8329813A81C9
S1130DB04B815C81ADE0B3E00E94031F8B019C0179
S1130DC0992324F40150184F2F4F3F4FD901C801E4
S1130DD0072E7BE0B595A795979587957A95D1F7DA
S1130DE0702D8093C4219093C521D5C068E086E01E
S1130DF05BDE092E000CAA0BBB0B89839A83AB83A1
S1130E00BC8329813A814B815C81ADE0B3E00E94CF
S1130E10031F8B019C01992324F40150184F2F4F79
S1130E203F4FD901C801072E7BE0B595A79597954B
S1130E3087957A95D1F7702D8093C2219093C32121
S1130E40AAC09CDE092E000CAA0BBB0B89839A83D3
S1130E50AB83BC8369817A818B819C810E94DD1D77
S1130E6020910F233091102340911123509112238C
S1130E700E94691E20910723309108234091092381
S1130E8050910A230E94E31C0E94AF1D6093C0216D
S1130E907093C12180C068E087E006DE092E000C53
S1130EA0AA0BBB0B89839A83AB83BC8329813A81C8
S1130EB04B815C81ACE9B0E00E94031F8B019C0173
S1130EC0992324F40150184F2F4F3F4FD901C801E3
S1130ED0072E7BE0B595A795979587957A95D1F7D9
S1130EE0702D89839A83AB83BC8389819A81AB817A
S1130EF0BC81880F991F2091CC213091CD21821B78
S1130F00930B8093BA219093BB2145C068E082E0A3
S1130F10CBDD092E000CAA0BBB0B89839A83AB8310
S1130F20BC8329813A814B815C81ABE1B6E00E94AC
S1130F30031F8B019C01992324F40150184F2F4F58
S1130F403F4FD901C801072E7BE0B595A79597952A
S1130F5087957A95D1F7702D9C018093BE2190934B
S1130F60BF214091CE214330B0F0409100205091F8
S1130F7001208417950720F480930020909301208A
S1130F804091BC215091BD214217530720F4809316
S1130F90BC219093BD212496CDBFDEBFDF91CF91BC
S1130FA01F910F9108958115924061F48091CF2192
S1130FB091E0980F9093CF21811104C062E081E009
S1130FC00C94AD1908958115924059F48091CF2164
S1130FD081508093CF21811104C062E081E00C94A0
S1130FE0C3190895EF92FF921F93CF93DF9300D01C
S1130FF0CDB7DEB77C018FB78983F8941981C70117
S1131000D2DFF7018081816080831FBF80918F25AB
S11310108F3F09F4FFCF8FB78A83F8949A81EEE863
S1131020F5E281818F5F81839FBF0F900F90DF91E5
S1131030CF911F91FF90EF9008951F920F920FB6DA
S11310400F9211242F933F934F935F936F937F934A
S11310508F939F93AF93BF93EF93FF93E091EA2114
S1131060F091EB21309709F00995FF91EF91BF9131
S1131070AF919F918F917F916F915F914F913F912C
S11310802F910F900FBE0F901F9018951F920F92E3
S11310900FB60F9211242F933F934F935F936F9347
S11310A07F938F939F93AF93BF93EF93FF93E091BD
S11310B0E821F091E921309709F00995FF91EF912A
S11310C0BF91AF919F918F917F916F915F914F915C
S11310D03F912F910F900FBE0F901F9018951F9264
S11310E00F920FB60F9211242F933F934F935F9358
S11310F06F937F938F939F93AF93BF93EF93FF93DC
S1131100E091E621F091E721309709F00995FF91EC
S1131110EF91BF91AF919F918F917F916F915F916B
S11311204F913F912F910F900FBE0F901F901895E4
S11311301F920F920FB60F9211242F933F934F9348
S11311405F936F937F938F939F93AF93BF93EF932B
S1131150FF93E091E421F091E521309709F009959E
S1131160FF91EF91BF91AF919F918F917F916F917B
S11311705F914F913F912F910F900FBE0F901F9051
S113118018951F920F920FB60F9211242F933F932D
S11311904F935F936F937F938F939F93AF93BF937B
S11311A0EF93FF93E091E221F091E321309709F06E
S11311B00995FF91EF91BF91AF919F918F917F918D
S11311C06F915F914F913F912F910F900FBE0F90B0
S11311D01F9018951F920F920FB60F9211242F9300
S11311E03F934F935F936F937F938F939F93AF93AB
S11311F0BF93EF93FF93E091E021F091E1213097C9
S113120009F00995FF91EF91BF91AF919F918F9153
S11312107F916F915F914F913F912F910F900FBEEE
S11312200F901F9018951F920F920FB60F921124D2
S11312302F933F934F935F936F937F938F939F93DA
S1131240AF93BF93EF93FF93E091DE21F091DF2101
S1131250309709F00995FF91EF91BF91AF919F915C
S11312608F917F916F915F914F913F912F910F904B
S11312700FBE0F901F9018951F920F920FB60F92EA
S113128011242F933F934F935F936F937F938F9387
S11312909F93AF93BF93EF93FF93E091DC21F09181
S11312A0DD21309709F00995FF91EF91BF91AF913E
S11312B09F918F917F916F915F914F913F912F916A
S11312C00F900FBE0F901F9018951F920F920FB69C
S11312D00F9211242F933F934F935F936F937F93B8
S11312E08F939F93AF93BF93EF93FF93E091DA2192
S11312F0F091DB21309709F00995FF91EF91BF91AF
S1131300AF919F918F917F916F915F914F913F9199
S11313102F910F900FBE0F901F9018951F920F9250
S11313200FB60F9211242F933F934F935F936F93B4
S11313307F938F939F93AF93BF93EF93FF93E0912A
S1131340D821F091D921309709F00995FF91EF91B7
S1131350BF91AF919F918F917F916F915F914F91C9
S11313603F912F910F900FBE0F901F9018951F92D1
S11313700F920FB60F9211242F933F934F935F93C5
S11313806F937F938F939F93AF93BF93EF93FF9349
S1131390E091D621F091D721309709F00995FF917A
S11313A0EF91BF91AF919F918F917F916F915F91D9
S11313B04F913F912F910F900FBE0F901F90189552
S11313C01F920F920FB60F9211242F933F934F93B6
S11313D05F936F937F938F939F93AF93BF93EF9399
S11313E0FF93E091D421F091D521309709F009952C
S11313F0FF91EF91BF91AF919F918F917F916F91E9
S11314005F914F913F912F910F900FBE0F901F90BE
S113141018951F920F920FB60F9211242F933F939A
S11314204F935F936F937F938F939F93AF93BF93E8
S1131430EF93FF93E091D221F091D321309709F0FB
S11314400995FF91EF91BF91AF919F918F917F91FA
S11314506F915F914F913F912F910F900FBE0F901D
S11314601F9018951F920F920FB60F9211242F936D
S11314703F934F935F936F937F938F939F93AF9318
S1131480BF93EF93FF93E091D021F091D121309756
S113149009F00995FF91EF91BF91AF919F918F91C1
S11314A07F916F915F914F913F912F910F900FBE5C
S11314B00F901F9018951F93CF93DF9300D0CDB753
S11314C0DEB72FB72A83F8941A81282F392F2115D4
S11314D088E0380749F461E083E00E94AD1964E0D4
S11314E083E00E94AD191BC0203488E0380749F41A
S11314F062E083E00E94AD1964E083E00E94AD19CC
S11315000EC02034394049F462E084E00E94AD19F1
S113151064E084E00E94AD1902C01FBF10C0809136
S11315208F258F3F09F4FFCF8FB78983F894998172
S1131530EEE8F5E281818F5F81839FBF1FBF0F902B
S11315400F90DF91CF911F9108951F920F920FB6C4
S11315500F9211242F933F934F935F936F937F9335
S11315608F939F93AF93BF93CF93DF93EF93FF93A7
S1131570E091EC21F091ED21848183FF08C0886023
S1131580848383E0838386EF8093F62183C0982F3E
S1131590947131F083E083838FEF8093F6217AC0D6
S11315A086FF43C0CCEED1E2AA81BB818C819D81B0
S11315B014962D913C911597821793076CF49C0116
S11315C02F5F3F4F2093F0213093F121A80FB91FD3
S11315D011968C9187835EC08091F2219091F321C2
S11315E018962D913C91199782179307C8F420916E
S11315F0F421222321F08681816086834BC01696D4
S11316002D913C911797AC014F5F5F4F4093F221AE
S11316105093F321D901A80FB91F8C9187833AC045
S113162083E083831092F62135C0882384F5ACEEE1
S1131630B1E21296CD91DC91139716968D919C91FF
S113164017972885398582179307D8F46E817F818F
S11316509C012F5F3F4F2093F2213093F321478168
S1131660DB01A80FB91F4C93888599852817390782
S113167018F482E083830EC087E083831092F621FE
S113168009C083E0838389EF8093F62103C08BEF45
S11316908093F621FF91EF91DF91CF91BF91AF91AC
S11316A09F918F917F916F915F914F913F912F9176
S11316B00F900FBE0F901F901895FC01DB0114963C
S11316C08C91858388EB818381E08483ECEEF1E265
S11316D011861286E0EAF0E0828182608283789447
S11316E080E00895CF93DF931F92CDB7DEB79C01BE
S11316F0FB01892B09F451C0309709F450C092853D
S11317008091F521882319F09923F1F34AC08FB70A
S11317108983F8948981ACEEB1E291E019969C93A7
S1131720199790E81A969C931A978FBF2D933C9320
S1131730119712966D937C93139714961D921C9295
S1131740159716961D921C92179718964C938081A4
S1131750880F64817581672B11F4411103C0F9016D
S1131760868303C08160F9018683ECEEF1E2928501
S11317709038E9F3F90184818370813049F0ACEE4B
S1131780B1E2ED91FC911197848183708130C9F7A6
S1131790ECEEF1E28285118605C088EF03C088EF84
S11317A001C086EF0F90DF91CF91089580E098E01B
S11317B082DEE0E0F8E08181887F81838DE790E03C
S11317C086A397A38081807F856080830895CF93CB
S11317D0DF9300D0CDB7DEB780E880930206E0E661
S11317E0F6E090E4918395838183868382E082830B
S11317F08FB78983F8949981A1E7B6E08C918770BB
S11318008C938C9188618C939FBF80E18183A0E449
S1131810B6E098E011969C93119711968C9380E210
S113182082838FB78A83F8949A81E5E7F6E0808112
S1131830877080838081886180839FBF0E94301578
S11318406BD80E948900B2DF0E9408150E9422040E
S11318500F900F90DF91CF9108950F931F93CF9323
S1131860DF938C0101960E94101BC82FD0E0DC2F5F
S1131870CC27C80102960E94101BC82BC8010E94E5
S1131880FB0121E0C817D90709F020E0822FDF917E
S1131890CF911F910F910895CF93DF93C0E2D0E0D1
S11318A0CE010E94101B8F3F31F42196C532D10521
S11318B0B9F781E001C080E0DF91CF910895CF9323
S11318C0DF93C0E2D0E0CE010E94101B823018F0FA
S11318D0803F39F009C0803F21F02596C938D105F1
S11318E091F7CE01BADF01C080E0DF91CF91089576
S11318F00F931F93CF93DF93182FE1DF082F8823D3
S113190081F0C0E2D0E0CE010E94101B811749F0A3
S1131910803F31F02596C938D105A9F700E001C010
S113192000E0802FDF91CF911F910F910895EF92E6
S1131930FF920F931F93CF93DF937C01C62FCC0F9D
S1131940CC0F6C0F605EC62FD0E0CE010E94101B3E
S1131950F7018083CE0101960E94101B082F10E02E
S1131960102F0027CE0102960E94101B082BF701AE
S113197001831283CE0103960E94101B082F10E0EE
S1131980102F0027CE0104960E94101B082BF7018C
S113199003831483DF91CF911F910F91FF90EF90F8
S11319A008958F929F92AF92BF92CF92DF92EF925F
S11319B0FF920F931F93CF93DF936C01F62E0E9437
S11319C0B301E82E8823C1F16FEF7FEF80E090E050
S11319D00E94B90080E00E94C200FF20B1F0C0E084
S11319E000E210E062E0C6018C0F911D41D0D82FB7
S11319F0682FC8010E94351B0F5F1F4F8D2F0E9457
S1131A00B600CE5FCF1570F302C000E210E00E9472
S1131A10F8004B015C010E94C70160EFC8010E94FD
S1131A20351B692D7727C80101960E94351B682D47
S1131A30C80102960E94351B8E2DDF91CF911F9114
S1131A400F91FF90EF90DF90CF90BF90AF909F9059
S1131A508F90089590ED980F9A3030F09FEB980F87
S1131A60963020F487530895892F089580E00895CF
S1131A70EF92FF920F931F93CF93DF936623E9F0C6
S1131A808C016150E62EF12C2FEFE21AF20AE80ED7
S1131A90F91E80E090E0EC01C295D295D07FDC275E
S1131AA0C07FDC27F80181918F01D4DF9E01282BB0
S1131AB0C9010E151F0579F702C080E090E0DF919F
S1131AC0CF911F910F91FF90EF9008951F93CF93A3
S1131AD0DF93EC018881882341F0162F2196612F32
S1131AE00E94F01689918111FACFDF91CF911F9155
S1131AF00895FF920F931F93CF93DF93662381F092
S1131B00F42EEC016150062F10E00F5F1F4F080FF9
S1131B10191F6F2D89910E94F016C017D107C9F7BC
S1131B20DF91CF911F910F91FF900895CF93DF9391
S1131B30C82FD62FE82FE295EF70F0E0EE5CFE4D53
S1131B4080810E94F016CF70EC2FF0E0EE5CFE4D29
S1131B506D2F80810E94F016DF91CF910895CF926E
S1131B60DF92EF92FF920F931F93CF93DF93CDB742
S1131B70DEB7C55DD109CDBFDEBF8EDE811117C0D2
S1131B809EDE811117C060E082E70E94F01680910A
S1131B90680685FD02C088E401C082E460E00E941A
S1131BA0F01660E089E091E291DFC12C05C0CC24FD
S1131BB0C39402C0CC24C3948E010F5F1F4FD12C59
S1131BC0F12C6F2DCE018F529F4FB1DEF394CF5283
S1131BD0DF4F8881C15DD040803F19F1F8018083D7
S1131BE0CE52DF4F9881C25DD040CD52DF4F288165
S1131BF0C35DD04021839283CC52DF4F9881C45D72
S1131C00D040CB52DF4F2881C55DD04023839483DD
S1131C10F5E0DF0E823028F40B5F1F4F88E2F812E4
S1131C20D0CF0E94B301882309F46EC06FEF7FEF19
S1131C3080E090E00E94B90080E00E94C20061E070
S1131C4082E70E94F0168091680685FD02C088E450
S1131C5001C082E461E00E94F01660E080E20E942C
S1131C60F01661E08D2D880F61DF60E080E20E9454
S1131C70F016D1103FC019C061E0F70181917F01D6
S1131C8055DF109F812D112486958695982F990FE5
S1131C90990F890FF12FF81BF43021F460E080E2F2
S1131CA00E94F0161F5FD112E7CFC11012C061E08D
S1131CB0CD52DF4F8881C35DD04038DF61E0CE5222
S1131CC0DF4F8881C25DD04031DF60E080E20E9456
S1131CD0F0160E94F800162F072F0E94C70160E03B
S1131CE0802F24DF60E0812F21DF60E08AE00E9402
S1131CF0F0160AC061E0898119DF7E0182E0E80EF6
S1131D00F11C10E00DECCECFCB52DF4FCDBFDEBFC8
S1131D10DF91CF911F910F91FF90EF90DF90CF90C3
S1131D2008958091BD248B30A9F58091BF248E3411
S1131D3089F58091C024813469F58091C12482346D
S1131D4049F58091C2248C3429F58091C3248534CB
S1131D5009F58091C8248A30E9F466E08EEB94E2B8
S1131D600E94CA018823B1F01092EC2280911C20B9
S1131D70882349F081E08093E7226091BD248EEBB3
S1131D8094E254C1089581E08093EA2260E08FE1F7
S1131D9091E29CCE08958091E922811104C0809142
S1131DA0E822882341F08091BD24873021F480917A
S1131DB0C4248A3029F060E08FE291E287CE08954E
S1131DC062E08EEB94E20E94CA01882381F0C7DEB0
S1131DD080911C20882379F01FD18091BF24823305
S1131DE051F46091BD248EEB94E220C1089560E02B
S1131DF08FE291E26BCE0895CF93DF9362E080ECA3
S1131E0094E236DEEC01982F8091E922811104C01E
S1131E108091E822882399F0993C88F42091BD248C
S1131E2030E0CE01992709962817390741F4E0914B
S1131E30BD24F0E0E354FB4D80818A3029F060E05A
S1131E408FE291E243DE35C06C2F6C5F8EEB94E23F
S1131E500E94CA01882349F16C2F82EC94E2A1DD2F
S1131E60882381F060E087E7BBD78091680685FD11
S1131E7002C088E401C082E461E0B2D760E08AE095
S1131E80AFD704C060E08FE291E220DE80911C2095
S1131E90882379F0C1D08091BF24823351F46091BA
S1131EA0BD248EEB94E2C2D004C060E08FE291E2E4
S1131EB00DDEDF91CF910895CF938091E92288239D
S1131EC041F08091BD24863021F48091C3248A306E
S1131ED029F060E08FE291E2F9DD13C061E08EEB5E
S1131EE094E20E94CA01882341F0C0E08C2F0E9432
S1131EF06D02CF5FCC30D1F704C060E08FE291E295
S1131F00E5DDCF91089580911C20811107C0609177
S1131F10BD2440E08EEB94E2ECDD7EC00895809118
S1131F201C20811107C06091BD2440E08EEB94E237
S1131F30E0DD72C0089580911C20811107C060917A
S1131F40BD2440E08EEB94E2D4DD66C00895809118
S1131F50BD24813021F460E08AE042D75DC0089559
S1131F608091BD24882309F438C08091BE24823531
S1131F70A9F03CF48F33E1F0853471F08A30D9F460
S1131F8019C0873569F01CF4833561F014C08237B9
S1131F9059F0873759F00FC0C4DE0DC0FCDE0BC00A
S1131FA02BDF09C089DF07C0AEDF05C0B8DF03C07F
S1131FB0C2DF01C0CCDF80EDEEEBF4E2DF011D9265
S1131FC08A95E9F71092BD248091E622882329F0AE
S1131FD06091E6228DEE93E229C00895E0E6F6E0F2
S1131FE088E0818384E0828362E070E280EC99E09F
S1131FF035D3E0ECF9E082818F7C8062828308959E
S1132000CF93C82F692F80EC99E007D26C2F80EC16
S113201099E003D2CF91089580EDEDEEF3E2DF0174
S11320201D928A95E9F71092E6220895EF92FF92A5
S11320300F931F93CF93DF937C01909112229923E6
S113204051F087EC90E00197F1F700C00000809117
S1132050122281112BC0162F81E08093122261E09D
S113206080EC99E0DAD165E080EC99E0D6D11123D7
S113207081F0E7011150212F30E02F5F3F4F87019E
S1132080020F131F699180EC99E0C7D1C017D107E3
S1132090C9F764E080EC99E0C0D18FEC97E0019738
S11320A0F1F700C0000010921222B6DFDF91CF9149
S11320B01F910F91FF90EF90089580911222882331
S11320C051F087EC90E00197F1F700C00000809197
S11320D0122281114EC081E08093122261E080ECD3
S11320E099E09BD162E080EC99E097D18091CC217A
S11320F09091CD2185DF8091CA219091CB2180DF01
S11321008091C8219091C9217BDF8091C621909153
S1132110C72176DF8091C4219091C52171DF809120
S1132120C2219091C3216CDF8091C0219091C12183
S113213067DF8091BE219091BF2162DF80910020F2
S1132140909101205DDF8091BC219091BD2158DFE9
S11321508091BA219091BB2153DF64E080EC99E037
S11321605CD18FEC97E00197F1F700C0000010926A
S113217012220895E9E1F3E2808190E0982F882704
S11321802181822B80930F2290931022828190E0F0
S1132190982F88272381822B80930D2290930E22DF
S11321A0848190E0982F88272581822B80930B22AD
S11321B090930C22868190E0982F88272781822B88
S11321C08093092290930A22808590E0982F882793
S11321D02185822B8093072290930822828590E0A8
S11321E0982F88272385822B80930522909306229B
S11321F0848590E0982F88272585822B809303225D
S113220090930422868590E0982F88272785822B37
S11322108093012290930222808990E0982F88274E
S11322202189822B8093092090930A20828990E04F
S1132230982F88272389822B8093FF219093002253
S1132240848990E0982F88272589822B8093FD210B
S11322509093FE2180EDDF011D928A95E9F70895A0
S11322600F931F932091F4223091F5224091FB218A
S11322705091FC21D901A41BB50B1B9710F01092AF
S1132280FA212093FB213093FC214091FA21411142
S11322900AC0613071058105910509F083C081E0B0
S11322A08093FA217FC04130D1F4623071058105F9
S11322B0910531F482E08093FA211092F92172C0E1
S11322C0653071058105910539F482E08093FA2126
S11322D081E08093F92166C01092FA2163C08B01DA
S11322E09C018091F9218823A1F104301105210575
S11322F03105D1F48091BD24811113C050E04250C6
S1132300510969E173E28EEB94E20E940D1F9FB7BD
S1132310F8948091FA2182508093BD2410921C205D
S11323209FBF1092FA213EC0423D48F4E42FF0E0F2
S1132330E95EFC4D00834F5F4093FA2133C080ED8A
S1132340E9E1F3E2DF011D928A95E9F71092FA219F
S113235029C04831F9F4043011052105310539F457
S113236009DF809111228F5F8093112209C080912F
S1132370F7219091F82101968093F7219093F82109
S113238080EDE9E1F3E2DF011D928A95E9F710920D
S1132390FA2108C0E42FF0E0E95EFC4D00834F5FB2
S11323A04093FA211F910F9108951F920F920FB637
S11323B00F9211242F933F934F935F936F937F93C7
S11323C08F939F93AF93BF93EF93FF938091C10932
S11323D0882344F480EC99E028D0682F70E080E0F2
S11323E090E03EDFFF91EF91BF91AF919F918F916C
S11323F07F916F915F914F913F912F910F900FBEFD
S11324000F901F9018951F920F920FB60F921124E0
S11324100F900FBE0F901F901895FC01918195FFAE
S1132420FDCF608380E090E00895FC0191819923C1
S1132430ECF7808108954F925F926F927F928F9212
S11324409F92AF92BF92EF92FF920F931F93CF93FD
S11324507C014A015B0128013901FC01838182FF6F
S113246016C0D901C801689412F8B695A795979536
S113247087951694D1F7B901A801032E36E1769514
S11324806795579547953A95D1F7302D15C0D901E1
S1132490C801689413F8B695A795979587951694EF
S11324A0D1F7B901A801032E37E1769567955795C1
S11324B047953A95D1F7302D88159905AA05BB059E
S11324C008F4A6C084169506A606B70608F4A2C0AA
S11324D0F701838182FD04C0880C991CAA1CBB1CD3
S11324E0C301B201A50194010E94CC1E2F3F310506
S11324F04105510508F490C08FEF90E0A0E0B0E0F2
S1132500C9EF05C0281739074A075B0758F0880F39
S1132510991FAA1FBB1FCD3F0CF48160CF5FC7304A
S113252089F74FC0CC230CF04CC0D501C401880FEF
S1132530991FAA1FBB1F880F991FAA1FBB1F880FB3
S1132540991FAA1FBB1F481A590A6A0A7B0ACE3F61
S1132550F4F48DEF9FEF8C1B9109C7FD939504C094
S1132560440C551C661C771C8A95D2F7D501C4010E
S1132570B695A79597958795BC01CD01640D751DFA
S1132580861D971DA50194010E94CC1E37C083E0CF
S11325908C0FA501940104C0220F331F441F551F43
S11325A08A95D2F7DA01C901B695A79597958795CB
S11325B0BC01CD01640D751D861D971D0E94CC1EA6
S11325C01DC083E08C0FA501940104C0220F331FAA
S11325D0441F551F8A95D2F7DA01C901B695A7950C
S11325E097958795BC01CD01640D751D861D971DBA
S11325F00E94CC1E2150310941095109832F8F704B
S1132600C295C07FC82BF701C783268381E018C019
S113261080E016C080E014C0D501C401880F991F62
S1132620AA1FBB1F880F991FAA1FBB1F880F991FC2
S1132630AA1FBB1F481A590A6A0A7B0AC9EF89CF25
S1132640CF911F910F91FF90EF90BF90AF909F900B
S11326508F907F906F905F904F9008950F931F938A
S1132660CF93DF93EC018B01892B09F477C0C1155B
S113267084E0D80721F464E080E06FD66FC0C038EE
S1132680E1E0DE0721F462E080E067D667C0C115AF
S1132690F1E0DF0721F461E080E05FD65FC0C0387D
S11326A083E0D80721F461E081E057D657C0C11513
S11326B0E2E0DE0721F462E081E04FD64FC0C115AD
S11326C0F3E0DF0721F464E081E047D647C0C11599
S11326D088E0D80721F461E083E03FD63FC0C034EE
S11326E0E8E0DE0721F462E083E037D637C0C03487
S11326F0F9E0DF0721F462E084E02FD62FC0C03B6D
S113270088E0D80721F464E083E027D627C0C03EE0
S1132710E8E0DE0721F468E083E01FD61FC0C03C78
S1132720F8E0DF0721F460E183E017D617C0C03C6E
S113273089E0D80721F460E184E00FD60FC0C038E7
S1132740E4E0DE0721F460E483E007D607C0C03686
S1132750F4E0DF0719F460E880E0FFD58C818F7323
S11327608C83F80195818481892B9681911198E05D
S1132770892B8C83F801408151816281738100E04F
S113278012E12AE730E0CE0156DE9B8198609B83FC
S11327909B8190619B83DF91CF911F910F9108954D
S11327A09091800024E0829FB00111246C73927098
S11327B09160692B80E890E087D7E0E8F0E08281BF
S11327C080FDFDCF0895609180006C73636080E8A4
S11327D090E07AD7E0E8F0E0828180FDFDCF0895B3
S11327E0CF93DF93CDB7DEB72C97CDBFDEBFBE014D
S11327F06E5F7F4F9BE0FB0111929A95E9F795E696
S11328009A8321E030E02E833F83AE014F5F5F4F18
S1132810488759872A873B8780688B8341E080E813
S113282094E00E94720B811102C0898101C080E092
S11328302C96CDBFDEBFDF91CF910895CF93DF9368
S11328401092EC2320E0C0E6D6E030E0F901E25932
S1132850FE4D80818093EB23988595FF07C0F90195
S1132860E85AFE4D90819093E92306C0F901EE5B8E
S1132870FE4D90819093E923B3DF8093EA239091F6
S1132880E92389130FC08FE19EE40197F1F700C09B
S113289000002091EC232F5F2093EC232631A8F233
S11328A081E001C080E0DF91CF910895CF93DF9361
S11328B0CDB7DEB72C97CDBFDEBF6C87BE016F5F8F
S11328C07F4F9BE0FB0111929A95E9F795E6998376
S11328D080688A8381E090E08D839E839E01245FDB
S11328E03F4F2F83388789879A8740E080E894E0B8
S11328F00E94720B2C96CDBFDEBFDF91CF9108955D
S1132900AF92BF92CF92DF92EF92FF920F931F93F9
S1132910CF93DF93CEE6D1E20F2EF8E5EF2EF1E26E
S1132920FF2EF02D02E411E20F2EF4E8CF2EF1E297
S1132930DF2EF02D0F2EF0E6AF2EF6E0BF2EF02D99
S11329408991F501908595FF03C0F701608102C06C
S1132950F8016081ABDF8FE19EE40197F1F700C0DD
S113296000009FEFE91AF90A0F5F1F4FCC15DD0530
S113297039F7DF91CF911F910F91FF90EF90DF9086
S1132980CF90BF90AF900895CF9361E486E08EDF3F
S11329908FE19EE40197F1F700C0000081E020DFA1
S11329A0C5E60AC08FE19EE40197F1F700C000007C
S11329B081E016DFC15099F086FDF4CF8FE19EE4EB
S11329C00197F1F700C0000060E486E06FDF8FE15B
S11329D09EE40197F1F700C0000081E001C080E0AF
S11329E0CF9108952BDF81110FC08ADF27DF882361
S11329F069F02FEF80E792E0215080409040E1F7AA
S1132A0000C00000C1CF089581E0089580E00895DA
S1132A10CF93DF93CBE0D0E288819981AA81BB81F7
S1132A209C01AD01220F331F441F551F60E072E16A
S1132A308AE790E00E94CC1EDA01C9010597A1093A
S1132A40B1098C839D83AE83BF8360E483E085D426
S1132A50BE0180E894E00E945D0BDF91CF91089560
S1132A60E0EEF7E081E081838583089581E080933F
S1132A70E50786E0E0EEF7E091E097832FEF31EE93
S1132A8044E0215030404040E1F700C00000815054
S1132A90A1F708957F928F929F92AF92BF92CF92A7
S1132AA0DF92EF92FF920F931F93CF93DF931F92C6
S1132AB0CDB7DEB7782EB62E942EA52E1FE11817AB
S1132AC008F4EEC040E050E080E0E12CF12C60E03E
S1132AD070E0E0E0F8E090E1A0E6B6E032E08824BF
S1132AE08394042F148514FFFDCF948700FF04C042
S1132AF015969C931597CBC016969C931697083001
S1132B0050F46A0155231CF41FEFC11AD10AD5945D
S1132B10C794C982B3C00C30A8F46A0188E0C81A0B
S1132B20D108860112F40F5F1F4F1595079509838D
S1132B301981111103C011963C9311970981802FBB
S1132B4081709CC00031B0F46A011CE0C11AD10844
S1132B50860112F40F5F1F4F15950795098319819C
S1132B601170213009F086C0882D112309F486C024
S1132B7080E084C00A31E0F46A0180E1C81AD10817
S1132B80860112F40F5F1F4F15950795098319816C
S1132B90111102C0672D70E08B01129502950F7020
S1132BA001271F700127802F8170660F771F66C071
S1132BB00432E0F46A011AE1C11AD108860112F460
S1132BC00F5F1F4F1595079509831981111102C0D5
S1132BD06B2D70E08B01129502950F7001271F7009
S1132BE00127802F8170660F771F48C00832C0F418
S1132BF06A0184E2C81AD108860112F40F5F1F4FDC
S1132C001595079509831981111105C0213019F40F
S1132C1012963C93129709810825802F81702EC04B
S1132C20083400F56A0118E2C11AD108860112F4C9
S1132C300F5F1F4F1595079509831981111102C064
S1132C40692D7A2D872F881F8827881F660F771F85
S1132C50EE0CFF1C18961C91189711FF0FC0689476
S1132C60E0F80CC0E0E6F6E082E0858382838E2DF6
S1132C709F2D18C0882D111101C080E0882321F0F8
S1132C8015963C93159703C016963C9316974F5F81
S1132C905F4F4C34510509F024CF8E2D9F2D02C077
S1132CA08FEF9FEF0F90DF91CF911F910F91FF90C6
S1132CB0EF90DF90CF90BF90AF909F908F907F90D8
S1132CC0089521E040E050E0E5CE089520E0E2CE12
S1132CD00895CF93C82F41E051E064E0F7DF8FE11E
S1132CE09EE40197F1F700C0000064E08C2FE9DF57
S1132CF09C018FE19EE40197F1F700C0000081E0A0
S1132D002130314009F080E0CF910895FF920F9374
S1132D101F93CF93DF93CDB7DEB72597CDBFDEBF2B
S1132D20082F811102C081E001C083E0F82E10E079
S1132D30612FCE0101960E94970C1F5F8981803F0D
S1132D4009F180131BC00230F8F44C815D816A8163
S1132D508F2DBCDF8FE19EE40197F1F700C00000E6
S1132D606A818F2DAEDF2C813D818217930771F428
S1132D708FE19EE40197F1F700C000001630C1F620
S1132D8081E005C081E003C080E001C080E02596B9
S1132D90CDBFDEBFDF91CF911F910F91FF900895BA
S1132DA080E00E94780C882319F080E0AFDF02C035
S1132DB081E08FDF882359F081E00E94780C88231A
S1132DC019F081E0A3CF089583E083CF089580E0D4
S1132DD0089581E080931B20089510921B2008958C
S1132DE0CF93DF93C82FD62F682F80EC98E015DBA4
S1132DF080911B208823B1F08091E622803D90F4DD
S1132E00E091E622F0E0E351FC4DC0838091E6229C
S1132E108F5F8093E622DD2329F0C03219F08C2FD6
S1132E200E94B600DF91CF910895CF93C0916806B8
S1132E300E94110488E0809341068091EB2288234C
S1132E4019F081E08093EC228091E722882311F12C
S1132E501092EC2281E08093E9221092E82260E053
S1132E6084E891E20E94660DC5FF06C060E08CE92B
S1132E7091E20E94660D05C060E082EA91E20E9440
S1132E80660D80EDEDEEF3E2DF011D928A95E9F720
S1132E901092E6228091EA22882339F01092EC22E3
S1132EA01092E92281E08093E8221092EB221092A2
S1132EB0E7221092EA22CF910895E0E4F6E088E058
S1132EC0828384E0828364E170E280EC98E0C6DB74
S1132ED0E0ECF8E082818F7C8061828308951F9208
S1132EE00F920FB60F9211242F933F934F935F933A
S1132EF06F937F938F939F93AF93BF93EF93FF93BE
S1132F00CF93DF9300D000D0CDB7DEB78091C10856
S1132F1088230CF082C080EC98E087DA90E0A0E08F
S1132F20B0E089839A83AB83BC838091E9228111C9
S1132F301EC08091EC2281111AC08091E822811177
S1132F4016C089819A81AB81BC8185359105A10523
S1132F50B10569F48091E5228F5F8093E5228A3080
S1132F6040F081E08093EB221092E52202C010929F
S1132F70E5228091E422803DA8F449815A816B8145
S1132F807C81403251056105710561F049815A81A6
S1132F906B817C81E82FF0E0EC5EFD4D40838F5F18
S1132FA08093E42289819A81AB81BC810A97A1052F
S1132FB0B10529F04091E422403D79F529C0809182
S1132FC0BD24811115C04091E4224423B1F050E0A6
S1132FD064E172E28EEB94E220D78FB7F89490917B
S1132FE0E4229093BD2491E090931C208FBF05C0F0
S1132FF0809113228F5F8093132280911322863055
S113300020F0109213221092BD241092E42205C0E5
S11330108091BD248111ECCFDACF2496CDBFDEBFE1
S1133020DF91CF91FF91EF91BF91AF919F918F91DC
S11330307F916F915F914F913F912F910F900FBEB0
S11330400F901F9018951F920F920FB60F92112494
S11330500F900FBE0F901F9018951F920F920FB6EE
S11330600F9211242F933F934F935F936F937F930A
S11330708F939F93AF93BF93EF93FF934091240259
S113308050912502E0911723F091182361E080E02C
S113309092E00995FF91EF91BF91AF919F918F912C
S11330A07F916F915F914F913F912F910F900FBE40
S11330B00F901F901895CF92DF92EF92FF920F938B
S11330C01F93CF93DF931F92CDB7DEB7811522E014
S11330D09207D9F57B018C0161E270E082E0EAD2CB
S11330E0C82ED12C60E270E082E0E4D2DC2CCC2447
S11330F0C82A8FB78983F894D980C8010E94D3075E
S1133100F8018081817092E09083C486F701248164
S11331103581F801208F318FF7019181F801928375
S1133120F7019381F8019483F7019281F801938365
S1133130F7019081F8019183F7019681F801908756
S11331408083C8010E94E307DFBE0F90DF91CF9117
S11331501F910F91FF90EF90DF90CF900895DF9231
S1133160EF92FF920F931F93CF93DF931F92CDB7EC
S1133170DEB78C017B018FB78983F894D980C801AD
S11331800E94D307F801808D918DF7018483958384
S1133190F8018281F7018183F8018481F701838337
S11331A0F8018381F7018283F8018181F70180832B
S11331B0F8018085F7018683C8010E94E307DFBE1A
S11331C00F90DF91CF911F910F91FF90EF90DF90BF
S11331D00895DF92EF92FF920F931F93CF93DF93A3
S11331E01F92CDB7DEB78C017A018FB78983F8942B
S11331F0D980C8010E94D307F7018081F80180A318
S1133200F7018281F80182A3F7018181F80181A38A
S1133210F7018381F80186A3F7018481F80187A36C
S1133220F7018581F80180A7F7018681F80181A75C
S1133230F7018781F80182A7F7018085F80183A748
S1133240F7018185F80184A7C8010E94E307DFBE66
S11332500F90DF91CF911F910F91FF90EF90DF902E
S11332600895DF92EF92FF920F931F93CF93DF9312
S11332701F92CDB7DEB78C017A018FB78983F8949A
S1133280D980C8010E94D307F80180A1F701808387
S1133290F80182A1F7018283F80181A1F7018183FA
S11332A0F80186A1F7018383F80187A1F7018483DC
S11332B0F80180A5F7018583F80181A5F7018683CC
S11332C0F80182A5F7018783F80183A5F7018087B8
S11332D0F80184A5F7018187C8010E94E307DFBED6
S11332E00F90DF91CF911F910F91FF90EF90DF909E
S11332F00895CF93DF9300D0CDB7DEB78FEF8093DF
S113330070008093710080937200809373008093A7
S1133310740080937500809376008FB78A83F89445
S11333209A81E0E5F0E08081806280839FBF8181A3
S113333085FFFDCF65E080E490E0C6D18FB7898337
S1133340F8949981E0E5F0E080818E7F80839FBFCF
S11333500F900F90DF91CF910895CF93DF931F9239
S1133360CDB7DEB79FB79983F8949981E82FF0E041
S1133370E059FF4F60958081682360839FBF0F9061
S1133380DF91CF910895CF93DF931F92CDB7DEB72E
S11333909FB79983F8949981E82FF0E0E059FF4FA3
S11333A08081682B60839FBF0F90DF91CF91089538
S11333B01F920F920FB60F9211242F933F934F93A6
S11333C05F936F937F938F939F93AF93BF93EF9389
S11333D0FF93E091EE22F091EF22309779F0809103
S11333E0870384FF06C040E060E080E893E009952D
S11333F005C040E860E080E893E00995FF91EF9113
S1133400BF91AF919F918F917F916F915F914F91F8
S11334103F912F910F900FBE0F901F9018951F9200
S11334200F920FB60F9211242F933F934F935F93F4
S11334306F937F938F939F93AF93BF93EF93FF9378
S1133440E091EE22F091EF22309779F0809187039A
S113345085FF06C040E061E080E893E0099505C07F
S113346040E861E080E893E00995FF91EF91BF9116
S1133470AF919F918F917F916F915F914F913F9108
S11334802F910F900FBE0F901F9018951F920F92BF
S11334900FB60F9211242F933F934F935F936F9323
S11334A07F938F939F93AF93BF93EF93FF93E09199
S11334B0EE22F091EF22309739F040918703407C5F
S11334C060E080E893E00995FF91EF91BF91AF919F
S11334D09F918F917F916F915F914F913F912F9128
S11334E00F900FBE0F901F901895CF92DF92EF921E
S11334F0FF920F931F93CF93DF931F92CDB7DEB745
S11335002FB72983F894C980803823E09207D1F437
S11335107A01D62E8C018091ED22811103C061E0E5
S113352081E01BDF8091ED228F5F8093ED22F70114
S11335308281F8018583F7018381F8018683DD2088
S113354019F00BC0CFBE1CC0F7018181F801828342
S1133550F7018081F801808308C0F7018181F801B7
S11335608383F7018081F80181838091ED2281506A
S11335708093ED22811103C061E081E004DFCFBEBE
S11335800F90DF91CF911F910F91FF90EF90DF90FB
S1133590CF900895EF92FF920F931F93CF93DF93F1
S11335A000D0CDB7DEB72FB72A83F894EA808038ED
S11335B023E0920701F5F62E8C018091ED22811112
S11335C003C061E081E0C9DE8091ED228F5F8093CA
S11335D0ED2280918F258F3F09F4FFCF8FB7898328
S11335E0F8949981EEE8F5E281818F5F81839FBF32
S11335F0FF2019F007C0EFBE0AC0F8018081816086
S1133600808304C0F801818181608183EFBE0F90C3
S11336100F90DF91CF911F910F91FF90EF9008953C
S11336209C01E0ECF1E097859923ECF3F901F05F5C
S113363080810895E0ECF1E087858823ECF38091A4
S1133640CF0181FF07C086E38093CA0161E08BEC60
S113365091E03AC00895E0ECF1E097859923ECF30A
S1133660E82FF0E0F05F60830895FF920F931F93BB
S1133670CF93DF93182FF92EC62F0091CA01DADFFA
S1133680E0ECF1E087858823ECF36C2F812FE3DFF6
S1133690C0ECD1E01A82F982188385E38A8761E05D
S11336A08BEC91E011D00A87DF91CF911F910F919C
S11336B0FF9008954091CA01E62FF72F8093CA0125
S11336C084914093CA0108951BBEFC0128ED24BFD8
S11336D0608308950F931F93CF93DF930ADEEEE880
S11336E0F5E210821182128213821482C1E0C58332
S11336F000EA10E0D7E0F801D2830E94E70BDDDB9B
S11337000E94EE0FF801D283789489E049D8109290
S1133710F3221092F2221092F1228FE19EE401979B
S1133720F1F700C0000080E4809366069FEFE0E7B5
S1133730F2E09150E040F040E1F700C00000C09397
S1133740E6070E945F0C8093F022D1E000E616E0C9
S1133750C0E42DC08091F222811105C043D9809329
S1133760F222882349F12FEF83ED90E3215080402A
S11337709040E1F700C00000F801C583FFEF20E7A7
S113378082E0F15020408040E1F700C000008091C9
S1133790F122811105C004DB8093F122882339F0E2
S11337A08091F222882319F0D093F3225FD980917B
S11337B0F322882379F205C08091F1228111F7CF99
S11337C0EACFDF91CF911F910F91089580E8809304
S11337D065060E94E313912CE12CF12CC0E0D0E0AB
S11337E000E018E06894772474F80F2EFEE88F2E1A
S11337F0F02D0F2EF0E6CF2EF6E0DF2EF02D68949C
S1133800552457F86894662466F80F2EF0EEAF2E10
S1133810F7E0BF2EF02D44244394F801848584FFFF
S1133820FCCF74869E01ADECBCECDED296958795F8
S1133830969587959C01220F331F220F331F820F09
S1133840931FC817D90729F488E00E940D060E9427
S1133850B00F9E01A3ECB6EEC7D2880F892F881F44
S1133860990B9195889E9001899E300D1124C21761
S1133870D307A1F4209759F48091EC22811104C05C
S11338808091E922882361F0F501478209C0809183
S1133890F322811116C0F501478213C0209789F4E1
S11338A08091EB22811108C08091E722811104C02C
S11338B08091EA22882389F0F60156826682B5DA7D
S11338C00CC0C739D10548F0F8E0F91530F09F165F
S11338D019F0892D0E940D069394C83582E0D8070B
S11338E019F40E945D1067C0C73EE3E0DE0709F0EB
S11338F062C08091EC22882339F0C0E08C2F0E94B2
S11339006D02CF5FCC30D1F7F3E0EF16F10409F08C
S113391043C04FB7F8948091112290E020919425F0
S1133920309195254FBF8217930761F510920F22AE
S11339301092102210920D2210920E2210920B223D
S113394010920C221092092210920A22109207223D
S1133950109208221092052210920622109201223F
S1133960109202221092092010920A201092FF2134
S1133970109200221092FD211092FE211092032237
S1133980109204228091112290E0809394259093C8
S11339909525E12CF12C03C08FEFE81AF80A8091E9
S11339A0CE21833018F48F5F8093CE21A895912C7B
S11339B0C0E0D0E032CF8FB7F89421968FBF2DCFDF
S11339C089DE04DF5058BB27AA270ED048C139D15D
S11339D030F03ED120F031F49F3F11F41EF42EC19B
S11339E00EF4E095E7FB24C1E92F4AD180F3BA171E
S11339F0620773078407950718F071F49EF562C196
S1133A000EF4E0950B2EBA2FA02D0B01B9019001F5
S1133A100C01CA01A0011124FF27591B99F0593F39
S1133A2050F4503E68F11A16F040A22F232F342F81
S1133A304427585FF3CF469537952795A795F040CF
S1133A405395C9F77EF41F16BA0B620B730B840BE4
S1133A50BAF09150A1F0FF0FBB1F661F771F881F9C
S1133A60C2F70EC0BA0F621F731F841F48F48795F4
S1133A7077956795B795F7959E3F08F0B3CF9395E3
S1133A80880F08F09927EE0F9795879508950CD025
S1133A90E6C0DED040F0D5D030F021F45F3F19F01D
S1133AA0C7C0511110C1CAC0EBD098F39923C9F310
S1133AB05523B1F3951B550BBB27AA276217730730
S1133AC0840738F09F5F5F4F220F331F441FAA1FE4
S1133AD0A9F333D00E2E3AF0E0E830D091505040A4
S1133AE0E695001CCAF729D0FE2F27D0660F771F52
S1133AF0881FBB1F261737074807AB07B0E809F034
S1133B00BB0B802DBF01FF2793585F4F2AF09E3FC8
S1133B10510568F08DC0D7C05F3FECF3983EDCF3ED
S1133B20869577956795B795F7959F5FC9F7880F41
S1133B30911D9695879597F90895E1E0660F771F93
S1133B40881FBB1F621773078407BA0720F0621B24
S1133B50730B840BBA0BEE1F88F7E095089598D089
S1133B6088F09F5790F0B92F9927B751A0F0D1F062
S1133B70660F771F881F991F1AF0BA95C9F712C0EC
S1133B80B13081F09FD0B1E008959CC0672F782FA9
S1133B908827B85F39F0B93FCCF386957795679558
S1133BA0B395D9F73EF490958095709561957F4FC4
S1133BB08F4F9F4F0895E89409C097FB3EF490956A
S1133BC08095709561957F4F8F4F9F4F9923A9F0F2
S1133BD0F92F96E9BB279395F69587957795679581
S1133BE0B795F111F8CFFAF4BB0F11F460FF1BC0C5
S1133BF06F5F7F4F8F4F9F4F16C0882311F096E958
S1133C0011C0772321F09EE8872F762F05C0662305
S1133C1071F096E8862F70E060E02AF09A95660FBE
S1133C20771F881FDAF7880F9695879597F9089577
S1133C3097F99F6780E870E060E008959FEF80EC5B
S1133C40089500240A9416161706180609060895FE
S1133C5000240A9412161306140605060895092E64
S1133C600394000C11F4882352F0BB0F40F4BF2BD3
S1133C7011F460FF04C06F5F7F4F8F4F9F4F089513
S1133C8057FD9058440F551F59F05F3F71F0479509
S1133C90880F97FB991F61F09F3F79F087950895EE
S1133CA0121613061406551FF2CF4695F1DF08C00D
S1133CB0161617061806991FF1CF8695710561052A
S1133CC008940895E894BB2766277727CB0197F9D2
S1133CD008950BD0C4CFB5DF28F0BADF18F09523D0
S1133CE009F0A6CFABCF1124EECFCADFA0F3959F86
S1133CF0D1F3950F50E0551F629FF001729FBB27CF
S1133D00F00DB11D639FAA27F00DB11DAA1F649F7A
S1133D106627B00DA11D661F829F2227B00DA11D2D
S1133D20621F739FB00DA11D621F839FA00D611DB3
S1133D30221F749F3327A00D611D231F849F600DD4
S1133D40211D822F762F6A2F11249F5750408AF00D
S1133D50E1F088234AF0EE0FFF1FBB1F661F771F99
S1133D60881F91505040A9F79E3F510570F060CFD5
S1133D70AACF5F3FECF3983EDCF386957795679581
S1133D80B795F795E7959F5FC1F7FE2B880F911DB7
S1133D909695879597F90895A1E21A2EAA1BBB1B45
S1133DA0FD010DC0AA1FBB1FEE1FFF1FA217B30703
S1133DB0E407F50720F0A21BB30BE40BF50B661F19
S1133DC0771F881F991F1A9469F7609570958095DD
S1133DD090959B01AC01BD01CF010895EE0FFF1F2B
S1133DE00590F491E02D0994A29FB001B39FC00106
S1133DF0A39F700D811D1124911DB29F700D811D13
S1133E001124911D0895F0DFA59F900DB49F900D8E
S1133E10A49F800D911D11240895FB01DC0102C0B3
S1133E2001900D9241505040D8F70895BB274A3075
S1133E3031F4992322F4BDE2909581959F4F01C0FE
S1133E40BB27FB015527AA27880F991FAA1FA41770
S1133E5010F0A41B83955051B9F7A05DAA3308F064
S1133E60A95DA193009779F7B111B1931192CB0198
S1133E7000C0DC01FC01672F71917723E1F73297D1
S1133E8004C07C916D9370836291AE17BF07C8F331
S1093E900895F894FFCF31
S1133E96FFFF00C20100030000FFFFA0860100002F
S1133EA6000000658025000003000001015635303E
S1133EB67620202020203A20423A200020562C202A
S1133EC6483A200020560A00563333762020202014
S1133ED6203A20423A2000563138762020202020ED
S1133EE63A20423A20005632357620202020203AC5
S1133EF620423A20002D35562020202020203A202A
S1133F06423A20004933337620202020203A2042AA
S1133F163A2000206D412C20483A2000206D410AA9
S1133F26004935307620202020203A20423A2000CD
S1133F36566761696E202020203A20423A200056B6
S1133F466761696E5F6D696E3A20423A2000566772
S1133F5661696E5F6D61783A20423A200054656D5E
S1133F667020202020203A20423A200020432C2092
S1133F76483A200020430A00436F6E6E65637465F9
S1133F86643A2000626F647900686F6C6C6F772006
S1133F967368616674000A0A0020435243206572FE
S1133FA6726F7220696E20454550524F4D0A006566
S1133FB66E61626C65642072656D6F74650A003F9C
S1133FC60A003031323334353637383941424344C6
S1133FD6454601B402024840000000006D02040494
S1133FE6FF800207FF80020401B402022840000099
S1133FF600006D020404FF800207FF800204010230
S113400603040506101112131415161718191A1B92
S11340161C1D1E1F0A656E61626C65640A636F6E01
S11340266E656374656420746F3A2000626F647908
S11340360A00686F6C6C6F772073686166740A0097
S9030000FC
