:100000005EC0000079C0000077C0000075C000002D
:1000100073C0000071C000006FC000006DC0000020
:100020006BC0000069C0000067C000000C94DD08D0
:1000300053C600007AC60000A1C60000C8C6000072
:10004000EFC6000016C700003DC7000064C70000EF
:100050008BC70000B2C700004FC000000C944315CE
:100060004BC0000049C0000047C0000045C0000070
:1000700032C1000057C100003FC000000C94D517EA
:100080000C9408180C943B180C94871635C000008B
:10009000BDC70000E4C700000C9458080C94810808
:1000A0000C94BF0E29C0000027C000006B03890319
:1000B000AC03CA03E80329046A049404C2041124AB
:1000C0001FBECFEFCDBFD7E2DEBF10E2A0E0B0E2AF
:1000D000E8EFFAE302C005900D92A238B107D9F714
:1000E00025E2A2E8B0E201C01D92A33CB207E1F70D
:1000F0000E94FF1A0C947A1D83CFCF93DF9300D018
:1001000000D0CDB7DEB794E0AE014F5F5F4FFA018C
:10011000892F11928A95E9F781E08B8399839091D9
:100120001E22911188E08A8360E080E893E00E94BB
:100130006A1860E080E893E00E94AA1880EC80933F
:10014000B60081E08093840382E08093E1072496E7
:10015000CDBFDEBFDF91CF910895E0EDF0E080816B
:10016000806880838091822090918320A091842058
:10017000B09185208483492F5A2F6B2F7727458391
:10018000AD016627772746838B2F9927AA27BB27A0
:1001900087831092822010928320109284201092E4
:1001A00085200895CF92DF92EF92FF920F931F93D5
:1001B0008091D10080FDFCCF8091D00085FF32C0BE
:1001C0009091D4004091D5008091D6000091D70045
:1001D00010E020E030E0302F222711270027142BD9
:1001E000092B282B40E280E090E0DC01880F991F6A
:1001F000AA1FBB1F6801790151E0C522DD24EE244E
:10020000FF248C0D9D1DAE1DBF1D3695279517959E
:100210000795415059F7BC01CD01609570958095C7
:10022000909508C06091D4008091D50070E0782B43
:1002300080E090E01F910F91FF90EF90DF90CF90C2
:100240000895E0EDF0E09081907F90839081892B7C
:10025000808308956093822070938320809384200C
:10026000909385200895CF93C82F77DFC13029F46C
:100270008091D00080628093D00081E0CF91E1CF67
:10028000CF92DF92EF92FF92E1EDF0E0808181600A
:10029000808388DF6B017C0180E0D3DFC701B6017A
:1002A000FF90EF90DF90CF9008950F931F93CF931F
:1002B000DF93EC018B01842FD6DF0C0F1D1FC017BD
:1002C000D10721F089918093D300F9CFDF91CF91AD
:1002D0001F910F91D5CF1F920F920FB60F9211243D
:1002E0002F933F934F935F936F937F938F939F933E
:1002F000AF93BF93EF93FF93E0918920F0918A2011
:100300000995FF91EF91BF91AF919F918F917F914F
:100310006F915F914F913F912F910F900FBE0F9072
:100320001F9018951F920F920FB60F9211242F93C2
:100330003F934F935F936F937F938F939F93AF936D
:10034000BF93EF93FF93E0918720F0918820099568
:10035000FF91EF91BF91AF919F918F917F916F919D
:100360005F914F913F912F910F900FBE0F901F9073
:10037000189580918B20811104C081E080938B209F
:10038000089587EC90E00197F1F700C0000080919C
:100390008B20882391F380E008950F931F93CF93D0
:1003A0008C01C62FE6DF882379F06FEF7FEF80E0C6
:1003B00090E050DF6C2F70E040E0C80176DF1092D3
:1003C0008B20962F872F02C080E090E0CF911F9165
:1003D0000F9108950F931F93CF938C01C62FC9DF00
:1003E000882371F06FEF7FEF80E090E033DF6C2FB8
:1003F00070E040E0C80159DF10928B20CB0102C0B1
:1004000080E090E0CF911F910F910895CF93DF93FB
:1004100000D0CDB7DEB760E880E00E94A7178091DA
:10042000C2258F3F09F4FFCF8FB78A83F8949A8152
:100430008091C2258F5F8093C2259FBF1092862036
:10044000809160048F7C809360048091600480932D
:10045000600480916004887F8093600480916004D0
:10046000836080936004809161048C7F8093610439
:100470008091610482608093610480916104837F34
:10048000809361048091610488608093610480910D
:1004900061048F7C80936104809161048062809309
:1004A0006104809161048F73809361048091610481
:1004B000806880936104809160048F7380936004EE
:1004C00080916004809360041092620480916204C1
:1004D0008093620480916304807F809363048091A1
:1004E00063048C6080936304809163048F708093B5
:1004F0006304809163048063809363048FB789836E
:10050000F894998180915406877080935406809165
:1005100054068160809354069FBF80E18093460615
:10052000809160048F738093600480916004806880
:10053000809360040F900F90DF91CF910895CF9337
:10054000DF9300D0CDB7DEB7803120F01092542277
:10055000805105C06A3039F491E090935422880F9D
:10056000880F880F26C090E0643048F422E0209382
:10057000542243E0880F991F4A95E1F719C068306B
:1005800050F423E02093542233E0880F991F3A95CA
:10059000E1F764500DC022E02093542223E0880F3D
:1005A000991F2A95E1F7693011F067E001C064E016
:1005B000862B8093552244E552E261E080E092E090
:1005C0000E941E178FB78A83F8949A818091000247
:1005D0008460809300029FBF80910602982F9170E3
:1005E00080FFFACF909306028FB78983F894298110
:1005F00080912402909125022FBF0F900F90DF91E0
:10060000CF9108950F931F93CF93DF9300D0CDB771
:10061000DEB780914D22897E806180934D2280914A
:100620004E228F78816080934E226DE472E280E0EA
:1006300092E00E94B516109254221092552244E581
:1006400052E261E080E092E00E941E178FB78A8339
:10065000F8949A81809100028460809300029FBF89
:1006600080910602982F917080FFFACF9093060236
:100670008FB78983F8948981009124021091250213
:100680008FBF80914D22897E806180934D22809121
:100690004E228E78806180934E226DE472E280E07B
:1006A00092E00E94B516C8010F900F90DF91CF9194
:1006B0001F910F910895CF93DF9300D000D0CDB755
:1006C000DEB790E08930910508F094C1FC01EA5A48
:1006D000FF4F0C94421D68E085E031DF092E000CCD
:1006E000AA0BBB0B89839A83AB83BC8329813A8194
:1006F0004B815C81A1E7B2E00E94481D20E038E018
:1007000040E050E00E94261D2093292230932A22A7
:1007100071C180911E22882309F46CC168E08FE0CA
:100720000EDF092E000CAA0BBB0B89839A83AB83C7
:10073000BC8329813A814B815C81A1E7B2E00E94B0
:10074000481D20E038E040E050E00E94261D209344
:100750002722309328224EC168E083E0F0DE092E84
:10076000000CAA0BBB0B89839A83AB83BC832981C2
:100770003A814B815C81A5E3BCE00E94481D20E0EA
:1007800038E040E050E00E94261D2093252230935F
:10079000262230C168E084E0D2DE092E000CAA0BCC
:1007A000BB0B89839A83AB83BC8329813A814B81BC
:1007B0005C81A5E3BCE00E94481D20E038E040E0F9
:1007C00050E00E94261D20932D2230932E2212C12C
:1007D00068E088E0B4DE092E000CAA0BBB0B89830D
:1007E0009A83AB83BC8380911E228823F9F0898190
:1007F0009A81AB81BC81BC01CD016C5E72408109E4
:1008000091090E94011C20E030E040EA53E40E947C
:10081000661B20E030E048EC52E40E948D1C0E94F0
:10082000D31B6093312270933222E4C029813A8134
:100830004B815C81ADE0B3E00E94481D20E038E0D0
:1008400040E050E00E94261D209331223093322256
:10085000D1C068E086E073DE092E000CAA0BBB0B4A
:1008600089839A83AB83BC8380911E228823F9F00D
:1008700089819A81AB81BC81BC01CD01685D7140E9
:10088000810991090E94011C20E030E84DE953E400
:100890000E94661B20E030E048EC52E40E948D1C70
:1008A0000E94D31B60932F2270933022A3C0298112
:1008B0003A814B815C81ADE0B3E00E94481D20E0AD
:1008C00038E040E050E00E94261D20932F22309314
:1008D000302290C097DE092E000CAA0BBB0B898337
:1008E0009A83AB83BC8369817A818B819C810E94CE
:1008F000011C20916622309167224091682250911C
:1009000069220E948D1C20915E2230915F224091CD
:100910006022509161220E94021B0E94D31B6093AF
:100920003B2270933C2266C068E087E008DE092E17
:10093000000CAA0BBB0B89839A83AB83BC832981F0
:100940003A814B815C81ACE9B0E00E94481D20E017
:1009500038E040E050E00E94261D29833A834B8313
:100960005C8389819A81AB81BC81880F991F20911A
:10097000292230912A22821B930B80932B22909361
:100980002C2238C068E082E0DADD092E000CAA0BC8
:10099000BB0B89839A83AB83BC8329813A814B81CA
:1009A0005C81ABE1B6E00E94481D20E038E040E009
:1009B00050E00E94261DC901209335223093362233
:1009C00060918C206330B0F06091372270913822B2
:1009D0002617370720F4209337223093382260916E
:1009E000392270913A226817790720F4209339222E
:1009F00030933A222496CDBFDEBFDF91CF91089588
:100A00002F923F924F925F926F927F928F929F921E
:100A1000AF92BF92CF92DF92EF92FF920F931F930C
:100A2000CF93DF938FEF9FEF8093372290933822FD
:100A30006DE472E280E092E00E94F91680914D220E
:100A400090914E229F78906190934E22817E80619A
:100A500080934D222224239420924F2284E080937D
:100A600050226DE472E280E092E00E94B51644E507
:100A700052E261E080E092E00E9449172092542205
:100A80001092552280915622807F8093562244E511
:100A900052E261E080E092E00E941E1780E092E066
:100AA000F2D06FE170E082E00E949E19B82E6EE1F4
:100AB00070E082E00E949E19D82E6FE270E082E022
:100AC0000E949E19082F10E06EE270E082E00E9402
:100AD0009E19102F0027082B6DE270E082E00E9423
:100AE0009E19C82FD0E06CE270E082E00E949E194F
:100AF000382E6B2D70E080E090E00E94FF1B4B01D0
:100B00005C01B80180E090E00E94FF1B2B013C01DA
:100B10006D2D70E080E090E00E94FF1B9B01AC0116
:100B2000C501B4010E94011B6B017C01DC2FCC27A5
:100B3000C329BE0180E090E00E94FF1B9B01AC0135
:100B4000C301B2010E94011B9B01AC01C701B601A8
:100B50000E94661B9B01AC01609366227093672222
:100B60008093682290936922C301B2010E948D1C78
:100B70009B01AC01C501B4010E94011B60935E2280
:100B800070935F22809360229093612282E093DDD4
:100B900080912522909126228C3D95403CF1109227
:100BA0001E228FEF90E722E0815090402040E1F735
:100BB00000C0000068E080E0C2DCBC01990F880B37
:100BC000990B0E94011C20E030E244E755E40E94AA
:100BD0008D1C20E030E040EA56E40E94661B0E9433
:100BE000CE1B609327227093282202C020921E22DF
:100BF00060911E2281E090E09AD460E080E090E075
:100C000096D46FEF82E090E0DF91CF911F910F912A
:100C1000FF90EF90DF90CF90BF90AF909F908F901C
:100C20007F906F905F904F903F902F9080C4CF93B4
:100C3000DF931F92CDB7DEB78FB78983F894898190
:100C40000F90DF91CF9108958115924061F48091CA
:100C50008D2091E0980F90938D20811104C062E067
:100C600081E00C94A71708958115924059F4809162
:100C70008D20815080938D20811104C062E081E03D
:100C80000C94B81708951F93CF93DF93EC01CFDF37
:100C9000182FCE01D9DF8881816088831FBF8091A2
:100CA000BE258F3F09F4FFCFC2DF9091BE259F5F25
:100CB0009093BE258FBFDF91CF911F910895CF9361
:100CC000DF931F92CDB7DEB78FB78983F894898100
:100CD0000F90DF91CF9108951F920F920FB60F9250
:100CE00011242F933F934F935F936F937F938F9331
:100CF0009F93AF93BF93EF93FF93E091A820F09160
:100D0000A920309709F00995FF91EF91BF91AF911C
:100D10009F918F917F916F915F914F913F912F9113
:100D20000F900FBE0F901F9018951F920F920FB645
:100D30000F9211242F933F934F935F936F937F9361
:100D40008F939F93AF93BF93EF93FF93E091A62070
:100D5000F091A720309709F00995FF91EF91BF918D
:100D6000AF919F918F917F916F915F914F913F9143
:100D70002F910F900FBE0F901F9018951F920F92FA
:100D80000FB60F9211242F933F934F935F936F935E
:100D90007F938F939F93AF93BF93EF93FF93E091D4
:100DA000A420F091A520309709F00995FF91EF91CB
:100DB000BF91AF919F918F917F916F915F914F9173
:100DC0003F912F910F900FBE0F901F9018951F927B
:100DD0000F920FB60F9211242F933F934F935F936F
:100DE0006F937F938F939F93AF93BF93EF93FF93F3
:100DF000E091A220F091A320309709F00995FF918E
:100E0000EF91BF91AF919F918F917F916F915F9182
:100E10004F913F912F910F900FBE0F901F901895FB
:100E20001F920F920FB60F9211242F933F934F935F
:100E30005F936F937F938F939F93AF93BF93EF9342
:100E4000FF93E091A020F091A120309709F009953F
:100E5000FF91EF91BF91AF919F918F917F916F9192
:100E60005F914F913F912F910F900FBE0F901F9068
:100E700018951F920F920FB60F9211242F933F9344
:100E80004F935F936F937F938F939F93AF93BF9392
:100E9000EF93FF93E0919E20F0919F20309709F00F
:100EA0000995FF91EF91BF91AF919F918F917F91A4
:100EB0006F915F914F913F912F910F900FBE0F90C7
:100EC0001F9018951F920F920FB60F9211242F9317
:100ED0003F934F935F936F937F938F939F93AF93C2
:100EE000BF93EF93FF93E0919C20F0919D2030976A
:100EF00009F00995FF91EF91BF91AF919F918F916B
:100F00007F916F915F914F913F912F910F900FBE05
:100F10000F901F9018951F920F920FB60F921124E9
:100F20002F933F934F935F936F937F938F939F93F1
:100F3000AF93BF93EF93FF93E0919A20F0919B20A2
:100F4000309709F00995FF91EF91BF91AF919F9173
:100F50008F917F916F915F914F913F912F910F9062
:100F60000FBE0F901F9018951F920F920FB60F9201
:100F700011242F933F934F935F936F937F938F939E
:100F80009F93AF93BF93EF93FF93E0919820F091DD
:100F90009920309709F00995FF91EF91BF91AF919A
:100FA0009F918F917F916F915F914F913F912F9181
:100FB0000F900FBE0F901F9018951F920F920FB6B3
:100FC0000F9211242F933F934F935F936F937F93CF
:100FD0008F939F93AF93BF93EF93FF93E0919620EE
:100FE000F0919720309709F00995FF91EF91BF910B
:100FF000AF919F918F917F916F915F914F913F91B1
:101000002F910F900FBE0F901F9018951F920F9267
:101010000FB60F9211242F933F934F935F936F93CB
:101020007F938F939F93AF93BF93EF93FF93E09141
:101030009420F0919520309709F00995FF91EF9158
:10104000BF91AF919F918F917F916F915F914F91E0
:101050003F912F910F900FBE0F901F9018951F92E8
:101060000F920FB60F9211242F933F934F935F93DC
:101070006F937F938F939F93AF93BF93EF93FF9360
:10108000E0919220F0919320309709F00995FF911B
:10109000EF91BF91AF919F918F917F916F915F91F0
:1010A0004F913F912F910F900FBE0F901F90189569
:1010B0001F920F920FB60F9211242F933F934F93CD
:1010C0005F936F937F938F939F93AF93BF93EF93B0
:1010D000FF93E0919020F0919120309709F00995CD
:1010E000FF91EF91BF91AF919F918F917F916F9100
:1010F0005F914F913F912F910F900FBE0F901F90D6
:1011000018951F920F920FB60F9211242F933F93B1
:101110004F935F936F937F938F939F93AF93BF93FF
:10112000EF93FF93E0918E20F0918F20309709F09C
:101130000995FF91EF91BF91AF919F918F917F9111
:101140006F915F914F913F912F910F900FBE0F9034
:101150001F9018951F93CF93DF93EC01B0DD182FEC
:10116000C11588E0D80711F461E005C0C03488E0FB
:10117000D80739F462E083E00E94A71764E083E0B7
:1011800009C0C034D940A1F462E084E00E94A717EE
:1011900064E084E00E94A7178091BE258F3F09F488
:1011A000FFCF8DDD9091BE259F5F9093BE258FBFB1
:1011B0001FBFDF91CF911F9108951F920F920FB61D
:1011C0000F9211242F933F934F935F936F937F93CD
:1011D0008F939F93AF93BF93CF93DF93EF93FF933F
:1011E000E091AA20F091AB20848183FF06C0886043
:1011F000848383E0838386EF7FC0982F947121F0EE
:1012000083E083838FEF78C086FF41C0A091AC203C
:10121000B091AD208091AE209091AF2014962D9189
:101220003C9115978217930764F49C012F5F3F4F01
:101230002093AE203093AF20A80FB91F11968C9148
:1012400022C08091B0209091B12018962D913C91B0
:10125000199782179307C8F42091B220222321F016
:101260008681816086834AC016962D913C9117979E
:10127000AC014F5F5F4F4093B0205093B120D90134
:10128000A80FB91F8C91878339C083E02CC087FFDA
:1012900032C0A091AC20B091AD208091B02090914F
:1012A000B12018962D913C91199782179307F8F465
:1012B00016966D917C9117979C012F5F3F4F20935D
:1012C000B0203093B1204781EB01C80FD91F48836C
:1012D00018968D919C9119972817390718F482E078
:1012E00083830CC087E083831092B42007C083E01F
:1012F000838389EF01C08BEF8093B420FF91EF913E
:10130000DF91CF91BF91AF919F918F917F916F911D
:101310005F914F913F912F910F900FBE0F901F90B3
:101320001895FC01DB0114968C91858388EB8183F1
:1013300081E08483EAEAF0E211861286E0EAF0E0D6
:10134000828182608283789480E00895CF93DF93D6
:101350001F92CDB7DEB7DC01FB01892B09F444C035
:10136000309709F441C082859091B320992319F0F8
:1013700081113CC0FFCF8FB78983F894898191E0B8
:101380009093B32090E89093B4208FBFA093AA20AD
:10139000B093AB206093AC207093AD201092AE2040
:1013A0001092AF201092B0201092B1204093B22042
:1013B0009081990F24813581232B11F44111916083
:1013C00016969C938091B4208038E1F3E091AA2096
:1013D000F091AB2084818370813009F0F7CF809148
:1013E000B4201092B32003C088EF01C086EF0F90A5
:1013F000DF91CF91089580E098E0ACDEE0E0F8E086
:101400008181887F81838DE790E086A397A3808187
:10141000807F8560808308950F931F93CF93DF9320
:1014200000D0CDB7DEB710E81093020600E40093B9
:101430006106E6DA80911E22882341F00093660659
:1014400081E0809341068093460606C000936506BE
:10145000109361061093660682E0809362068FB750
:101460008A83F8949A8180917106877080937106BF
:10147000809171068861809371069FBF80E180939F
:10148000610698E0909341068093410680E2809344
:1014900062068FB78983F894998180917506877069
:1014A00080937506809175068861809375069FBF4D
:1014B0000E94B8120E947D009EDF80911E22811141
:1014C00002C00E9491120E9406020F900F90DF91BD
:1014D000CF911F910F9108954CE050E06BE971E2BC
:1014E00084E290E00E94F5186AE08BE991E20E94A4
:1014F000CD012091A5213091A6218217930759F49F
:101500008CE0EBE9F1E2A7EAB1E201900D928A9555
:10151000E1F780E0089581E008954CE050E067EA4B
:1015200071E284E290E00E94621981E00895CF9315
:10153000DF931F92CDB7DEB7698341E050E0BE0173
:101540006F5F7F4F0E94621981E00F90DF91CF9112
:101550000895CF93809313226093142290911B20BF
:1015600020911C20909315222093162248E050E0F1
:1015700040931722509318228093ED246093EE2419
:101580002093EF249093F0241092F124C8E0C093AC
:10159000F22466E08DEE94E20E94EA018093192223
:1015A00090931A229093F3248093F424C093EC2414
:1015B000C0E08091EC24C81750F4EC2FF0E0E35128
:1015C000FB4D608180EC98E07CD5CF5FF2CFCF916E
:1015D0000895CF93809313226093142290911B203F
:1015E00020911C20909315222093162248E050E071
:1015F000409317225093182230911E22332311F06A
:1016000036E401C034E53093B4218093ED24609337
:10161000EE242093EF249093F0241092F12488E09C
:101620008093F22466E08DEE94E20E94EA018093BA
:10163000192290931A229093F3248093F42480919A
:10164000B3218093F5248091B4218093F624809176
:10165000B5218093F7241092F8248091B7219091BE
:10166000B8219093F9248093FA248091B921909124
:10167000BA219093FB248093FC248091BB2190910C
:10168000BC219093FD248093FE248091BD219091F4
:10169000BE219093FF24809300258091BF219091DB
:1016A000C02190930125809302258091C1219091C2
:1016B000C22190930325809304258091C3219091AA
:1016C000C42190930525809306251092072510923A
:1016D00008258091C7219091C82190930925809376
:1016E0000A258091C9219091CA2190930B2580935E
:1016F0000C258091CB219091CC2190930D25809346
:101700000E258091CD219091CE2190930F2580932D
:1017100010258091CF21809311258091D021809335
:1017200012258091D121809313258091D22180931D
:1017300014258091D321809315258091D421809305
:10174000162510921725109218258091D721809385
:1017500019258091D82180931A258091D9218093D1
:101760001B258091DA2180931C258091DB218093B9
:101770001D258091DC2180931E258091DD218093A1
:101780001F258091DE21809320258091DF2190917B
:10179000E02190932125809322258091E121909151
:1017A000E22190932325809324258091E321909139
:1017B000E42190932525809326258091E521909121
:1017C000E62190932725809328258091E721909109
:1017D000E8219093292580932A258091E9219091F1
:1017E000EA2190932B2580932C258091EB219091D9
:1017F000EC2190932D2580932E2510922F25109269
:1018000030258091EF219091F021909331258093A4
:1018100032258091F1219091F2219093332580938C
:1018200034258091F3219091F42190933525809374
:1018300036258091F5219091F6219093372580935C
:1018400038258091F721809339258091F821809364
:101850003A258091F92180933B258091FA2180934C
:101860003C258091FB2180933D258091FC21809334
:101870003E2510923F25109240258091FF218093B4
:1018800041258091002280934225809101228093FE
:1018900043258091022280934425809103228093E6
:1018A00045258091042280934625809105228093CE
:1018B0004725809106228093482510924925109251
:1018C0004A2566E585EF94E20E94EA0180930922A9
:1018D00090930A2290934B2580934C2580E6809329
:1018E000EC24C0E08091EC24C81750F4EC2FF0E019
:1018F000E351FB4D608180EC98E0E3D3CF5FF2CF02
:10190000CF91089580919921811105C080919821EE
:10191000882309F46EC01092992110929821809129
:101920000B228535B9F580919521811105C06FE4B1
:1019300085E50FDE60E002C09ED161E080E090E0CE
:10194000F6DD8091C3088F7E8093C3088091C30821
:10195000877F8093C3088091C3098F7E8093C309DA
:101960008091C309877F8093C30960911E2281E023
:1019700090E0DDDD81E08CBF2FEF89E698E121501A
:1019800080409040E1F700C00000E0910020F0911D
:10199000012009948F3421F481E0809396210895E9
:1019A0008D3411F0813441F41092962181E08093BE
:1019B00097216FE48FE4CDCD823449F48091B72034
:1019C000882311F06CE401C06FE482E402CE82351A
:1019D00069F481E08093B62090912022992319F038
:1019E0008093D32108958093FB2108958334A9F433
:1019F00094CD80919A21882381F010929A2162E4FB
:101A00008EE4A7DD2FEF80E792E0215080409040E8
:101A1000E1F700C00000109294210895E0E6F6E09E
:101A200088E0818384E0828362E070E280EC99E068
:101A300039D4E0ECF9E082818F7C80628283089562
:101A400088ED84BF81E0809379000895CF93DF9380
:101A500080919621882311F085E505C0809195211C
:101A6000882331F081E4809370221092B8200FC057
:101A70008091B620882311F082E5F5CF8091B820BF
:101A8000882311F083E501C082E4809370228FE403
:101A90008093712282E090E080937222909373226F
:101AA00088E090E0809374229093752266E080E74E
:101AB00092E20E94CD01809376229093772288E073
:101AC000E0E7F2E2ADEEB4E201900D928A95E1F723
:101AD000CDEED4E2699180EC99E0F3D284E2C53F87
:101AE000D807C1F78FEC97E00197F1F700C000002D
:101AF0008091B620882349F08FE19EE40197F1F7A9
:101B000000C00000DF91CF919BCFDF91CF9108956E
:101B100080911E22811102C084E501C086E4809379
:101B2000B32180912022882309F452C082E480935B
:101B3000B52188E1E5E2F2E2A7EBB1E201900D9276
:101B40008A95E1F78091AB218093CF218091AC21E0
:101B50008093D0218091AD218093D1218091AE21BD
:101B60008093D22180911D208093D72180911E20C7
:101B70008093D82180911F208093D92180912020AB
:101B80008093DA21809121208093DB218091222093
:101B90008093DC21809123208093DD21809124207B
:101BA0008093DE218091D421813009F063C090912F
:101BB000A7219093CF219091A8219093D02190912B
:101BC000A9219093D1219091AA219093D22150C024
:101BD00088E48093B52188E1E5E2F2E2AFEDB1E27D
:101BE00001900D928A95E1F78091A7218093F721CA
:101BF0008091A8218093F8218091A9218093F921D7
:101C00008091AA218093FA2180911D208093FF2149
:101C100080911E208093002280911F2080930122BA
:101C200080912020809302228091212080930322A2
:101C3000809122208093042280912320809305228A
:101C400080912420809306228091FC21813091F4A0
:101C50009091AB219093F7219091AC219093F82132
:101C60009091AD219093F9219091AE219093FA211A
:101C70008093B5200895CF938091972181117DC0E5
:101C800047DFE4DE8091B820882309F467C08091A3
:101C90002022882321F088E2E7EBF1E203C088E20A
:101CA000EFEDF1E2ADEEB4E201900D928A95E1F72D
:101CB00068E28DEE94E20E94EA018093BC2090934A
:101CC000BD2090931525809316258AE28093EC24FD
:101CD000C0E08091EC24C81750F4EC2FF0E0E35101
:101CE000FB4D608180EC99E0ECD1CF5FF2CF8FECBF
:101CF00097E00197F1F700C000001092BE2080919C
:101D0000B520882359F11092B52080912022882394
:101D100099F01092D4218091AB218093CF218091B2
:101D2000AC218093D0218091AD218093D1218091ED
:101D3000AE218093D22112C01092FC218091A72164
:101D40008093F7218091A8218093F8218091A92187
:101D50008093F9218091AA218093FA218091BA2061
:101D60009091BB20892B49F01092BA201092BB2091
:101D70001092B92088E480930920CF9108951F9292
:101D80000F920FB60F9211242F933F934F935F93AF
:101D90006F937F938F939F93AF93BF93CF93EF9363
:101DA000FF938091C10987FF19C180EC99E091D11F
:101DB000C82F8091972181110DC16091B920E62F24
:101DC000F0E0E858FD4DC08381E0860F8093B92094
:101DD000883008F403C190910920983409F062C05A
:101DE00088E0E8E7F2E2A0E7B2E201900D928A957E
:101DF000E1F766E088E792E20E94CD012091762229
:101E0000309177228217930709F0CCC0809170221D
:101E1000823429F0833549F482E48093092081E0FB
:101E20008093B8201092B720C6C08835A9F481E00D
:101E30008093B7201092B82080912022882321F02F
:101E400088E2EFEDF1E203C088E2E7EBF1E2DF01C7
:101E50001D928A95E9F7AFC0853561F480930B2216
:101E600081E0809399218093952110929621109280
:101E7000B820A1C0813489F481E08093972191E456
:101E800090930B221092ED211092C5211092962171
:101E90001092B820809399218EC0823509F08BC0B2
:101EA000CFDD89C08A3208F499C0923409F096C017
:101EB00088E480930920615088E792E20E94EA0159
:101EC0002091B92030E028583D4DF90132974081EA
:101ED00050E0542F442731962081BA01622B9B0198
:101EE0008217930709F05EC080912022882399F021
:101EF00088E2E8E7F2E2AFEDB1E201900D928A9557
:101F0000E1F78091FB218130A1F49ADD80912022BC
:101F100081110FC023C088E2E8E7F2E2A7EBB1E24B
:101F200001900D928A95E1F78091D3218130B1F42F
:101F3000ECCF8091FC218130F1F58091F9218093E3
:101F4000AD218091FA218093AE218091F721809379
:101F5000AB218091F8218093AC2114C08091D421D1
:101F6000813049F58091D1218093A9218091D2219E
:101F70008093AA218091CF218093A7218091D021A5
:101F80008093A82183E480930B226AE087EA91E2A0
:101F90000E94CD018093B1219093B22181E0809382
:101FA000982109C08091BA209091BB20019680931E
:101FB000BA209093BB204091B92050E060E070E0DF
:101FC00088E792E20E946A1D1092B92080919721C1
:101FD000882321F06C2F80EC98E073D0FF91EF9173
:101FE000CF91BF91AF919F918F917F916F915F91B1
:101FF0004F913F912F910F900FBE0F901F9018950A
:10200000009709F45DC0811524E0920711F464E0A3
:1020100055C0803821E0920711F462E04FC081156D
:1020200021E0920711F461E049C0803823E0920773
:1020300011F461E00BC0811522E0920711F462E017
:1020400005C0811523E0920719F464E081E037C0F0
:10205000811528E0920711F461E02AC0803428E05D
:10206000920711F462E024C0803429E0920711F451
:1020700062E017C0803B28E0920711F464E018C0CA
:10208000803E28E0920711F468E012C0803C28E00E
:10209000920711F460E10CC0803C29E0920719F42A
:1020A00060E184E00CC0803824E0920719F460E419
:1020B00083E005C08036944019F460E880E047C7AB
:1020C0000895FC01218125FFFCCF608380E090E032
:1020D0000895FC01218127FFFCCF808108958F9214
:1020E0009F92AF92BF92CF92DF92EF92FF920F93A7
:1020F0001F93CF93DF93EC016A017B0148015901E3
:102100008B81B901A80182FF11C033E076956795F4
:10211000579547953A95D1F7D501C401E6E1B695B3
:10212000A79597958795EA95D1F710C094E0769595
:102130006795579547959A95D1F7D901C80127E139
:10214000B695A795979587952A95D1F74C155D0576
:102150006E057F0508F498C0C816D906EA06FB0686
:1021600008F492C08B8182FD04C0CC0CDD1CEE1CF7
:10217000FF1CC501B401A70196010E94041D19EFBF
:102180008FEF90E0A0E0B0E0281739074A075B071F
:1021900058F0880F991FAA1FBB1F1D3F0CF48160C8
:1021A0001F5F173089F749C017FF47C0D701C60125
:1021B000F3E0880F991FAA1FBB1FFA95D1F7881A61
:1021C000990AAA0ABB0A812F012E000C990B1E3F07
:1021D000DCF42DEF3FEFA901481B590B04C0880C1C
:1021E000991CAA1CBB1C4A95D2F7D701C601B6950B
:1021F000A79597958795BC01CD01680D791D8A1D1E
:102200009B1DA701960116C00396A701960104C065
:10221000220F331F441F551F8A95D2F7DA01C901D7
:10222000B695A79597958795BC01CD01680D791D49
:102230008A1D9B1D0E94041D1DC083E0810FA70104
:10224000960104C0220F331F441F551F8A95D2F7F1
:10225000DA01C901B695A79597958795BC01CD017F
:10226000680D791D8A1D9B1D0E94041D2150310996
:1022700041095109932F9F70812F8295807F892B6F
:102280008F832E8381E001C080E0DF91CF911F9189
:102290000F91FF90EF90DF90CF90BF90AF909F9005
:1022A0008F9008950F931F93CF93DF93EC018B01D1
:1022B000A7DE8C818F738C83F80195818481982BA4
:1022C0008681811188E0892B8C83F80140815181BE
:1022D0006281738100E012E12AE730E0CE01FFDE87
:1022E0009B8198609B839B8190619B83DF91CF91C1
:1022F0001F910F9108958091820080FDFCCF089579
:102300009091800024E0829FB00111246C73927040
:102310009160692B80E890E00E94A819ECCF609151
:1023200080006C73636080E890E00E94A819E3CF9E
:10233000CF93DF93CDB7DEB72C97CDBFDEBFBE0105
:102340006F5F7F4F9BE0FB0111929A95E9F795E64D
:10235000998321E030E02D833E83AE01445F5F4FDF
:102360004F83588729873A8780688A8341E080E8CD
:1023700094E00E94A609811102C08C8501C080E012
:102380002C96CDBFDEBFDF91CF91089510921B2414
:1023900020911B24263138F530E0F901EF5AFF4D2A
:1023A000808180931A2490916806F90195FF03C0FB
:1023B000E55CFF4D02C0EB5DFF4D908190931824CA
:1023C000B7DF809319249091182489130EC08FE1F0
:1023D0009EE40197F1F700C0000080911B248F5FFD
:1023E00080931B24D5CF81E0089580E00895CF939A
:1023F000DF93CDB7DEB72C97CDBFDEBF6C87BE01B4
:102400006F5F7F4F9BE0FB0111929A95E9F795E68C
:10241000998380688A8381E090E08D839E839E010A
:10242000245F3F4F2F83388789879A8740E080E871
:1024300094E00E94A6092C96CDBFDEBFDF91CF911C
:102440000895EF92FF920F931F93CF93DF93C1E50F
:10245000D0E28BE3E82E80E2F82E05E210E28991CB
:102460009091680695FF02C0F70101C0F8016081F4
:10247000BEDF8FE19EE40197F1F700C000009FEFFF
:10248000E91AF90A0F5F1F4FE0E2C736DE0739F796
:10249000DF91CF911F910F91FF90EF900895CF930F
:1024A00061E486E0A4DF8FE19EE40197F1F700C0CC
:1024B000000081E03DDFC5E686FF0CC08FE19EE4B1
:1024C0000197F1F700C0000081E032DFC150A1F7B1
:1024D00080E010C08FE19EE40197F1F700C000009A
:1024E00060E486E084DF8FE19EE40197F1F700C0AD
:1024F000000081E0CF91089549DF81110EC0A1DF76
:1025000045DF882361F02FEF80E792E02150804083
:102510009040E1F700C00000C2CF81E0089580E064
:102520000895CF93DF93CAE0D0E288819981AA8190
:10253000BB819C01AD01220F331F441F551F60E07A
:1025400072E18AE790E00E94041DDA01C901059753
:10255000A109B1098C839D83AE83BF8360E483E0CE
:10256000F6D4BE0180E894E0DF91CF910C949109FC
:10257000E0EEF7E081E081838583089581E0809338
:10258000E50786E091E09093E7072FEF31EE44E016
:10259000215030404040E1F700C00000815099F7E1
:1025A0000895AF92BF92DF92EF92FF920F931F9325
:1025B000CF93DF931F92CDB7DEB7803208F0A0C073
:1025C00000E010E0E0E0A0E0B0E0E12CF12C70E1F0
:1025D00032E0DD24D394902FF0910C08F4FFFCCF6F
:1025E00070930C0890FF03C07093650681C07093D0
:1025F0006606983028F45801B594A794A98271C052
:102600009C3060F4F8013897F595E795E983998156
:10261000911102C030936106E9810DC0903168F4D8
:10262000F8013C97F595E795E983E981E170213060
:1026300009F057C0E227E17054C09A3150F4F80114
:102640007097F595E795E983998191110EC0A82FB0
:102650000BC09432A0F4F8017A97F595E795E983D9
:102660009981911102C0A62FB0E0FD0194E0F6958A
:10267000E7959A95E1F7E170AA0FBB1F32C0983237
:1026800080F4F801B497F595E795E9839981911164
:1026900004C0213011F430936206E981E170ED2528
:1026A00020C09834C0F4F801B897F595E795E98310
:1026B0009981911101C0DA01EB2FEE1FEE27EE1F79
:1026C000AA0FBB1FEE0CFF1C9091680691FF09C07A
:1026D0006894E0F806C082E0809365068093620605
:1026E0000DC0EE2319F03093650602C030936606E4
:1026F0000F5F1F4F0C34110509F06DCFC70102C0E9
:102700008FEF9FEF0F90DF91CF911F910F91FF906F
:10271000EF90DF90BF90AF90089521E040E050E04F
:1027200040CF20E03ECF1F93CF93DF93182F60E080
:1027300083E0F3DFEC01D860AE0160E0812FF1DFD0
:102740008FE19EE40197F1F700C0000060E0812F67
:10275000E4DF9C018FE19EE40197F1F700C00000E7
:1027600081E0C217D30709F080E0DF91CF911F917C
:1027700008951F93CF93DF93182F60E083E0CDDFA0
:10278000EC01D77FAE0160E0812FCBDF8FE19EE4CB
:102790000197F1F700C0000060E0812FBEDF9C01CF
:1027A0008FE19EE40197F1F700C0000081E0C217BD
:1027B000D30709F080E0DF91CF911F9108958091B8
:1027C000D121813421F480912022882341F080910D
:1027D000F921813441F480912022882321F081E085
:1027E0008093C02002C01092C0208091D2218134F9
:1027F00021F480912022882341F08091FA218134B4
:1028000041F480912022882321F081E08093BF2031
:1028100002C01092BF2061E083E07FDF9091202210
:1028200082FF09C081E0992319F08093D5210AC065
:102830008093FD2107C0992319F01092D52102C081
:102840001092FD218FE19EE40197F1F700C0000096
:1028500061E081E062DF9091202282FF09C081E087
:10286000992319F08093D6210BC08093FE210DC0CF
:10287000992319F01092D62103C01092FE2105C0B1
:10288000992319F08091FD2102C08091D5218130DA
:1028900021F481E08093C22002C01092C2209923CB
:1028A00019F08091FE2102C08091D621813021F45F
:1028B00081E08093C12002C01092C1208FE19EE48C
:1028C0000197F1F700C000008091C020882349F0F3
:1028D0008091C220811103C083E025DF02C083E024
:1028E00048DF8091BF20882349F08091C120811169
:1028F00003C081E018DF02C081E03BDF8091AB21A3
:10290000883421F480912022811108C08091A72170
:10291000883439F480912022811103C064E083E07F
:10292000FCDE8091AC21883421F480912022811139
:1029300008C08091A821883439F480912022811127
:1029400003C064E081E0E9CE0895809120228823CD
:1029500061F18091AB218634A9F441E051E064E05B
:1029600083E0DFDE8FE19EE40197F1F700C0000015
:1029700064E083E0D2DE8130914009F068C080914C
:10298000AC212BC041E850E064E083E0CADE8FE177
:102990009EE40197F1F700C0000064E083E0BDDE33
:1029A0008138910509F053C0EACF8091A721863480
:1029B000B9F441E051E064E083E0B3DE8FE19EE4EE
:1029C0000197F1F700C0000064E083E0A6DE8130EB
:1029D000914009F03CC08091A821863431F512C0A5
:1029E00041E850E064E083E09CDE8FE19EE40197E3
:1029F000F1F700C0000064E083E08FDE81389105CC
:102A000031F5E9CF41E051E064E081E08ADE8FE119
:102A10009EE40197F1F700C0000064E081E07DDEF4
:102A200021E08130914099F413C041E850E064E026
:102A300081E077DE8FE19EE40197F1F700C00000AE
:102A400064E081E06ADE21E08138910509F020E050
:102A5000822F0895E0E4F6E088E0818384E08283B9
:102A600063E170E280EC98E01DDCE0ECF8E082814C
:102A70008F7C8061828388E5E3EBF1E2DF011D92C8
:102A80008A95E9F708951F920F920FB60F921124BD
:102A90002F933F934F935F936F937F938F939F9366
:102AA000AF93BF93EF93FF93CF93DF9300D000D00A
:102AB000CDB7DEB78091C10887FF06C180EC98E0F2
:102AC00008DB90E0A0E0B0E089839A83AB83BC830D
:102AD0008091942149815A816B817C81E82FF0E0BB
:102AE000EC53FF4D40838F5F809394219091972109
:102AF0009111A6C0883009F052C080911A20883404
:102B000009F0E2C08091C42080930B228091C520FF
:102B100080930C228091C6209091C7209827892706
:102B2000982780930D2290930E228091C820909137
:102B3000C92098278927982780930F2290931022E5
:102B40008091CA209091CB2098278927982780933D
:102B500011229093122266E084EC90E20E94CD0153
:102B600020911122309112228217930791F48FB78E
:102B7000F89490910B22933421F492E490931A20CC
:102B800003C091E09093992191E090931F228FBF11
:102B900003C081E080939A211092942149C08C3027
:102BA00009F092C080911A20823409F08DC08CE027
:102BB000E4ECF0E2ABE9B1E201900D928A95E1F725
:102BC0008091CE209091CF209827892798278093B5
:102BD000A5219093A6216AE084EC90E20E94CD01A9
:102BE0002091A5213091A62182179307C9F49FB7A0
:102BF000F8948CE0EBE9F1E2A7EAB1E201900D92E2
:102C00008A95E1F781E08093982120912022222368
:102C100019F08093D42102C08093FC219FBF03C090
:102C200081E080939A211092942188E480931A2065
:102C300080EDE4ECF0E2DF011D928A95E9F744C0F3
:102C400067E670E284EC90E24CD7892B31F58091F5
:102C5000C3208823F9F01092C3208FB7F894109204
:102C600097211092942190EDE4ECF0E2DF011D92A7
:102C70009A95E9F71092ED211092C52192E4909374
:102C80000B2291E090939921109295211092962118
:102C90008FBF03C081E08093C32069817A818B81DB
:102CA0009C8180EC99E00DDA80919421893160F06B
:102CB00081508093942189E1E5ECF0E2A4ECB0E24C
:102CC00001900D928A95E1F72496CDBFDEBFDF918A
:102CD000CF91FF91EF91BF91AF919F918F917F9194
:102CE0006F915F914F913F912F910F900FBE0F9079
:102CF0001F901895CF93DF931F92CDB7DEB78FB794
:102D00008983F89489810F90DF91CF9108951F9264
:102D10000F920FB60F9211242F933F934F935F930F
:102D20006F937F938F939F93AF93BF93EF93FF9393
:102D30004091240250912502E0916E22F0916F2281
:102D400061E080E092E00995FF91EF91BF91AF9132
:102D50009F918F917F916F915F914F913F912F91B3
:102D60000F900FBE0F901F9018950F931F93CF9346
:102D7000DF9381159240C1F5EB0161E270E082E0E2
:102D8000DDD2082F10E060E270E082E0D7D2102F91
:102D90000027082BAFDF182F80E092E00E94240666
:102DA00080910002817092E09093000200930C02E7
:102DB0002C813D81209318023093190299819093C0
:102DC00002029B81909304029A819093030298815E
:102DD000909301029E81909308028093000280E00C
:102DE00092E00E9434061FBFDF91CF911F910F9197
:102DF0000895FF920F931F93CF93DF93EC018B0104
:102E000079DFF82ECE010E942406888D998DF80175
:102E1000848395838A8181838C8183838B81828360
:102E20008981808388858683CE010E943406FFBE17
:102E3000DF91CF911F910F91FF900895FF920F9313
:102E40001F93CF93DF93EC018A0154DFF82ECE015C
:102E50000E942406F801808188A382818AA381814F
:102E600089A383818EA384818FA3858188A786818E
:102E700089A787818AA780858BA781858CA7CE01AA
:102E80000E943406FFBEDF91CF911F910F91FF90FA
:102E90000895FF920F931F93CF93DF93EC018A0164
:102EA00029DFF82ECE010E94240688A1F801808334
:102EB0008AA1828389A181838EA183838FA1848348
:102EC00088A5858389A586838AA587838BA5808726
:102ED0008CA58187CE010E943406FFBEDF91CF9181
:102EE0001F910F91FF900895CF93DF931F92CDB75D
:102EF000DEB78FB78983F89489810F90DF91CF91E6
:102F000008958FEF8093700080937100809372001A
:102F10008093730080937400809375008093760093
:102F2000E3DF909150009062909350008FBF8091AA
:102F3000510085FFFCCF65E080E490E009D2D4DF4A
:102F4000909150009E7F909350008FBF0895CF9333
:102F5000DF93C82FD62FC8DFEC2FF0E0E059FF4FEA
:102F6000D0959081D923D0838FBFDF91CF910895E1
:102F7000CF93DF93C82FD62FB7DFEC2FF0E0E059C7
:102F8000FF4F9081D92BD0838FBFDF91CF910895D0
:102F9000CF93DF931F92CDB7DEB78FB78983F894B5
:102FA00089810F90DF91CF9108951F920F920FB6F4
:102FB0000F9211242F933F934F935F936F937F93BF
:102FC0008F939F93AF93BF93EF93FF93E0911C2256
:102FD000F0911D22309759F08091870384FF02C041
:102FE00040E001C040E860E080E893E00995FF918F
:102FF000EF91BF91AF919F918F917F916F915F9171
:103000004F913F912F910F900FBE0F901F901895E9
:103010001F920F920FB60F9211242F933F934F934D
:103020005F936F937F938F939F93AF93BF93EF9330
:10303000FF93E0911C22F0911D22309759F080916E
:10304000870385FF02C040E001C040E861E080E8FE
:1030500093E00995FF91EF91BF91AF919F918F916F
:103060007F916F915F914F913F912F910F900FBE84
:103070000F901F9018951F920F920FB60F92112468
:103080002F933F934F935F936F937F938F939F9370
:10309000AF93BF93EF93FF93E0911C22F0911D2219
:1030A000309739F040918703407C60E080E893E0FE
:1030B0000995FF91EF91BF91AF919F918F917F9172
:1030C0006F915F914F913F912F910F900FBE0F9095
:1030D0001F901895EF92FF920F931F93CF93DF935A
:1030E0007C01062FEA0154DF182F80E8E81683E000
:1030F000F80641F580911B22811103C061E081E057
:1031000026DF80911B2291E0980F90931B229A81D9
:10311000909385039B81909386039981011106C04A
:103120009093820398819093800305C090938303CA
:1031300098819093810380931B22811103C061E0E9
:1031400081E016DF1FBFDF91CF911F910F91FF909C
:10315000EF9008950F931F93CF93DF938C01D62F99
:1031600017DFC82F0038134029F580911B228111E9
:1031700003C061E081E0EBDE80911B228F5F8093D2
:103180001B228091BE258F3F09F4FFCF01DF909174
:10319000BE259F5F9093BE258FBFD11106C0809141
:1031A000800381608093800305C0809181038160EA
:1031B00080938103CFBFDF91CF911F910F9108952D
:1031C0008091CF0187FDFCCF08951F93CF93DF93AC
:1031D000C0ECD1E01A858A8761E08BEC91E0B8D031
:1031E0001A87DF91CF911F910895EF92FF920F936D
:1031F0001F93CF93DF93EC018B017A01E1DFBE01D6
:10320000705FA701C801DF91CF911F910F91FF90CF
:10321000EF9057C4D5DF8091CF0181FF07C086E3CF
:103220008093CA0161E08BEC91E092C00895EF9227
:10323000FF920F931F93CF93DF938C01E62EC0EC88
:10324000D1E0FA84E7DFBCDFBBDFF801FF27F05FE6
:10325000E0821A821983088385E38A8761E08BEC18
:1032600091E076D0FA86DF91CF911F910F91FF9078
:10327000EF900895FF920F931F93CF93DF938C01EC
:103280009FDFE80100E010E1F9909ADFF801F19288
:103290008F010032F0E11F07B9F7DF91CF911F9145
:1032A0000F91FF900895CF93C82F8ADF20E2C29F2D
:1032B000C0011124E0ECF1E012829183808385E368
:1032C000CF9183CFCF92DF92EF92FF920F931F9314
:1032D000CF93DF93EC017B018A010115110529F1E0
:1032E000CE018F719927892B99F40032110580F056
:1032F000C701C0DFCE0125E0969587952A95E1F7B5
:10330000D2DFA09680E2E80EF11C00521109E5CF51
:103310006E01EFEFCE1ADE0AF70161917F01CE0157
:1033200086DF01501109E601D8CFDF91CF911F91BF
:103330000F91FF90EF90DF90CF9008954091CA01D8
:10334000E62FF72F8093CA0184914093CA01089514
:103350001BBEFC0128ED24BF60830895CF93DF934B
:10336000D0DD1092BD251092BE251092BF2510927F
:10337000C0251092C125C1E0C093C225A895D7E011
:10338000D093A2000E940C0A65DB0E940E0DD09320
:10339000A20078948AE00E9480118091680685FBE3
:1033A000882780F9809320221092242210922322D1
:1033B0001092222210922122A8958FE19EE401977B
:1033C000F1F700C0000080911E22882331F0C093E5
:1033D000460680E48093650603C080E48093660619
:1033E0009FEF20E782E0915020408040E1F700C04D
:1033F000000081E08093E6070E946C0A8823E9F0D0
:1034000096E49093AB219093AC2184E48093AD211A
:103410008093AE219093A7219093A8218093A92116
:103420008093AA216AE087EA91E20E94EA018093F0
:10343000B1219093B2210E948D0AA8959FEF21EFB0
:103440008BE2915020408040E1F700C00000D0E4C2
:10345000C1E08091242281115BC0A89590911E2229
:1034600080912322992341F1811143C0C0934606E4
:10347000D09365069FEF21EE84E09150204080407C
:10348000E1F700C00000C09345069FEF21EE84E005
:10349000915020408040E1F700C00000D0936606C4
:1034A0009FEF21EE84E0915020408040E1F700C082
:1034B0000000C09323221DC0811103C01DD880933A
:1034C0002322809123228823A1F09FEF23ED80E324
:1034D000915020408040E1F700C00000D093650685
:1034E0009FEF20E782E0915020408040E1F700C04C
:1034F00000002BDA8093222290912322992309F451
:10350000A8CF882309F4A5CFC093242237D8A1CF10
:10351000DF91CF91089580911E22811103C080E830
:10352000809365060E948F1110E0C0E0D0E080E13A
:10353000A82E95E0E92EF12C2EE8C22ED12C00E425
:10354000BB24B39480910C0884FFFCCFA0920C089C
:10355000CE01B70145D2892B29F488E00E945B0394
:103560000E94820CCE01B6013BD2892B81F42097B8
:1035700039F480911F228823B1F1B092E7070DC082
:1035800080912422811113C0B092E70710C02097C8
:1035900071F480911F22882331F180911E228111C4
:1035A00003C00093660606C00093650603C0C739D2
:1035B000D10580F4C73E83E0D807A9F480918C2020
:1035C000833018F48F5F80938C20A89510E0C0E0C2
:1035D000D0E0B8CF193060F0C83582E0D80751F795
:1035E000EED80E943B0E8FB7F89421968FBFAACFDA
:1035F000183019F0812F0E945B031F5FEDCFAEDE04
:103600008ADF5058BB27AA270ED04DC13ED130F0DB
:1036100043D120F031F49F3F11F41EF433C10EF476
:10362000E095E7FB29C1E92F4FD180F3BA17620774
:1036300073078407950718F071F49EF567C10EF4BF
:10364000E0950B2EBA2FA02D0B01B90190010C01B2
:10365000CA01A0011124FF27591B99F0593F50F4CA
:10366000503E68F11A16F040A22F232F342F442722
:10367000585FF3CF469537952795A795F04053951A
:10368000C9F77EF41F16BA0B620B730B840BBAF0EA
:103690009150A1F0FF0FBB1F661F771F881FC2F755
:1036A0000EC0BA0F621F731F841F48F48795779569
:1036B0006795B795F7959E3F08F0B3CF9395880F20
:1036C00008F09927EE0F9795879508950CD0EBC0D9
:1036D000E3D040F0DAD030F021F45F3F19F0CCC0F5
:1036E000511115C1CFC0F0D098F39923C9F35523D8
:1036F000B1F3951B550BBB27AA27621773078407E5
:1037000038F09F5F5F4F220F331F441FAA1FA9F39A
:1037100033D00E2E3AF0E0E830D091505040E6958C
:10372000001CCAF729D0FE2F27D0660F771F881FED
:10373000BB1F261737074807AB07B0E809F0BB0BDC
:10374000802DBF01FF2793585F4F2AF09E3F510500
:1037500068F092C0DCC05F3FECF3983EDCF38695E6
:1037600077956795B795F7959F5FC9F7880F911D76
:103770009695879597F90895E1E0660F771F881F62
:10378000BB1F621773078407BA0720F0621B730B15
:10379000840BBA0BEE1F88F7E095089504D0689467
:1037A000B111B5C0089598D088F09F5790F0B92F07
:1037B0009927B751A0F0D1F0660F771F881F991F86
:1037C0001AF0BA95C9F712C0B13081F09FD0B1E0BC
:1037D00008959CC0672F782F8827B85F39F0B93FCC
:1037E000CCF3869577956795B395D9F73EF4909588
:1037F0008095709561957F4F8F4F9F4F0895E89406
:1038000009C097FB3EF490958095709561957F4F28
:103810008F4F9F4F9923A9F0F92F96E9BB279395D6
:10382000F695879577956795B795F111F8CFFAF4E6
:10383000BB0F11F460FF1BC06F5F7F4F8F4F9F4F17
:1038400016C0882311F096E911C0772321F09EE875
:10385000872F762F05C0662371F096E8862F70E0DB
:1038600060E02AF09A95660F771F881FDAF7880FB5
:103870009695879597F9089597F99F6780E870E086
:1038800060E008959FEF80EC089500240A941616D6
:10389000170618060906089500240A94121613063E
:1038A000140605060895092E0394000C11F48823CC
:1038B00052F0BB0F40F4BF2B11F460FF04C06F5FE8
:1038C0007F4F8F4F9F4F089557FD9058440F551FBE
:1038D00059F05F3F71F04795880F97FB991F61F092
:1038E0009F3F79F087950895121613061406551F09
:1038F000F2CF4695F1DF08C0161617061806991F75
:10390000F1CF86957105610508940895E894BB2769
:1039100066277727CB0197F908950BD0C4CFB5DF81
:1039200028F0BADF18F0952309F0A6CFABCF112409
:10393000EECFCADFA0F3959FD1F3950F50E0551F4E
:10394000629FF001729FBB27F00DB11D639FAA27F4
:10395000F00DB11DAA1F649F6627B00DA11D661F43
:10396000829F2227B00DA11D621F739FB00DA11D64
:10397000621F839FA00D611D221F749F3327A00D1E
:10398000611D231F849F600D211D822F762F6A2FBA
:1039900011249F5750408AF0E1F088234AF0EE0F3F
:1039A000FF1FBB1F661F771F881F91505040A9F74C
:1039B0009E3F510570F060CFAACF5F3FECF3983E79
:1039C000DCF3869577956795B795F795E7959F5FB3
:1039D000C1F7FE2B880F911D9695879597F908954D
:1039E000AA1BBB1B51E107C0AA1FBB1FA617B70725
:1039F00010F0A61BB70B881F991F5A95A9F7809541
:103A00009095BC01CD010895A1E21A2EAA1BBB1B03
:103A1000FD010DC0AA1FBB1FEE1FFF1FA217B3079A
:103A2000E407F50720F0A21BB30BE40BF50B661FB0
:103A3000771F881F991F1A9469F760957095809574
:103A400090959B01AC01BD01CF010895052E97FB18
:103A500016F400940FD057FD05D0D6DF07FC02D036
:103A600046F408C050954095309521953F4F4F4FF3
:103A70005F4F089590958095709561957F4F8F4F1A
:103A80009F4F0895EE0FFF1F0590F491E02D0994CC
:103A900009D0A59F900DB49F900DA49F800D911DFE
:103AA00011240895A29FB001B39FC001A39F700D80
:103AB000811D1124911DB29F700D811D1124911D36
:103AC0000895FB01DC0102C001900D92415050406D
:103AD000D8F70895DC0101C06D9341505040E0F7E4
:103AE0000895FB01DC018D91019080190110D9F33B
:083AF000990B0895F894FFCF33
:103AF80000208025000003200048A0860100000067
:103B0800000065802500000320004802004430358D
:103B1800363838462005B402024840000000006DDF
:103B2800020404FF800207FF80020401B402022895
:103B380040000000006D020404FF800207FF8002BD
:103B480004010203040506101112131415161718A0
:103B5800191A1B1C1D1E1F53544F505F424F4F54C0
:103B68004C4F414445525F474F5F4E4F524D414C79
:023B780000004B
:00000001FF
