:104000000C945F200C9471200C9471200C947120FE
:104010000C9471200C9471200C9471200C947120DC
:104020000C9471200C9471200C9471200C947120CC
:104030000C9471200C9471200C9471200C947120BC
:104040000C9471200C9471200C9471200C947120AC
:104050000C9471200C9471200C9471200C9471209C
:104060000C9471200C9471200C9471200C9471208C
:104070000C9471200C9471200C9471200C9471207C
:104080000C9471200C9471200C9471200C9471206C
:104090000C9471200C9471200C9471200C9471205C
:1040A0000C9471200C9471200C94712058426A0178
:1040B0005D2564256625A225BA257B25B525112415
:1040C0001FBECFEFCDBFD7E2DEBF20E2A0E0B0E25F
:1040D00001C01D92A138B207E1F70E9447230C945A
:1040E00005260C9400203BB78BBFFB0186913BBF9C
:1040F00008953BB78BBFFB01879196913BBF089515
:1041000042E097C041E095C08093C001882780932A
:10411000C1018093C20147E07CD0CB010895809318
:10412000C40148E076C08091D00108953BB748E1D2
:104130000C941E213BB74AE10C941E213BB7882703
:1041400099278BBF40E20C941E213BB78BBFCB015C
:1041500042E20C941E213BB70B0143E20C941E215A
:10416000EE27FF2719BEDC0143E24093CA0150E469
:104170002DE90D901D9020933400E89532965A95C4
:10418000C1F7112408953BB76BBFFA0119BEDC01DA
:1041900040E04093CA0150E8879197918D939D9399
:1041A0005A95D1F73BBF08953BB78BBFCB0144E293
:1041B0000C941E213BB78BBFCB0145E20C941E2112
:1041C0003BB746E20C941E213BB78BBFCB014AE2C2
:1041D0000C941E213BB78BBFCB014CE20C941E21EB
:1041E0003BB78BBFCB014DE20C941E2148E311C0BD
:1041F00049E30FC028ED2093340021E02093CC0147
:1042000008952091CF0127FDFCCF22272093CA01DA
:1042100008954093CA0128ED31E020933400309393
:10422000CB016091C4017091C5018091C6019927AD
:104230000895FC014093CA0184910895FC014093C4
:10424000CA012DE920933400E89511243BBF08955D
:104250008627682F62956827062E669566956025E5
:10426000062E669560256770082E892F669507943F
:104270006795902D86270694679590258627089543
:10428000909100209230F0F78091C10887FFFACF1B
:1042900081E0809300208091C008089590910020D3
:1042A000923058F48093C0088091C10886FFFCCFFB
:1042B0008091C10880648093C10808950E944021C4
:1042C0008F930E9440219F91882F0895AF92BF92B3
:1042D000CF92DF92EF92FF920F931F93CF93DF93D2
:1042E0001F92CDB7DEB77C01262F5A0141E0C42EC4
:1042F00040E2D42E00E010E00E151F0528F42983BB
:104300000E944021298101C08FEFF60181936F0146
:104310000F5F1F4F0038110579F72534B1F4F5010F
:1043200060817181A70181E090E20E94D925F501A9
:1043300000811181228133810E0D1F1D211D311D30
:10434000008311832283338334C0263411F0253552
:1043500071F5F50180819181A281B381F694E79492
:10436000AC01BD014E0D5F1D611D711D4083518368
:1043700062837383263461F4BC01CD01660F771F1D
:10438000881F991F21E041E050E20E940B2511C0D7
:10439000253579F481E090E20E94B0200E949620B9
:1043A0000E9401210E949A200E94012102C08FE3F5
:1043B00001C08DE00F90DF91CF911F910F91FF9081
:1043C000EF90DF90CF90BF90AF9008959F92AF9203
:1043D000BF92CF92DF92EF92FF920F931F93CF93F2
:1043E000DF937C01962EEA0185E4681316C068818C
:1043F0007981A70181E090E20E94CD258881998191
:10440000AA81BB818E0D9F1DA11DB11D888399833B
:10441000AA83BB83C1E0D0E25BC086E4681731F0B9
:1044200085E5681719F080E568135CC0888199817B
:10443000AA81BB81880F991FAA1FBB1F88839983FC
:10444000AA83BB836701A12CB12C86E498120AC011
:1044500085010F5F1F4F688179818A819B810E944E
:10446000732014C085E5981208C085010F5F1F4FA7
:10447000888199810E94822009C080E598120BC032
:1044800085010F5F1F4F88810E948020F501EF5F3B
:10449000FF4D808358010E940121088119812A81E2
:1044A0003B810F5F1F4F2F4F3F4F088319832A8394
:1044B0003B8381E0C81AD108C114D10431F6369586
:1044C000279517950795088319832A833B83A2CFE5
:1044D000CE01815090428E159F0524F489910E944F
:1044E0004E21F6CFDF91CF911F910F91FF90EF906A
:1044F000DF90CF90BF90AF909F9008958F929F9242
:10450000AF92BF92CF92DF92EF92FF920F931F93E1
:10451000CF93DF936B017C0149015A0100E810E061
:10452000C0E0D0E081149104A104B10401F100388D
:10453000110569F4B701A60181E090E20E94C32051
:1045400080E8C80ED11CE11CF11C00E010E0F8016D
:10455000EF5FFF4D6081CE010E942821EC010F5FCB
:104560001F4F81E0881A9108A108B108DBCFCE0166
:10457000DF91CF911F910F91FF90EF90DF90CF903F
:10458000BF90AF909F908F900895CF92DF92EF925F
:10459000FF92CF93DF9340E85FE360E070E081E05B
:1045A00090E20E94C32080917B20883509F068C08A
:1045B00080917C20823409F063C080917D20893411
:1045C00009F05EC080917E20863409F059C0E090E9
:1045D0007F20F12CFE2CEE2480918020E82A2AEF07
:1045E0003FE140E050E060E070E280E090E00E9457
:1045F0007E22C6E0D0E06FEF0E942821219720970D
:10460000D1F7E816F90641F0DF91CF91FF90EF90D6
:10461000DF90CF900C947B25C12CD12C7601CFEF6D
:10462000B701A601505E6F4F7F4F81E090E20E947C
:10463000C32080E8C8168FE1D806E104F10499F0A0
:1046400021E041E050E2C701B6010E940B2580E85D
:10465000C80ED11CE11CF11CC11480E2D806E10493
:10466000F104F1F6D1CFC0937B20C0937C20C0939E
:104670007D20C0937E20C0937F20C0938020E0CF18
:10468000DF91CF91FF90EF90DF90CF900895CF9280
:10469000DF92EF92FF920F931F93CF93DF93CDB7EB
:1046A000DEB72597CDBFDEBF19821A821B821C821E
:1046B000109200200E94412588E180935606309197
:1046C000002046E080E395E7A0E0B0E00097A10578
:1046D000B10521F00197A109B10905C0415080E35E
:1046E00095E7A0E0B0E02091C10827FF03C031E0CA
:1046F00021E001C020E0A895222331F03093002072
:1047000021E000E010E016C04111E0CF309300201E
:10471000F8CF803509F43FC08C3409F43CC08534AF
:1047200009F0E3C08DE00E944E2120E02D830E941D
:1047300001212D81222309F458C10E944021813694
:1047400011F489E54EC1813429F40E945E21A0E074
:10475000B0E077C0883439F40E944021A82F0E942D
:104760005E21BB276EC08536C1F4C12CD12C7601E9
:10477000C701B6010E94DA200E94012120E8C20E82
:10478000D11CE11CF11CC11480E4D806E104F10441
:1047900079F70E9432258DE024C1823641F489E503
:1047A0000E944E2180E00E944E2180E81AC182348E
:1047B00069F40E945E218C010E944021AE014F5F8E
:1047C0005F4F682FC8010E9466210BC1873669F4CC
:1047D0000E945E218C010E944021AE014F5F5F4F1D
:1047E000682FC8010E94E621FEC0823581F46981EC
:1047F0007A818B819C81660F771F881F991F0E9489
:104800007920F82E892F0E944E218F2D45C08336A6
:1048100029F40E944021082F10E0BDCF8334B1F469
:104820000E944021182B89819A81B801880F991F15
:104830000E94AB2089819A81AB81BC810196A11D28
:10484000B11D89839A83AB83BC83A5CF8D36A1F438
:1048500089819A81AB81BC81811520E29207A105F3
:10486000B10508F0BDC0BC01CD01660F771F881FE0
:10487000991F0E94D4208FCF843441F40E9440219C
:10488000682F89819A810E94E325D4CF843691F4E0
:1048900089819A810E94D1250E944E2189819A8125
:1048A000AB81BC810196A11DB11D89839A83AB8325
:1048B000BC8399C08C3629F40E9440210E948F202D
:1048C0006ACF823719F40E9493208BC0863411F48A
:1048D00080E008C08E3411F481E004C0813509F015
:1048E00018CF82E00E9484207CC0803711F483E5D9
:1048F00078C0843729F48BE70E944E2180E071C094
:1049000098E8980F923010F0843519F40E944021F5
:1049100042CF8335A1F488E50E944E2182E40E94B3
:104920004E218FE60E944E218FE60E944E2184E7A1
:104930000E944E218BE20E944E218BE252C08635AE
:1049400029F481E30E944E2187E34BC0833741F471
:1049500085E40E944E2184E90E944E218EE141C0EF
:104960008836E1F50E944021863421F168F48134D3
:1049700031F18234D9F420E030E140E050E060E0F1
:1049800070E480E090E022C0813659F0843771F401
:1049900020E030E240E050E060E070E280E090E053
:1049A00015C020E030E240E050E00DC08FE30E94EF
:1049B0004E21C3CE20E030E540E050E004C020E0CE
:1049C00030E440E050E060E070E0CB010E947E22E5
:1049D000F82E892F0E944E218F2D03C08B3119F0A4
:1049E0008FE30E944E2121E0A1CE0E94C5220E94A9
:1049F0005025109256060C94000080E090E0259619
:104A0000CDBFDEBFDF91CF911F910F91FF90EF904F
:104A1000DF90CF900895CF92DF92EF92FF92CF93E5
:104A2000DF931F92CDB7DEB76B017C01CA012983EA
:104A30000E94B0202981C701B601222319F00E94EB
:104A4000DA2002C00E94D4200F90DF91CF91FF9016
:104A5000EF90DF90CF900C9401218091CF0187FDE2
:104A6000FCCF08950E942D2580E3E0ECF1E08287E1
:104A7000EBECF1E021E030E088ED90E084BF2083B2
:104A80000895E0E4F6E080E881838685806186878A
:104A9000E0ECF8E089E1868317828CE18383089556
:104AA000E0ECF8E0138216821782E0E4F6E08685F7
:104AB0008F7E868780E88283089527E031E0FC01BD
:104AC0002083318380E0089582E00895CF93CFB7AB
:104AD000613020E472078105910550F4F8940E943A
:104AE000A5200E9401211092CA01CFBF80E001C021
:104AF00083E0CF910895CF92DF92EF92FF92CF9310
:104B0000CFB7F894C12C80E2D82EE12CF12CC7014C
:104B1000B6010E94A5200E94012180E8C80ED11C88
:104B2000E11CF11CC11480E4D806E104F10479F71A
:104B30001092CA01CFBF80E0CF91FF90EF90DF903D
:104B4000CF900895CF93CFB7613030E473078105DC
:104B5000910540F4F8940E940B251092CA01CFBF32
:104B600080E001C083E0CF910895705E8F4F9F4F2A
:104B70000C94A225CF93CFB7F8940E94B0200E9446
:104B800096200E9401210E949A200E9401211092E9
:104B9000CA01CFBF80E0CF9108956050704F0C9450
:104BA000FC2503D0808199270895FC01E050F04F47
:104BB0000895DC01CB0103C02D910E94E4254150F2
:104BC0005040D0F70895262FAF93BF93E0ECF1E06B
:104BD000378537FDFDCF808391831282DC01A050A1
:104BE000B04F2C9325E3228728ED31E024BF338793
:104BF0000196BF91AF910895FB01DC0102C00190C5
:0E4C00000D9241505040D8F70895F894FFCF20
:0400000300004000B9
:00000001FF
