S02B0000646973742F52656C656173652F70726F64756374696F6E2F413939303830622E582E70726F6475639D
S11300006CC0000087C0000085C0000083C00000F1
S113001081C000007FC000007DC000007BC00000E4
S113002079C0000077C0000075C00000A2C60000BF
S113003032C4000059C4000080C40000A7C40000FA
S1130040CEC40000F5C400001CC5000043C5000078
S11300506AC5000091C500005DC000000C94CF1A71
S11300600C945F1B57C0000055C0000053C0000033
S11300700C946D090C9494094DC00000ADC00000AF
S1130080DEC000000FC10000BFC1000043C000007B
S11300909CC50000C3C50000EAC5000011C60000ED
S11300A00C94CC160C94FB1635C00000A50AB80AB3
S11300B0D40AEE0A010B140B270B480B5B0B6E0BD7
S11300C08F0BB00BD40B460CBF0DDD0DFB0D190EC1
S11300D0370E550E730E9D0ECB0E11241FBECFEF9F
S11300E0CDBFD7E2DEBF12E2A0E0B0E2E4E1FFE37D
S11300F002C005900D92AE35B107D9F726E2AEE500
S1130100B2E201C01D92A135B207E1F70E94E31CDF
S11301100C94881F75CFCF93DF931F92CDB7DEB7B2
S11301208FB78983F89489810F90DF91CF910895D7
S11301308FEF80937000809371008093720080939E
S11301407300809374008093750080937600E3DFDE
S1130150909150009062909350008FBF8091510015
S113016085FFFCCF65E080E490E079D2D4DF909104
S113017050009E7F909350008FBF0895CF93DF93DC
S1130180C82FD62FC8DFEC2FF0E0E059FF4FD095F1
S11301909081D923D0838FBFDF91CF910895CF93DE
S11301A0DF93C82FD62FB7DFEC2FF0E0E059FF4FD5
S11301B09081D92BD0838FBFDF91CF910895CF93B6
S11301C0DF931F92CDB7DEB78FB78983F894898107
S11301D00F90DF91CF9108951F920F920FB60F9257
S11301E011242F933F934F935F936F937F938F9338
S11301F09F93AF93BF93EF93FF93E0915F22F091AE
S11302006022309759F08091870384FF02C040E058
S113021001C040E860E080E893E00995FF91EF9128
S1130220BF91AF919F918F917F916F915F914F910A
S11302303F912F910F900FBE0F901F9018951F9212
S11302400F920FB60F9211242F933F934F935F9306
S11302506F937F938F939F93AF93BF93EF93FF938A
S1130260E0915F22F0916022309759F080918703EA
S113027085FF02C040E001C040E861E080E893E00F
S11302800995FF91EF91BF91AF919F918F917F91CC
S11302906F915F914F913F912F910F900FBE0F90EF
S11302A01F9018951F920F920FB60F9211242F933F
S11302B03F934F935F936F937F938F939F93AF93EA
S11302C0BF93EF93FF93E0915F22F0916022309708
S11302D039F040918703407C60E080E893E0099521
S11302E0FF91EF91BF91AF919F918F917F916F910A
S11302F05F914F913F912F910F900FBE0F901F90E0
S11303001895EF92FF920F931F93CF93DF937C0185
S1130310062FEA0154DF182F80E8E81683E0F80678
S113032041F580915E22811103C061E081E026DF06
S113033080915E2291E0980F90935E229A8190932F
S113034085039B81909386039981011106C0909344
S1130350820398819093800305C0909383039881CE
S11303609093810380935E22811103C061E081E058
S113037016DF1FBFDF91CF911F910F91FF90EF9078
S113038008950F931F93CF93DF938C01D62F17DF1C
S1130390C82F0038134029F580915E22811103C0D3
S11303A061E081E0EBDE80915E228F5F80935E22CC
S11303B08091B6238F3F09F4FFCF01DF9091B623DC
S11303C09F5F9093B6238FBFD11106C080918003A5
S11303D081608093800305C0809181038160809354
S11303E08103CFBFDF91CF911F910F910895CF93D8
S11303F0DF931F92CDB7DEB78FB78983F8948981D5
S11304000F90DF91CF9108951F920F920FB60F9224
S113041011242F933F934F935F936F937F938F9305
S11304209F93AF93BF93EF93FF9340912402509116
S11304302502E091BB23F091BC2361E080E092E0CF
S11304400995FF91EF91BF91AF919F918F917F910A
S11304506F915F914F913F912F910F900FBE0F902D
S11304601F9018950F931F93CF93DF93811592409C
S1130470B1F5EB0161E270E082E0F6D1082F10E003
S113048060E270E082E0F0D1102F0027082BAFDF8C
S1130490182F80E092E0AAD080910002817092E04F
S11304A09093000200930C022C813D81209318024A
S11304B0309319029981909302029B8190930402D4
S11304C09A81909303029881909301029E81909364
S11304D008028093000280E092E097D01FBFDF9172
S11304E0CF911F910F910895FF920F931F93CF9374
S11304F0DF93EC018B017BDFF82ECE0177D0888D62
S1130500998DF801848395838A8181838C81838387
S11305108B8182838981808388858683CE0175D08F
S1130520FFBEDF91CF911F910F91FF900895FF922D
S11305300F931F93CF93DF93EC018A0158DFF82EBA
S1130540CE0154D0F801808188A382818AA381815D
S113055089A383818EA384818FA3858188A78681C3
S113056089A787818AA780858BA781858CA7CE01DF
S11305704CD0FFBEDF91CF911F910F91FF90089552
S1130580FF920F931F93CF93DF93EC018A012FDF28
S1130590F82ECE012BD088A1F80180838AA1828312
S11305A089A181838EA183838FA1848388A5858378
S11305B089A586838AA587838BA580878CA5818757
S11305C0CE0123D0FFBEDF91CF911F910F91FF90F9
S11305D00895CF93DF931F92CDB7DEB78FB789838A
S11305E0F89489810F90DF91CF91089581159240FD
S11305F059F48091612291E0980F909361228111C6
S113060003C062E081E0BACD08958115924051F4AF
S113061080916122815080936122811103C062E044
S113062081E0BDCD08951F93CF93DF93EC01D1DF1B
S1130630182FCE01DBDF8881816088831FBF809102
S1130640B6238F3F09F4FFCFC4DF9091B6239F5F99
S11306509093B6238FBFDF91CF911F9108951BBE56
S1130660FC0128ED24BF60830895E0EDF0E0808173
S1130670806880838091622290916322A091642299
S1130680B09165228483492F5A2F6B2F7727458396
S1130690AD016627772746838B2F9927AA27BB2787
S11306A08783109262221092632210926422109225
S11306B065220895CF92DF92EF92FF920F931F93DA
S11306C08091D10080FDFCCF8091D00085FF32C0A5
S11306D09091D4004091D5008091D6000091D7002C
S11306E010E020E030E0302F222711270027142BC0
S11306F0092B282B40E280E090E0DC01880F991F51
S1130700AA1FBB1F6801790151E0C522DD24EE2434
S1130710FF248C0D9D1DAE1DBF1D36952795179585
S11307200795415059F7BC01CD01609570958095AE
S1130730909508C06091D4008091D50070E0782B2A
S113074080E090E01F910F91FF90EF90DF90CF90A9
S11307500895E0EDF0E09081907F90839081892B63
S1130760808308958093D3000895609362227093E8
S1130770632280936422909365220895CF93C82FB7
S113078074DFC13029F48091D00080628093D0005E
S113079081E0CF91DECFCF92DF92EF92FF92E1ED35
S11307A0F0E080818160808385DF6B017C0180E0E3
S11307B0D0DFC701B601FF90EF90DF90CF9008958E
S11307C00F931F93CF93DF93EC018B01842FD6DF1C
S11307D00C0F1D1FC017D10721F089918093D300FE
S11307E0F9CFDF91CF911F910F91D5CF8091CF0198
S11307F087FDFCCF0895CF93DF93EC01F7DFD05F43
S11308008881DF91CF910895F1DF8091CF0181FF3D
S113081007C086E38093CA0161E08BEC91E01FCFAF
S11308200895EF92FF920F931F93CF93DF938C0160
S1130830E62EC0ECD1E0FA84E7DFD8DFD7DFF80199
S1130840FF27F05FE0821A821983088385E38A8791
S113085061E08BEC91E003DFFA86DF91CF911F9189
S11308600F91FF90EF9008954091CA01E62FF72F62
S11308708093CA0184914093CA010895CF93DF9372
S11308801F92CDB7DEB78FB78983F89489810F9013
S1130890DF91CF9108951F920F920FB60F921124FA
S11308A02F933F934F935F936F937F938F939F9374
S11308B0AF93BF93EF93FF93E0918022F091812255
S11308C0309709F00995FF91EF91BF91AF919F91F6
S11308D08F917F916F915F914F913F912F910F90E5
S11308E00FBE0F901F9018951F920F920FB60F9284
S11308F011242F933F934F935F936F937F938F9321
S11309009F93AF93BF93EF93FF93E0917E22F09177
S11309107F22309709F00995FF91EF91BF91AF9134
S11309209F918F917F916F915F914F913F912F9103
S11309300F900FBE0F901F9018951F920F920FB635
S11309400F9211242F933F934F935F936F937F9351
S11309508F939F93AF93BF93EF93FF93E0917C2288
S1130960F0917D22309709F00995FF91EF91BF91A5
S1130970AF919F918F917F916F915F914F913F9133
S11309802F910F900FBE0F901F9018951F920F92EA
S11309900FB60F9211242F933F934F935F936F934E
S11309A07F938F939F93AF93BF93EF93FF93E091C4
S11309B07A22F0917B22309709F00995FF91EF910B
S11309C0BF91AF919F918F917F916F915F914F9163
S11309D03F912F910F900FBE0F901F9018951F926B
S11309E00F920FB60F9211242F933F934F935F935F
S11309F06F937F938F939F93AF93BF93EF93FF93E3
S1130A00E0917822F0917922309709F00995FF91CD
S1130A10EF91BF91AF919F918F917F916F915F9172
S1130A204F913F912F910F900FBE0F901F901895EB
S1130A301F920F920FB60F9211242F933F934F934F
S1130A405F936F937F938F939F93AF93BF93EF9332
S1130A50FF93E0917622F0917722309709F009957F
S1130A60FF91EF91BF91AF919F918F917F916F9182
S1130A705F914F913F912F910F900FBE0F901F9058
S1130A8018951F920F920FB60F9211242F933F9334
S1130A904F935F936F937F938F939F93AF93BF9382
S1130AA0EF93FF93E0917422F0917522309709F04F
S1130AB00995FF91EF91BF91AF919F918F917F9194
S1130AC06F915F914F913F912F910F900FBE0F90B7
S1130AD01F9018951F920F920FB60F9211242F9307
S1130AE03F934F935F936F937F938F939F93AF93B2
S1130AF0BF93EF93FF93E0917222F09173223097AA
S1130B0009F00995FF91EF91BF91AF919F918F915A
S1130B107F916F915F914F913F912F910F900FBEF5
S1130B200F901F9018951F920F920FB60F921124D9
S1130B302F933F934F935F936F937F938F939F93E1
S1130B40AF93BF93EF93FF93E0917022F0917122E2
S1130B50309709F00995FF91EF91BF91AF919F9163
S1130B608F917F916F915F914F913F912F910F9052
S1130B700FBE0F901F9018951F920F920FB60F92F1
S1130B8011242F933F934F935F936F937F938F938E
S1130B909F93AF93BF93EF93FF93E0916E22F091F5
S1130BA06F22309709F00995FF91EF91BF91AF91B2
S1130BB09F918F917F916F915F914F913F912F9171
S1130BC00F900FBE0F901F9018951F920F920FB6A3
S1130BD00F9211242F933F934F935F936F937F93BF
S1130BE08F939F93AF93BF93EF93FF93E0916C2206
S1130BF0F0916D22309709F00995FF91EF91BF9123
S1130C00AF919F918F917F916F915F914F913F91A0
S1130C102F910F900FBE0F901F9018951F920F9257
S1130C200FB60F9211242F933F934F935F936F93BB
S1130C307F938F939F93AF93BF93EF93FF93E09131
S1130C406A22F0916B22309709F00995FF91EF9198
S1130C50BF91AF919F918F917F916F915F914F91D0
S1130C603F912F910F900FBE0F901F9018951F92D8
S1130C700F920FB60F9211242F933F934F935F93CC
S1130C806F937F938F939F93AF93BF93EF93FF9350
S1130C90E0916822F0916922309709F00995FF915B
S1130CA0EF91BF91AF919F918F917F916F915F91E0
S1130CB04F913F912F910F900FBE0F901F90189559
S1130CC01F920F920FB60F9211242F933F934F93BD
S1130CD05F936F937F938F939F93AF93BF93EF93A0
S1130CE0FF93E0916622F0916722309709F009950D
S1130CF0FF91EF91BF91AF919F918F917F916F91F0
S1130D005F914F913F912F910F900FBE0F901F90C5
S1130D1018951F93CF93DF93EC01B0DD182FC11505
S1130D2088E0D80711F461E005C0C03488E0D80732
S1130D3031F462E083E022DA64E083E008C0C03486
S1130D40D94091F462E084E019DA64E084E016DAD0
S1130D508091B6238F3F09F4FFCF90DD9091B623A5
S1130D609F5F9093B6238FBF1FBFDF91CF911F91D9
S1130D7008951F920F920FB60F9211242F933F9351
S1130D804F935F936F937F938F939F93AF93BF938F
S1130D90CF93DF93EF93FF93E0918222F09183222C
S1130DA0848183FF06C08860848383E0838386EF25
S1130DB07FC0982F947121F083E083838FEF78C0F4
S1130DC086FF41C0A0918422B09185228091862221
S1130DD09091872214962D913C9115978217930731
S1130DE064F49C012F5F3F4F209386223093872227
S1130DF0A80FB91F11968C9122C0809188229091DE
S1130E00892218962D913C91199782179307C8F45B
S1130E1020918A22222321F08681816086834AC020
S1130E2016962D913C911797AC014F5F5F4F4093FD
S1130E30882250938922D901A80FB91F8C918783E6
S1130E4039C083E02CC087FF32C0A0918422B091C6
S1130E508522809188229091892218962D913C9127
S1130E60199782179307F8F416966D917C9117974A
S1130E709C012F5F3F4F2093882230938922478122
S1130E80EB01C80FD91F488318968D919C9119972F
S1130E902817390718F482E083830CC087E0838322
S1130EA010928C2207C083E0838389EF01C08BEF0B
S1130EB080938C22FF91EF91DF91CF91BF91AF91FD
S1130EC09F918F917F916F915F914F913F912F915E
S1130ED00F900FBE0F901F901895FC01DB01149624
S1130EE08C91858388EB818381E08483E2E8F2E25C
S1130EF011861286E0EAF0E082818260828378942F
S1130F0080E00895CF93DF931F92CDB7DEB7DC0165
S1130F10FB01892B09F444C0309709F441C0828550
S1130F2090918B22992319F081113CC0FFCF8FB788
S1130F308983F894898191E090938B2290E890932F
S1130F408C228FBFA0938222B09383226093842249
S1130F507093852210928622109287221092882202
S1130F601092892240938A229081990F248135819D
S1130F70232B11F44111916016969C9380918C223D
S1130F808038E1F3E0918222F0918322848183709E
S1130F90813009F0F7CF80918C2210928B2203C00C
S1130FA088EF01C086EF0F90DF91CF9108950097ED
S1130FB009F45DC0811524E0920711F464E055C082
S1130FC0803821E0920711F462E04FC0811521E0DE
S1130FD0920711F461E049C0803823E0920711F4CC
S1130FE061E00BC0811522E0920711F462E005C0B4
S1130FF0811523E0920719F464E081E037C081157C
S113100028E0920711F461E02AC0803428E09207B6
S113101011F462E024C0803429E0920711F462E004
S113102017C0803B28E0920711F464E018C0803EAA
S113103028E0920711F468E012C0803C28E092078F
S113104011F460E10CC0803C29E0920719F460E1DE
S113105084E00CC0803824E0920719F460E483E053
S113106005C08036944019F460E880E087C808958C
S1131070FC01218125FFFCCF608380E090E008958E
S1131080FC01218127FFFCCF808108958F929F92DC
S1131090AF92BF92CF92DF92EF92FF920F931F9382
S11310A0CF93DF93EC016A017B01480159018B81E5
S11310B0B901A80182FF11C033E076956795579571
S11310C047953A95D1F7D501C401E6E1B695A795C0
S11310D097958795EA95D1F710C094E07695679532
S11310E0579547959A95D1F7D901C80127E1B69547
S11310F0A795979587952A95D1F74C155D056E05AB
S11311007F0508F498C0C816D906EA06FB0608F459
S113111092C08B8182FD04C0CC0CDD1CEE1CFF1C34
S1131120C501B401A70196010E94EF1E19EF8FEFCC
S113113090E0A0E0B0E0281739074A075B0758F0B1
S1131140880F991FAA1FBB1F1D3F0CF481601F5FEE
S1131150173089F749C017FF47C0D701C601F3E02C
S1131160880F991FAA1FBB1FFA95D1F7881A990AED
S1131170AA0ABB0A812F012E000C990B1E3FDCF436
S11311802DEF3FEFA901481B590B04C0880C991C93
S1131190AA1CBB1C4A95D2F7D701C601B695A795E0
S11311A097958795BC01CD01680D791D8A1D9B1DFE
S11311B0A701960116C00396A701960104C0220F49
S11311C0331F441F551F8A95D2F7DA01C901B6951A
S11311D0A79597958795BC01CD01680D791D8A1D4A
S11311E09B1D0E94EF1E1DC083E0810FA701960185
S11311F004C0220F331F441F551F8A95D2F7DA010A
S1131200C901B695A79597958795BC01CD01680D41
S1131210791D8A1D9B1D0E94EF1E21503109410931
S11312205109932F9F70812F8295807F892B8F8303
S11312302E8381E001C080E0DF91CF911F910F9157
S1131240FF90EF90DF90CF90BF90AF909F908F90E2
S113125008950F931F93CF93DF93EC018B01A7DEC7
S11312608C818F738C83F80195818481982B86817E
S1131270811188E0892B8C83F8014081518162813E
S1131280738100E012E12AE730E0CE01FFDE9B81AA
S113129098609B839B8190619B83DF91CF911F9189
S11312A00F9108958091820080FDFCCF0895909164
S11312B0800024E0829FB00111246C7392709160CD
S11312C0692B80E890E0CBD9EDCF609180006C73FE
S11312D0636080E890E0C3D9E5CF1F920F920FB608
S11312E00F9211242F933F934F935F936F937F93A8
S11312F08F939F93AF93BF93EF93FF93E0919022CB
S1131300F09191220995FF91EF91BF91AF919F9137
S11313108F917F916F915F914F913F912F910F909A
S11313200FBE0F901F9018951F920F920FB60F9239
S113133011242F933F934F935F936F937F938F93D6
S11313409F93AF93BF93EF93FF93E0918E22F0911D
S11313508F220995FF91EF91BF91AF919F918F914A
S11313607F916F915F914F913F912F910F900FBE9D
S11313700F901F901895CF93DF9300D000D0CDB776
S1131380DEB794E0AE014F5F5F4FFA01892F1192EF
S11313908A95E9F781E08B8399839091AC2391112D
S11313A088E08A8360E080E893E00E94810160E045
S11313B080E893E00E94C10180EC8093B60081E054
S11313C08093840382E08093E1072496CDBFDEBF3F
S11313D0DF91CF91089580919222811104C081E020
S11313E080939222089587EC90E00197F1F700C072
S11313F0000080919222882391F380E00895109256
S113140092220895CF92DF92EF92FF920F931F934F
S1131410CF93DF938C01C62FDEDF282F8823C1F002
S11314206FEF7FEF80E090E0A0D9D0E040E0BE0114
S1131430C801C6D96B017C011092922264E0C801F4
S11314408C0F9D1F59D721E08C159D0509F020E0D4
S1131450822FDF91CF911F910F91FF90EF90DF903A
S1131460CF9008950F931F93CF938C01B4DF8823FB
S1131470B1F06FEF7FEF80E090E077D980E07ED924
S1131480C0E28C2F90E08017910720F4B4D96AD978
S1131490CF5FF7CF80D910929222CB0102C080E0B7
S11314A090E0CF911F910F9108950F931F93CF93C5
S11314B0DF93CDB7DEB72A97CDBFDEBF062F4AE054
S11314C0BE016F5F7F4F0E94551F10E0E1E0F0E026
S11314D0EC0FFD1FE10FF11D60816623B1F080EC7C
S11314E098E0C6DD002379F0111104C089818D32A2
S11314F031F409C0113049F489818D3221F46EE24E
S113150080EC98E0B5DD1F5FE1CF2A96CDBFDEBF4A
S1131510DF91CF911F910F91089560E011C7FF9261
S11315200F931F93CF93DF93D82FC0916806C07297
S11315300E944C1A8D2F90E08E30910508F0B4C1B2
S1131540FC01EA5AFF4F0C942D1FF090A522009144
S1131550A6221091C822D091C922C11106C09F2D84
S1131560802FF12E0D2F192FD82F8EE190E212C06B
S1131570F090A3220091A4221091C622D091C722F8
S1131580C11106C09F2D802FF12E0D2F192FD82F9A
S113159089E390E2C2DF61E08F2D902F86DF8DE238
S11315A090E2BBDF61E0B5C0F090A1220091A222DD
S11315B01091C422D091C522C11106C09F2D802F45
S11315C0F12E0D2F192FD82F8091AC23811103C038
S11315D088E490E2DFCF87E590E2DCCFF0909F22B1
S11315E00091A0221091C222D091C322C11106C041
S11315F09F2D802FF12E0D2F192FD82F86E690E2E4
S1131600C9CFF0909322009194221091B622D091E8
S1131610B722C11106C09F2D802FF12E0D2F192F37
S1131620D82F85E790E2B6CFF0909B2200919C22C0
S11316301091BE22D091BF22C11106C09F2D802FD0
S1131640F12E0D2F192FD82F84E890E212C0F090BC
S11316509D2200919E221091C022D091C122C111DD
S113166006C09F2D802FF12E0D2F192FD82F81EA20
S113167090E253DF60E08F2D902F17DF83E990E233
S11316804CDF60E0812F9D2F10DF8CE990E20BC1CD
S1131690F0909722009198221091BA22D091BB2207
S11316A0C11106C09F2D802FF12E0D2F192FD82F79
S11316B080EB90E225C0F090002000910120109171
S11316C00920D0910A20C11106C09F2D802FF12E30
S11316D00D2F192FD82F8FEB90E212C0F090952286
S11316E0009196221091B822D091B922C11106C05E
S11316F09F2D802FF12E0D2F192FD82F8EEC90E2D5
S11317000CDF60E08F2D902FD0DE8DE290E205DFBC
S113171060E0812F9D2FC9DE85E390E2C4C0F09084
S1131720992200919A221091BC22D091BD22C1111C
S113173006C09F2D802FF12E0D2F192FD82F8DED40
S113174090E2EBDE60E08F2D902FAFDE8CEE90E226
S1131750E4DE60E0812F9D2FA8DE84EF90E2A3C039
S113176088EF90E2DADECC2391F08091AF228823D7
S113177019F086E091E202C08DE091E2CEDE86E1CE
S113178091E2CBDEC11106C08091AF2205C08091E9
S1131790AE22EDCF8091AE22882319F086E091E24B
S11317A05CC08DE091E259C08DE191E2B6DECC23BC
S11317B019F18091AA239091AB238138910519F4F2
S11317C083E391E202C088E391E2A7DE8DE391E234
S11317D0A4DE8091A8239091A9238138910519F45E
S11317E083E391E202C088E391E297DE86E191E22D
S11317F094DEC11136C015C08091B4229091B522F7
S11318008138910519F483E391E202C088E391E2FF
S113181084DE8DE391E281DE8091B4229091B52241
S1131820DCCF8091AA239091AB238138910519F4E0
S113183083E391E202C088E391E26FDE8DE391E2FB
S11318406CDE8091AA239091AB238138910519F421
S113185083E391E202C088E391E25FDE8AEC91E2E5
S113186022C08091B4229091B5228138910519F457
S113187083E391E202C088E391E24FDE8DE391E2DB
S11318804CDE8091B4229091B522DFCF84E491E2C2
S113189044DECC2319F080E591E202C085E591E2B3
S11318A03CDE82E691E239DEDF91CF911F910F9108
S11318B0FF900C94481AE0E6F4E080818F738083F3
S11318C08081806880830895E0E6F4E080818F73EE
S11318D08083808180830895CF93DF9300D0CDB738
S11318E0DEB760E880E00E94BE008091BA238F3F9B
S11318F009F4FFCF8FB78A83F8949A818091BA2331
S11319008F5F8093BA239FBF10928D2280916004D1
S11319108F7C809360048091600480936004809144
S11319206004887F80936004809160048360809366
S11319306004809161048C7F8093610480916104D0
S113194082608093610480916104837F8093610449
S113195080916104886080936104809161048F7C2C
S1131960809361048091610480628093610480911A
S113197061048F7380936104809161048068809313
S11319806104A2DF10926204809162048093620475
S113199080916304807F80936304809163048C60EE
S11319A080936304809163048F70809363048091B7
S11319B063048063809363048FB78983F894998167
S11319C080915406877080935406809154068160F8
S11319D0809354069FBF80E1809346060F900F903A
S11319E0DF91CF910895CF93DF9300D0CDB7DEB7C9
S11319F0803120F01092C423805105C06A3039F43C
S1131A0091E09093C423880F880F880F26C090E03C
S1131A10643048F422E02093C42343E0880F991FE4
S1131A204A95E1F719C0683050F423E02093C423A9
S1131A3033E0880F991F3A95E1F764500DC022E016
S1131A402093C42323E0880F991F2A95E1F7693076
S1131A5011F067E001C064E0862B8093C52344EC59
S1131A6053E261E080E092E00E9497028FB78A839C
S1131A70F8949A81809100028460809300029FBF51
S1131A8080910602982F917080FFFACF90930602FE
S1131A908FB78983F894298180912402909125023B
S1131AA02FBF0F900F90DF91CF9108950F931F9345
S1131AB0CF93DF9300D0CDB7DEB78091BD23897E6D
S1131AC080618093BD238091BE238F788160809351
S1131AD0BE236DEB73E280E092E00E94320210922A
S1131AE0C4231092C52344EC53E261E080E092E009
S1131AF00E9497028FB78A83F8949A81809100029A
S1131B008460809300029FBF80910602982F917099
S1131B1080FFFACF909306028FB78983F894898166
S1131B2000912402109125028FBF8091BD23897EEC
S1131B3080618093BD238091BE238E7880618093E1
S1131B40BE236DEB73E280E092E00E943202C80192
S1131B500F900F90DF91CF911F910F910895CF9324
S1131B60DF9300D000D0CDB7DEB790E08930910587
S1131B7008F049C1FC01EC59FF4F0C942D1F68E09B
S1131B8085E031DF092E000CAA0BBB0B89839A83F5
S1131B90AB83BC8329813A814B815C81A1E7B2E0AC
S1131BA00E94331F20E038E040E050E00E94111F03
S1131BB02093A5223093A62226C168E081E013DF9A
S1131BC0092E000CAA0BBB0B89839A83AB83BC83BD
S1131BD029813A814B815C81A2E4BFE00E94331FDA
S1131BE020E038E040E050E00E94111F2093A3223F
S1131BF03093A42208C168E083E0F5DE092E000CCE
S1131C00AA0BBB0B89839A83AB83BC8329813A815A
S1131C104B815C81A5E3BCE00E94331F20E038E0E7
S1131C2040E050E00E94111F2093A1223093A22291
S1131C30EAC068E084E0D7DE092E000CAA0BBB0BD7
S1131C4089839A83AB83BC8329813A814B815C81EC
S1131C50A5E3BCE00E94331F20E038E040E050E000
S1131C600E94111F20939F223093A022CCC068E0D1
S1131C7088E0B9DE092E000CAA0BBB0B89839A837A
S1131C80AB83BC8329813A814B815C81ADE0B3E0B5
S1131C900E94331F20E038E040E050E00E94111F12
S1131CA020939D2230939E22AEC068E086E09BDEA6
S1131CB0092E000CAA0BBB0B89839A83AB83BC83CC
S1131CC029813A814B815C81ADE0B3E00E94331FEE
S1131CD020E038E040E050E00E94111F20939B2256
S1131CE030939C2290C0E2DE092E000CAA0BBB0BA1
S1131CF089839A83AB83BC8369817A818B819C813C
S1131D000E94E01D2091D6233091D7234091D823FF
S1131D105091D9230E946C1E2091CE233091CF2361
S1131D204091D0235091D1230E94E61C0E94B21D01
S1131D306093992270939A2266C068E087E053DE2C
S1131D40092E000CAA0BBB0B89839A83AB83BC833B
S1131D5029813A814B815C81ACE9B0E00E94331F58
S1131D6020E038E040E050E00E94111F29833A83CC
S1131D704B835C8389819A81AB81BC81880F991FD5
S1131D802091A5223091A622821B930B809393224B
S1131D909093942238C068E082E025DE092E000C7E
S1131DA0AA0BBB0B89839A83AB83BC8329813A81B9
S1131DB04B815C81ABE1B6E00E94331F20E038E048
S1131DC040E050E00E94111FC901209397223093F4
S1131DD098226091A7226330B0F060910020709146
S1131DE001202617370720F4209300203093012088
S1131DF060919522709196226817790720F42093B8
S1131E009522309396222496CDBFDEBFDF91CF91E9
S1131E1008952F923F924F925F926F927F928F928A
S1131E209F92AF92BF92CF92DF92EF92FF920F9365
S1131E301F93CF93DF936DEB73E280E092E00E94F7
S1131E4074028091BD239091BE239F7890619093FA
S1131E50BE23817E80618093BD232224239420921B
S1131E60BF2384E08093C0236DEB73E280E092E0B3
S1131E700E94320244EC53E261E080E092E00E946E
S1131E80C0022092C4231092C5238091C623807F70
S1131E908093C62344EC53E261E080E092E00E9428
S1131EA0970280E092E00E9413036FE170E082E009
S1131EB00E943404B82E6EE170E082E00E94340483
S1131EC0D82E6FE270E082E00E943404082F10E004
S1131ED06EE270E082E00E943404102F0027082B89
S1131EE06DE270E082E00E943404C82FD0E06CE21E
S1131EF070E082E00E943404382E6B2D70E080E0A4
S1131F0090E00E94DE1D4B015C01B80180E090E08E
S1131F100E94DE1D2B013C016D2D70E080E090E0FD
S1131F200E94DE1D9B01AC01C501B4010E94E51CA9
S1131F306B017C01DC2FCC27C329BE0180E090E03B
S1131F400E94DE1D9B01AC01C301B2010E94E51C8D
S1131F509B01AC01C701B6010E944A1D9B01AC0163
S1131F606093D6237093D7238093D8239093D92357
S1131F70C301B2010E946C1E9B01AC01C501B401F6
S1131F800E94E51C6093CE237093CF238093D023CB
S1131F909093D12382E0E3DD8091A1229091A2224B
S1131FA08C3D954018F01092AC2302C02092AC23D3
S1131FB0DF91CF911F910F91FF90EF90DF90CF9021
S1131FC0BF90AF909F908F907F906F905F904F9055
S1131FD03F902F90089580E098E00E948906E0E009
S1131FE0F8E08181887F81838DE790E086A397A3C1
S1131FF08081807F856080830895CF93DF9300D0B4
S1132000CDB7DEB780E880930206E0E6F6E090E420
S1132010918395838183868382E082838FB78A83C9
S1132020F8949A81A1E7B6E08C9187708C938C9197
S113203088618C939FBF80E18183A0E4B6E098E03F
S113204011969C93119711968C9380E282838FB79B
S11320508983F8949981E5E7F6E08081877080832D
S11320608081886180839FBFF4D7D3DE84D9B3DFB6
S1132070C9D732DC0F900F90DF91CF9108950F9361
S11320801F93CF93DF938C0101960E94FB03C82F0B
S1132090D0E0DC2FCC27C80102960E94FB03C82B9A
S11320A0C801E0D921E0C817D90709F020E0822F40
S11320B0DF91CF911F910F910895CF93DF93C0E2E9
S11320C0D0E0CE010E94FB038F3F31F42196C5324C
S11320D0D105B9F781E001C080E0DF91CF91089587
S11320E0CF93DF93C0E2D0E0CE010E94FB038330A4
S11320F018F0803F29F008C02596C938D105A1F70A
S1132100CE01DF91CF91BBCF80E0DF91CF910895D5
S11321100F931F93CF93DF93082FE2DF182F8111C2
S113212002C010E00EC0C0E2D0E0CE010E94FB036A
S1132130801739F0803FA9F32596C938D105A9F74E
S1132140F0CF812FDF91CF911F910F910895EF92DE
S1132150FF920F931F93CF93DF937C01C62FCC0F75
S1132160CC0F6C0F605EC62FD0E0CE010E94FB0343
S1132170F7018083CE0101960E94FB03082F10E033
S1132180102F0027CE0102960E94FB03082BF701B3
S113219001831283CE0103960E94FB03082F10E0F3
S11321A0102F0027CE0104960E94FB03082BF70191
S11321B003831483DF91CF911F910F91FF90EF90D0
S11321C008954F925F926F927F92AF92BF92DF9287
S11321D0EF92FF920F931F93CF93DF937C01762EA0
S11321E0642EF9D8D82E8823D1F16FEF7FEF80E0E9
S11321F090E00E94B50380E00E94BE0310E0C0E2BC
S1132200D0E0CE0101965C011715B0F4662039F0D8
S113221062E0C701810F911D6FD0082F03C0F70141
S113222001917F01602FCE010E941104E501802FEE
S11322300E94B2031E5FE5CF0E94CB032B013C0139
S1132240DED860EFCE010E941104652D7727C50109
S11322500E941104642DCE0102960E9411048D2D5A
S1132260DF91CF911F910F91FF90EF90DF90BF907E
S1132270AF907F906F905F904F900895CF93DF93CE
S1132280C0E2D0E0C838D10531F060E0CE010E9450
S113229011042196F7CFDF91CF9108951F93CF9327
S11322A0DF9310E0C0E2D0E0CE010E94FB03823055
S11322B039F4CE0104960E94FB0380931D2011E0A3
S11322C02596C938D10581F7111103C08FE7809392
S11322D01D2081E0DF91CF911F91089590ED980F1B
S11322E09A3030F09FEB980F963020F4875308957E
S11322F0892F089580E00895EF92FF920F931F9322
S1132300CF93DF938C017C01E60EF11C80E090E01A
S11323100E151F0571F0EC0184E0CC0FDD1F8A95CA
S1132320E1F7F80181918F01D9DF9E01282BC901C2
S1132330EFCFDF91CF911F910F91FF90EF90089510
S11323401F93CF93DF93162FEC018991882321F0FB
S1132350612F0E944F1AF9CFDF91CF911F910895F9
S1132360FF920F931F93CF93DF93F42EEC018C0114
S1132370060F111DC017D10729F06F2D89910E94F6
S11323804F1AF8CFDF91CF911F910F91FF900895CD
S1132390CF93DF93C82FD62FE82FE295EF70F0E0AC
S11323A0E052FE4D80810E944F1ACF70EC2FF0E076
S11323B0E052FE4D6D2F8081DF91CF910C944F1A26
S11323C0BF92CF92DF92EF92FF920F931F93CF931E
S11323D0DF93CDB7DEB7C55DD109CDBFDEBF6DDEFE
S11323E0811102C07DDE02C081E090E0282F2170BF
S11323F0B22E80FD12C060E082E70E944F1A8091E5
S1132400680685FD02C088E401C082E460E00E94A1
S11324104F1A60E085E691E293DFCE0101966C01EC
S11324208C01F12CE12C6E2DCE018F529F4F8FDE4B
S1132430E394CF52DF4F8881C15DD040803F29F1C2
S1132440F8018083CE52DF4F9881C25DD040CD52D7
S1132450DF4F2881C35DD04021839283CC52DF4F6C
S11324609881C45DD040CB52DF4F2881C55DD040F8
S113247023839483F5E0FF0E823038F40B5F1F4F03
S113248028E2E212D0CF88ECF82E0E94EB098823D0
S113249009F455C06FEF7FEF80E090E00E94B50330
S11324A080E00E94BE0361E082E7F9D7809168066C
S11324B085FD02C088E401C082E461E0F0D760E0F9
S11324C080E2EDD761E08F2D880F62DF60E080E26B
S11324D0E6D710E005E01F1581F061E0F601819177
S11324E06F0156DF812F602F0E94CF1E943019F4A4
S11324F060E080E2D4D71F5FEECFB11011C061E07D
S1132500CD52DF4F8881C35DD04042DF61E0CE52BF
S1132510DF4F8881C25DD0403BDF60E080E2BFD7FF
S11325200E94CB03162F072F0E94FF0960E0802F23
S11325302FDF60E0812F2CDF60E08AE0B0D7CB5240
S1132540DF4FCDBFDEBFDF91CF911F910F91FF9081
S1132550EF90DF90CF90BF90089580917E258B30CF
S113256021F580918025803501F580918125843481
S1132570E1F4809182258134C1F4809183258435EE
S1132580A1F480918425853481F4809189258A3051
S113259061F466E08FE795E20E94020A882329F03D
S11325A088ED84BF81E080937900089580917E2531
S11325B08C30B1F580918025813491F5809181250D
S11325C0833471F580918225843551F5809183257A
S11325D08F3431F580918425823511F580918525DC
S11325E08935F1F480918A258A30D1F467E08FE748
S11325F095E20E94020A882399F040DE80911C2013
S1132600882371F0BDD160917E258FE795E2C2D118
S113261060E08BE791E294DE60E080EA91E290CEA4
S1132620089580917E258D3051F5809180258934DF
S113263031F580918125813411F58091822587348B
S1132640F1F4809183258E34D1F4809184258F34E4
S1132650B1F480918525833591F480918625853464
S113266071F480918B258A3051F468E08FE795E20C
S11326700E94020A882319F081E08093A723089519
S113268080917E258B30A1F5809180258E3481F553
S113269080918125813461F580918225823441F5D0
S11326A0809183258C3421F580918425853401F52E
S11326B0809189258A30E1F466E08FE795E20E94F3
S11326C0020A8823A9F01092A72380911C20882352
S11326D041F081E08093A22360917E258FE795E20B
S11326E059C181E08093A52360E08DEC91E228CE6E
S11326F00895CF93C09168068091A423811104C0EA
S11327008091A323882341F080917E25873021F492
S1132710809185258A3029F060E08DED91E2CF919A
S11327200FCE62E08FE795E20E94020A8823A1F3AC
S113273047DE80911C20882399F0C07221D18091BA
S11327408025823419F4C1110BC004C0883441F4CB
S1132750CC2331F060917E258FE795E2CF911AC1A9
S1132760CF9108951F93CF93DF931091680662E091
S113277081E895E2C1DDEC019091A423911104C09C
S11327809091A323992399F0893C88F420917E2584
S113279030E0CE01992709962817390741F4E091D2
S11327A07E25F0E0E258FA4D80818A3039F060E00D
S11327B08DED91E2DF91CF911F91C2CD6C2F6C5FB3
S11327C08FE795E20E94020A882389F3812F8072A1
S11327D090918025923479F4882321F141E06C2F83
S11327E083E895E2EEDC882311F360E087E757D6AF
S11327F061E082E410C09834A9F4811113C041E06F
S11328006C2F83E895E2DDDC882389F260E087E7BA
S113281046D661E088E443D660E08AE0DF91CF9158
S11328201F913DC680911C20882349F0A9D0609156
S11328307E258FE795E2DF91CF911F91ABC0DF91A9
S1132840CF911F910895CF938091A423882341F0C1
S113285080917E25863021F4809184258A3029F068
S113286060E08DED91E2CF916BCD61E08FE795E271
S11328700E94020A8823A1F3C0E08C2F0E948F0AD1
S1132880CF5FCE30D1F7CF91089580911C20811174
S113289007C060917E2540E08FE795E261DD70C05E
S11328A0089580917E25813021F460E08AE0F7D597
S11328B067C0089580917E25882309F440C08091E3
S11328C07F25823509F174F48434E1F02CF48A30E4
S11328D019F18F33F9F021C0853491F08634E9F48D
S11328E065DE1BC0873591F034F4833589F0853576
S11328F0A1F433DE12C0823769F0873759F00DC076
S1132900BFDE0BC08EDE09C0F4DE07C02BDF05C0BE
S11329109ADF03C0BADF01C0C4DF80EDEFE7F5E260
S1132920DF011D928A95E9F710927E258091A123FB
S1132930882329F06091A1238EEA94E22BC00895A4
S1132940E0E6F6E088E0818384E0828362E070E27E
S113295080EC99E00E942909E0ECF9E082818F7C07
S1132960806282830895CF93C82F692F80EC99E009
S11329700E9438086C2F80EC99E0CF910C943808B1
S113298080EDEEEAF4E2DF011D928A95E9F71092F8
S1132990A1230895FF920F931F93CF93DF93209168
S11329A0CB22211117C0162FF92E082F81E0809316
S11329B0CB2261E080EC99E00E94380865E080EC6D
S11329C099E00E943808C02FDF2DCE01810F911DA0
S11329D08C0110C0E7ECF0E03197F1F700C0000083
S11329E02091CB222223F9F2DF91CF911F910F91F5
S11329F0FF900895C017D10731F0699180EC99E0F8
S1132A000E943808F7CF64E080EC99E00E9438080F
S1132A108FEC97E00197F1F700C000001092CB22F1
S1132A20DF91CF911F910F91FF90AACF8091CB227C
S1132A3081116EC081E08093CB2261E080EC99E04B
S1132A400E94380862E080EC99E00E943808809186
S1132A50A5229091A62287DF8091A3229091A4229F
S1132A6082DF8091A1229091A2227DDF80919F221A
S1132A709091A02278DF80919D2290919E2273DF15
S1132A8080919B2290919C226EDF8091992290915B
S1132A909A2269DF809197229091982264DF809135
S1132AA00020909101205FDF8091952290919622E1
S1132AB05ADF809193229091942255DF8091AA232A
S1132AC09091AB2350DF8091A8239091A9234BDFF1
S1132AD06091CE2280EC99E00E9438086091CD226A
S1132AE080EC99E00E9438086091AF2280EC99E074
S1132AF00E94380864E080EC99E00E9438088FEC6A
S1132B0097E00197F1F700C000001092CB220895DE
S1132B1087EC90E00197F1F700C000008091CB2290
S1132B20882309F487CF08958091DE239091DF23D1
S1132B309827892798278093C8229093C922809147
S1132B40E0239091E1239827892798278093C62230
S1132B509093C7228091E2239091E32398278927B9
S1132B6098278093C4229093C5228091E423909166
S1132B70E5239827892798278093C2229093C3221C
S1132B808091E6239091E7239827892798278093BB
S1132B90C0229093C1228091E8239091E923982741
S1132BA0892798278093BE229093BF228091EA239D
S1132BB09091EB239827892798278093BC229093A0
S1132BC0BD228091EC239091ED23982789279827A3
S1132BD08093BA229093BB228091EE239091EF23AD
S1132BE09827892798278093092090930A20809119
S1132BF0F0239091F1239827892798278093B8226E
S1132C009093B9228091F2239091F32398278927F6
S1132C1098278093B6229093B7228091F4239091C1
S1132C20F5239827892798278093B4229093B52277
S1132C308091F6239091F7239827892798278093EA
S1132C40B2229093B32281E09091F823911101C0B4
S1132C5080E08093B12281E09091F923911101C029
S1132C6080E08093B02281E09091FA23911101C019
S1132C7080E08093AE2280EDEEEDF3E2DF011D9261
S1132C808A95E9F708952091B3233091B4234091B4
S1132C90AC225091AD22D901A41BB50B1B9710F0A7
S1132CA01092AB222093AC223093AD224091AB2200
S1132CB041110AC0613071058105910509F06BC0AD
S1132CC081E08093AB2208954130B9F462307105FC
S1132CD08105910531F482E08093AB221092AA22FF
S1132CE00895653071058105910509F03FC082E0C2
S1132CF08093AB224093AA220895DC01CB0120915A
S1132D00AA22222301F184309105A105B105C1F461
S1132D1080917E2581112AC050E0425051096EED08
S1132D2073E28FE795E20E944C1F9FB7F89480915D
S1132D30AB22825080937E2510921C209FBF16C028
S1132D40423D08F10CC04F31F1F40497A105B105DF
S1132D5081F4EADE8091CA228F5F8093CA2280EDDB
S1132D60EEEDF3E2DF011D928A95E9F71092AB22B2
S1132D7008958091A8229091A92201968093A82277
S1132D809093A922ECCFE42FF0E0E452FC4D808331
S1132D904F5F4093AB2208951F920F920FB60F928C
S1132DA011242F933F934F935F936F937F938F934C
S1132DB09F93AF93BF93EF93FF938091C10987FFD4
S1132DC009C080EC99E00E944008682F70E080E020
S1132DD090E059DFFF91EF91BF91AF919F918F9157
S1132DE07F916F915F914F913F912F910F900FBE03
S1132DF00F901F9018951F920F920FB60F921124E7
S1132E000F900FBE0F901F901895CF93DF93CDB7FF
S1132E10DEB72C97CDBFDEBFBE016F5F7F4F9BE057
S1132E20FB0111929A95E9F795E6998321E030E048
S1132E302D833E83AE01445F5F4F4F8358872987BC
S1132E403A8780688A8341E080E894E00E948207A0
S1132E50811102C08C8501C080E02C96CDBFDEBFFD
S1132E60DF91CF910895DF92EF92FF920F931F931A
S1132E70CF93DF93CCE1D2E286E0E82E82E2F82E13
S1132E8000EF11E289919091680695FF02C0F70165
S1132E9001C0F801D080B9DFD81211C08FE19EE4DF
S1132EA00197F1F700C000009FEFE91AF90A0F5FDC
S1132EB01F4FE2E2C233DE0729F781E001C080E060
S1132EC0DF91CF911F910F91FF90EF90DF900895C4
S1132ED0CF93DF93CDB7DEB72C97CDBFDEBF60684D
S1132EE06C87BE016F5F7F4F9BE0FB0111929A9547
S1132EF0E9F795E699838A8381E090E08D839E8348
S1132F009E01245F3F4F2F83388789879A8740E04B
S1132F1080E894E00E9482072C96CDBFDEBFDF914B
S1132F20CF910895EF92FF920F931F93CF93DF9366
S1132F30CCE1D2E286E0E82E82E2F82E00EF11E244
S1132F4089919091680695FF02C0F70101C0F801CC
S1132F506081BEDF8FE19EE40197F1F700C00000BD
S1132F609FEFE91AF90A0F5F1F4FE2E2C233DE074F
S1132F7039F7DF91CF911F910F91FF90EF90089552
S1132F80CF9361E486E0A4DF8FE19EE40197F1F73B
S1132F9000C0000081E039DFC5E686FF0CC08FE188
S1132FA09EE40197F1F700C0000081E02EDFC150DC
S1132FB0A1F780E010C08FE19EE40197F1F700C013
S1132FC0000060E486E084DF8FE19EE40197F1F77E
S1132FD000C0000081E0CF91089545DF81110EC04B
S1132FE0A1DF41DF882361F02FEF80E792E02150D9
S1132FF080409040E1F700C00000C2CF81E0089516
S113300080E00895CF93DF93CBE0D0E2888199816B
S1133010AA81BB819C01AD01220F331F441F551FA0
S113302060E072E18AE790E0DAD6DA01C901059737
S1133030A109B1098C839D83AE83BF8360E483E0DF
S11330400E94BE00BE0180E894E0DF91CF910C9411
S11330506D07E0EEF7E081E081838583089581E0E8
S11330608093E50786E091E09093E7072FEF31EE38
S113307044E0215030404040E1F700C0000081505E
S113308099F70895AF92BF92DF92EF92FF920F9358
S11330901F93CF93DF931F92CDB7DEB7803208F032
S11330A0A0C000E010E0E0E0A0E0B0E0E12CF12CF2
S11330B070E132E0DD24D394902FF0910C08F4FFFA
S11330C0FCCF70930C0890FF03C07093650681C019
S11330D070936606983028F45801B594A794A98291
S11330E071C09C3060F4F8013897F595E795E98351
S11330F09981911102C030936106E9810DC090312C
S113310068F4F8013C97F595E795E983E981E17066
S1133110213009F057C0E227E17054C09A3150F4CD
S1133120F8017097F595E795E983998191110EC09F
S1133130A82F0BC09432A0F4F8017A97F595E7957F
S1133140E9839981911102C0A62FB0E0FD0194E0BA
S1133150F695E7959A95E1F7E170AA0FBB1F32C087
S1133160983280F4F801B497F595E795E98399814D
S1133170911104C0213011F430936206E981E170A9
S1133180ED2520C09834C0F4F801B897F595E7957B
S1133190E9839981911101C0DA01EB2FEE1FEE272B
S11331A0EE1FAA0FBB1FEE0CFF1C9091680691FF47
S11331B009C06894E0F806C082E0809365068093B5
S11331C062060DC0EE2319F03093650602C03093F9
S11331D066060F5F1F4F0C34110509F06DCFC70150
S11331E002C08FEF9FEF0F90DF91CF911F910F914E
S11331F0FF90EF90DF90BF90AF90089521E040E002
S113320050E040CF20E03ECFCF93C82F41E051E0C3
S113321064E0F8DF8FE19EE40197F1F700C000005D
S113322064E08C2FEBDF9C018FE19EE40197F1F7C2
S113323000C0000081E02130314009F080E0CF91EE
S113324008951F93CF93DF93182F60E081E0D6DFBA
S1133250EC01D860AE0160E0812FD4DF8FE19EE401
S11332600197F1F700C0000060E0812FC7DF9C01E7
S11332708FE19EE40197F1F700C0000081E0C217DE
S1133280D30709F080E0DF91CF911F9108951F9338
S1133290CF93DF93182F60E081E0B0DFEC01D77F9C
S11332A0AE0160E0812FAEDF8FE19EE40197F1F77C
S11332B000C0000060E0812FA1DF9C018FE19EE44B
S11332C00197F1F700C0000081E0C217D30709F0AD
S11332D080E0DF91CF911F91089580911D208F7D13
S11332E0813421F481E08093AF2202C01092AF2296
S11332F061E081E083DF9091CC2282FF07C09111CD
S11333001092CC2281E08093CE2207C0911103C099
S113331081E08093CC221092CE228FE19EE401972B
S1133320F1F700C0000061E083E068DF82FF04C0C1
S113333081E08093CD2202C01092CD228FE19EE4E1
S11333400197F1F700C000009091B1228091AE2264
S1133350911109C0882379F08091CE22882359F0F5
S113336081E06FDF08C0882331F08091CE22811183
S113337002C081E08CDF9091B0228091AE22911145
S113338008C0882371F08091CD22882351F083E016
S113339058CF882331F08091CD22811102C083E07F
S11333A076CF0895FF920F931F93CF93DF93CDB7FA
S11333B0DEB72597CDBFDEBFF82E00E0602FCE012B
S11333C001960E94A7100F5F8981803F11F481E06C
S11333D03FC08F1139C0F1100BC08A819B810497C3
S11333E0B9F48C819D818093AA239093AB2310C060
S11333F081E0F81611F080E02BC08A819B8104974C
S113340049F48C819D818093A8239093A92302C0C1
S113341011E001C013E04C815D816A81812FF2DEED
S11334208FE19EE40197F1F700C000006A81812FCB
S1133430E5DE2C813D8182179307E9F68FE19EE456
S11334400197F1F700C00000063009F0B7CFBFCFF5
S11334502596CDBFDEBFDF91CF911F910F91FF90D5
S1133460089580E00E948810882319F080E09ADF94
S113347002C081E0C9DE882349F081E00E948810FF
S1133480882311F081E08ECF83E0BECE80E00895E2
S113349081E080931B20089510921B200895CF9300
S11334A0DF93C82FD62F682F80EC98E00E9438084D
S11334B080911B208823C1F08091A123803DA0F43A
S11334C0E091A123F0E0E255FB4DC0838091A1235C
S11334D08F5F8093A123DD2339F0C03229F08C2F34
S11334E0DF91CF910C94B203DF91CF910895CF93E4
S11334F0C09168060E945B0C88E08093410680912D
S1133500A623882319F081E08093A7238091A22326
S11335108823F9F01092A72381E08093A4231092CA
S1133520A32360E082E392E20E94A01160E0C5FF61
S113353003C08AE492E202C080E592E20E94A011F4
S113354080EDEEEAF4E2DF011D928A95E9F710922C
S1133550A1238091A523882339F01092A7231092E8
S1133560A42381E08093A3231092A6231092A22384
S11335701092A523CF910895E0E4F6E088E08283D9
S113358084E0828364E170E280EC98E00E9429097F
S1133590E0ECF8E082818F7C8061828308951F9241
S11335A00F920FB60F9211242F933F934F935F9373
S11335B06F937F938F939F93AF93BF93EF93FF93F7
S11335C0CF93DF9300D000D0CDB7DEB78091C10890
S11335D087FF5FC080EC98E00E94400890E0A0E084
S11335E0B0E089839A83AB83BC838091A023803D20
S11335F0A8F449815A816B817C814032510561056F
S1133600710561F049815A816B817C81E82FF0E07A
S1133610E053FD4D40838F5F8093A02389819A817D
S1133620AB81BC810A97A105B10521F08091A0234B
S1133630803D79F580917E25811115C04091A023AC
S11336404423B1F050E060ED72E28FE795E224D4B8
S11336508FB7F8949091A02390937E2591E0909356
S11336601C208FBF05C08091CF228F5F8093CF2213
S11336708091CF22863020F01092CF2210927E25A6
S113368080EDE0EDF2E2DF011D928A95E9F71092F8
S1133690A0232496CDBFDEBFDF91CF91FF91EF91A0
S11336A0BF91AF919F918F917F916F915F914F9156
S11336B03F912F910F900FBE0F901F9018951F925E
S11336C00F920FB60F9211240F900FBE0F901F9000
S11336D01895CF93DF930E9498001092B52310920F
S11336E0B6231092B7231092B8231092B923C1E0E5
S11336F0C093BA23D7E0D093A2000E94FD0F3CDF11
S11337001FD9D093A200789489E00E94570910929F
S1133710B2231092B1231092B0231092AD238FE103
S11337209EE40197F1F700C0000080E480936606F0
S11337309FEF20E782E0915020408040E1F700C0F5
S11337400000C093E6070E9470108093AF230E948C
S11337505D10882361F08091AF23811108C00E941D
S11337603E118093AE230E9470108093AF230E9479
S11337705D10882339F08091AF23811103C0DF915C
S1133780CF916DCCC0E4D1E08091B22381113FC0D0
S11337908091B123811103C020DC8093B1238091F7
S11337A0B1238823A1F09FEF23ED80E391502040C3
S11337B08040E1F700C00000C09365069FEF20E75A
S11337C082E0915020408040E1F700C000008091E9
S11337D0B023811103C045DE8093B0238091AD23D3
S11337E0811104C00E944E118093AD238091B023B7
S11337F0882351F28091B123882331F28091AD2343
S1133800882309F4C1CFD093B22329DCBDCFDF9143
S1133810CF91089580E8809365060E94650910E0C1
S1133820E12CF12CC0E0D0E080E1982E95E0C92E87
S1133830D12C2EE8A22EB12C30E8832E40E4742E35
S113384001E080910C0884FFFCCF90920C08CE011B
S1133850B601B1D2892B21F488E00E94AF0D2AD899
S1133860CE01B501A8D2892BA1F4209759F48091F7
S1133870A723811104C08091A4238823F1F000932D
S1133880E7071BC08091B223811105C00093E707AD
S113389002C0209791F0C739D105D8F0193030F41F
S11338A0183019F0812F0E94AF0D1F5FC83582E0D8
S11338B0D80779F412DDBAD87BC08091A623811190
S11338C07CC08091A223811178C08091A5238111AD
S11338D074C0C73E83E0D80709F06AC08091A7236B
S11338E0811106C083E0E816F10409F052C00AC051
S11338F01092A723C0E08C2F0E948F0ACF5FCE3096
S1133900D1F7F0CF4FB7F8948091CA2290E020917C
S11339104F26309150264FBF8217930781F510929E
S1133920C8221092C9221092C6221092C722109265
S1133930C4221092C5221092C2221092C322109265
S1133940C0221092C1221092BE221092BF22109265
S1133950BA221092BB221092092010920A201092CF
S1133960B8221092B9221092B6221092B722109265
S1133970BC221092BD221092B1221092B0228091EA
S1133980CA2290E080934F2690935026E12CF12C8C
S113399003C08FEFE81AF80A8091A722833018F445
S11339A08F5F8093A722A89510E0C0E0D0E049CFB4
S11339B08FB7F89421968FBF44CF80926606709299
S11339C0660695DD86CF85DE25DF5058BB27AA27FE
S11339D00ED048C139D130F03ED120F031F49F3FB0
S11339E011F41EF42EC10EF4E095E7FB24C1E92F77
S11339F04AD180F3BA17620773078407950718F052
S1133A0071F49EF562C10EF4E0950B2EBA2FA02D31
S1133A100B01B90190010C01CA01A0011124FF2777
S1133A20591B99F0593F50F4503E68F11A16F04072
S1133A30A22F232F342F4427585FF3CF4695379571
S1133A402795A795F0405395C9F77EF41F16BA0B36
S1133A50620B730B840BBAF09150A1F0FF0FBB1FE4
S1133A60661F771F881FC2F70EC0BA0F621F731F2D
S1133A70841F48F4879577956795B795F7959E3F8A
S1133A8008F0B3CF9395880F08F09927EE0F979518
S1133A90879508950CD0E6C0DED040F0D5D030F044
S1133AA021F45F3F19F0C7C0511110C1CAC0EBD057
S1133AB098F39923C9F35523B1F3951B550BBB27F1
S1133AC0AA2762177307840738F09F5F5F4F220F9E
S1133AD0331F441FAA1FA9F333D00E2E3AF0E0E897
S1133AE030D091505040E695001CCAF729D0FE2FE3
S1133AF027D0660F771F881FBB1F26173707480775
S1133B00AB07B0E809F0BB0B802DBF01FF2793582A
S1133B105F4F2AF09E3F510568F08DC0D7C05F3FCC
S1133B20ECF3983EDCF3869577956795B795F79512
S1133B309F5FC9F7880F911D9695879597F908950A
S1133B40E1E0660F771F881FBB1F621773078407A6
S1133B50BA0720F0621B730B840BBA0BEE1F88F7B5
S1133B60E095089598D088F09F5790F0B92F992741
S1133B70B751A0F0D1F0660F771F881F991F1AF074
S1133B80BA95C9F712C0B13081F09FD0B1E0089561
S1133B909CC0672F782F8827B85F39F0B93FCCF3E2
S1133BA0869577956795B395D9F73EF4909580956A
S1133BB0709561957F4F8F4F9F4F0895E89409C08A
S1133BC097FB3EF490958095709561957F4F8F4F4C
S1133BD09F4F9923A9F0F92F96E9BB279395F69562
S1133BE0879577956795B795F111F8CFFAF4BB0FE0
S1133BF011F460FF1BC06F5F7F4F8F4F9F4F16C044
S1133C00882311F096E911C0772321F09EE8872FCD
S1133C10762F05C0662371F096E8862F70E060E089
S1133C202AF09A95660F771F881FDAF7880F969502
S1133C30879597F9089597F99F6780E870E060E0A9
S1133C4008959FEF80EC089500240A941616170631
S1133C5018060906089500240A9412161306140679
S1133C6005060895092E0394000C11F4882352F0DC
S1133C70BB0F40F4BF2B11F460FF04C06F5F7F4F94
S1133C808F4F9F4F089557FD9058440F551F59F07B
S1133C905F3F71F04795880F97FB991F61F09F3F35
S1133CA079F087950895121613061406551FF2CF5E
S1133CB04695F1DF08C0161617061806991FF1CFAE
S1133CC086957105610508940895E894BB276627D5
S1133CD07727CB0197F908950BD0C4CFB5DF28F02F
S1133CE0BADF18F0952309F0A6CFABCF1124EECF9D
S1133CF0CADFA0F3959FD1F3950F50E0551F629F43
S1133D00F001729FBB27F00DB11D639FAA27F00D30
S1133D10B11DAA1F649F6627B00DA11D661F829F57
S1133D202227B00DA11D621F739FB00DA11D621F3C
S1133D30839FA00D611D221F749F3327A00D611D59
S1133D40231F849F600D211D822F762F6A2F11243B
S1133D509F5750408AF0E1F088234AF0EE0FFF1F8E
S1133D60BB1F661F771F881F91505040A9F79E3FC5
S1133D70510570F060CFAACF5F3FECF3983EDCF3BF
S1133D80869577956795B795F795E7959F5FC1F702
S1133D90FE2B880F911D9695879597F90895991B89
S1133DA079E004C0991F961708F0961B881F7A952E
S1133DB0C9F780950895AA1BBB1B51E107C0AA1F30
S1133DC0BB1FA617B70710F0A61BB70B881F991FB8
S1133DD05A95A9F780959095BC01CD010895A1E26B
S1133DE01A2EAA1BBB1BFD010DC0AA1FBB1FEE1F71
S1133DF0FF1FA217B307E407F50720F0A21BB30BBC
S1133E00E40BF50B661F771F881F991F1A9469F737
S1133E1060957095809590959B01AC01BD01CF0193
S1133E200895052E97FB16F400940FD057FD05D086
S1133E30D6DF07FC02D046F408C050954095309573
S1133E4021953F4F4F4F5F4F089590958095709502
S1133E5061957F4F8F4F9F4F0895EE0FFF1F059081
S1133E60F491E02D099409D0A59F900DB49F900D75
S1133E70A49F800D911D11240895A29FB001B39FAA
S1133E80C001A39F700D811D1124911DB29F700D5F
S1133E90811D1124911D0895FB01DC0102C00190D4
S1133EA00D9241505040D8F70895BB274A3031F461
S1133EB0992322F4BDE2909581959F4F01C0BB27C1
S1133EC0FB015527AA27880F991FAA1FA41710F0D2
S1133ED0A41B83955051B9F7A05DAA3308F0A95DDE
S1133EE0A193009779F7B111B1931192CB0100C05E
S1133EF0DC01FC01672F71917723E1F7329704C04D
S1133F007C916D9370836291AE17BF07C8F30895D7
S1073F10F894FFCF4F
S1133F14FFFF00C20100030000FFFFA086010000B0
S1133F24000000658025000003000001017E563571
S1133F34307620202020203A20423A200020562C9B
S1133F4420483A200020560A005633337620202095
S1133F5420203A20423A200056313876202020206E
S1133F64203A20423A200056313176202020202065
S1133F743A20423A20005632357620202020203A36
S1133F8420423A20002D35562020202020203A209B
S1133F94423A20004933337620202020203A20421C
S1133FA43A2000206D412C20483A2000206D410A1B
S1133FB4004935307620202020203A20423A20003F
S1133FC4566761696E202020203A20423A20005628
S1133FD46761696E5F6D696E3A20423A20005667E4
S1133FE461696E5F6D61783A20423A200054656DD0
S1133FF47020202020203A20423A200020432C2004
S1134004483A200020430A004C4C4620202020201B
S11340143A20423A2000416374697665004465613C
S1134024637469766500202C20483A200044757036
S11340346C657820202020203A20423A20504859A8
S113404430200048414C460046554C4C0020504812
S113405459312000436F6E6E65637465643A2000C1
S1134064626F647900686F6C6C6F77207368616643
S113407474000A0A0020435243206572726F72204E
S1134084696E20454550524F4D0A00426F647920B1
S11340946973207265736574656420746F20666146
S11340A463746F72792064656661756C74200A00A8
S11340B4486F6C6C6F772053686166742069732051
S11340C47265736574656420746F20666163746FCC
S11340D472792064656661756C74200A00656E618A
S11340E4626C65642072656D6F74650A003F0A0032
S11340F43031323334353637383941424344454616
S113410405B402024840000000006D020404FF806C
S11341140207FF80020401B40202284000000000E8
S11341246D020404FF800207FF80020401020304F9
S11341340506101112131415161718191A1B1C1D31
S11341441E1F0A656E61626C65640A636F6E6E6538
S11341546374656420746F3A2000626F64790A00A2
S1114164686F6C6C6F772073686166740A0074
S9030000FC
