S00D000058426F6F742E737265632B
S113400055C0000063C0000061C000005FC0000034
S11340105DC000005BC0000059C0000057C0000034
S113402055C0000053C0000051C000004FC0000044
S11340304DC000004BC0000049C0000047C0000054
S113404045C0000043C0000041C000003FC0000064
S11340503DC000003BC0000039C0000037C0000074
S113406035C0000033C0000031C000002FC0000084
S11340702DC000002BC0000029C0000027C0000094
S113408025C0000023C0000021C000001FC00000A4
S11340901DC000001BC0000019C0000017C00000B4
S11340A015C0000013C0000011C0000011241FBE81
S11340B0CFEFCDBFD7E2DEBF20E2A0E0B0E201C087
S11340C01D92AC38B207E1F7C1D3F7C599CF3BB71E
S11340D08BBFFB0186913BBF08953BB78BBFFB01B0
S11340E0879196913BBF089542E08CC041E08AC01D
S11340F08093C00188278093C1018093C20147E067
S113410071D0CB0108958093C40148E06BC08091C5
S1134110D00108953BB748E17AC03BB74AE177C084
S11341203BB7882799278BBF40E271C03BB78BBF51
S1134130CB0142E26CC03BB70B0143E268C0EE27FF
S1134140FF2719BEDC0143E24093CA0150E42DE984
S11341500D901D9020933400E89532965A95C1F73E
S1134160112408953BB76BBFFA0119BEDC0140E08E
S11341704093CA0150E8879197918D939D935A95E6
S1134180D1F73BBF08953BB78BBFCB0144E23FC09F
S11341903BB78BBFCB0145E23AC03BB746E237C0E1
S11341A03BB78BBFCB014AE232C03BB78BBFCB01DD
S11341B04CE22DC03BB78BBFCB014DE228C048E396
S11341C011C049E30FC028ED2093340021E020936F
S11341D0CC0108952091CF0127FDFCCF2227209305
S11341E0CA0108954093CA0128ED31E020933400B8
S11341F03093CB016091C4017091C5018091C601D7
S113420099270895FC014093CA0184910895FC0103
S11342104093CA012DE920933400E89511243BBF53
S11342200895CF92DF92EF92FF92CF93CFB7F89495
S1134230C12C80E2D82EE12CF12CC701B60176DF27
S1134240C9DF80E8C80ED11CE11CF11CC11480E454
S1134250D806E104F10489F71092CA01CFBF80E0C7
S1134260CF91FF90EF90DF90CF9008958091CF0190
S113427087FDFCCF0895FADF80E38093CA01EBEC5D
S1134280F1E021E030E088ED90E084BF20830895E0
S1134290CF92DF92EF92FF92CF936B017C01CA0120
S11342A0C22F4DDFC701B601CC2311F071DF01C06D
S11342B06ADFCF91FF90EF90DF90CF908BCFE0EC4F
S11342C0F8E013821682178288E0809342060895EC
S11342D0E0E7F0E080818F778083E0E6F4E080819E
S11342E08F7C8083808180838081887F80838081AC
S11342F08360808381818C7F8183818182608183DB
S11343008181837F818381818860818381818F7CA6
S1134310818381818062818381818F7381838181A3
S11343208068818380818F738083808180831282FF
S1134330828182838381807F838383818C60838372
S113434083818F708383838180638383A0E4B6E059
S113435080E111968C93119716968C9380818F73BC
S1134360808380818068808308959091012080E01B
S1134370911102C0816001C08860909171009E7F9C
S11343809093710091E0909385031092860380933B
S1134390820384E080938003809180038160809312
S11343A0800380EC8093B6009093840382E0809332
S11343B0E107089580E480936106909101209111B2
S11343C008C090E890936106809366069093650612
S11343D007C091E09093410680936506909345064B
S11343E081E08093E1078093E60780910020882391
S11343F099F088E080936106109261068FEC8093B7
S1134400C6091092C7098091C40983628093C409C4
S113441088E18093C3090895A8DF5ADF88E0809378
S11344204106109241068FEC8093C6081092C7088B
S11344308091C40883628093C40888E18093C30890
S113444080935206089588ED84BF8BE280938000A8
S11344508091820080FDFCCF08958627682F6295A5
S11344606827062E669566956025062E6695602556
S11344706770082E892F669507946795902D862777
S113448006946795902586270895909100209111B0
S113449003C08091C10802C08091C109881F882788
S11344A0881F41F0911103C08091C0080895809144
S11344B0C0090895A895EBCF9091002091110CC0EC
S11344C08093C0088091C10886FFFCCF8091C10809
S11344D080648093C10808958093C0098091C109C4
S11344E086FFFCCF8091C10980648093C10908953F
S11344F0CCDF8F93CADF9F91882F0895AF92BF922C
S1134500CF92DF92EF92FF920F931F93CF93DF939B
S1134510EC01D62E8A01A89544E0A42E40E2B42EE4
S1134520E12CF12CEC16FD0610F4AFDF01C08FEF87
S1134530F50181935F01FFEFEF1AFF0A80E8E816A7
S1134540F10481F7E5E4DE1215C0F80160817181A0
S1134550AE0184E090E209D3F80180819181A281C7
S1134560B3818C0F9D1FA11DB11D80839183A283F4
S1134570B3831EC0F6E4DF121DC0F801808191816F
S1134580A281B381D695C7956C017D01CC0EDD1E49
S1134590E11CF11CC082D182E282F382BC01CD0114
S11345A0660F771F881F991F21E044E050E270DEF8
S11345B08DE001C08FE3DF91CF911F910F91FF90A8
S11345C0EF90DF90CF90BF90AF9008958F929F921D
S11345D0BF92CF92DF92EF92FF920F931F93CF93EC
S11345E0DF937C01B62EEA0125E462130FC06881D3
S11345F07981AC0184E090E201D388819981AA8118
S1134600BB818E0D9F1DA11DB11D44C086E468179A
S113461019F020E562134DC088819981AA81BB817C
S1134620880F991FAA1FBB1F88839983AA83BB8302
S1134630670100E010E086E4B8120AC048012FEFD9
S1134640821A920A688179818A819B8140DD09C03E
S113465080E5B8120BC048012FEF821A920A8881B4
S113466043DDF801EC5FFF4D80838401B3DD888175
S11346709981AA81BB810196A11DB11D888399836B
S1134680AA83BB8321E0C21AD108A9F6B695A795DF
S11346909795879588839983AA83BB83C4E0D0E2E6
S11346A0CE01845090428E159F051CF4899104DF3D
S11346B0F7CFDF91CF911F910F91FF90EF90DF9093
S11346C0CF90BF909F908F9008958F929F92AF92BA
S11346D0BF92CF92DF92EF92FF920F931F93CF93EB
S11346E0DF934B015C0169017A01C0E8D0E000E08E
S11346F010E0C114D104E104F104E9F0C038D1059B
S113470061F4B501A40184E090E22CDD80E8880E18
S1134710911CA11CB11CC0E0D0E0FE01EC5FFF4D78
S11347206081C8019ADE8C01219681E0C81AD10803
S1134730E108F108DECFC801DF91CF911F910F91FD
S1134740FF90EF90DF90CF90BF90AF909F908F90AD
S11347500895CF92DF92EF92FF92CF93DF9340E8D8
S11347605FE360E070E084E090E2FCDC80917E2016
S1134770883509F064C080917F20823409F05FC0DD
S113478080918020893409F05AC080918120863438
S113479009F055C0E0908220F0908320FE24EF249D
S11347A0FE242AEF3FE140E050E060E070E280E068
S11347B090E08BDFC6E0D0E06FEF4FDE2197E1F7AA
S11347C08E159F0539F0DF91CF91FF90EF90DF9028
S11347D0CF9027CDC12CD12C7601D1E0CFEFD0934F
S11347E0E707B701A601505E6F4F7F4F84E090E268
S11347F0B9DC80E8C8168FE1D806E104F10491F031
S113480021E044E050E2C701B60142DD80E8C80E71
S1134810D11CE11CF11CC11480E2D806E104F104AE
S1134820F1F6D1CFC0937E20C0937F20C093802027
S1134830C0938120C0938220C0938320E1CFDF9175
S1134840CF91FF90EF90DF90CF900895CF92DF92B9
S1134850EF92FF920F931F93CF93DF9300D000D07A
S1134860CDB7DEB719821A821B821C828091500058
S11348708260809350008091510081FFFCCF88EDCD
S113488084BF81E08093400080E090E0BAD1813021
S113489019F48093002002C01092002081E090E07F
S11348A0B0D1813019F48093012002C0109201200C
S11348B081DDC9DD5091002030E02FE080E091E7F8
S11348C0A2E0B0E041E060910220611129C02223FE
S11348D039F10097A105B10521F00197A109B109AA
S11348E007C04093E707215080E091E7A2E0B0E0E1
S11348F0511107C06091C10867FF10C06091C008E2
S113490006C06091C10967FF09C06091C0096B319D
S113491029F43F5F353010F040930220A895D3CF9F
S113492082E090E06ED18F3F19F081E08093022005
S11349300BE810E280910220882309F4FDC0A5DD74
S1134940A895813611F489E50AC0813451F4D0DD8B
S1134950A0E0B0E089839A83AB83BC838DE0ACDDB7
S1134960E9C0883429F491DDA82FC2DDBB27F2CF3A
S1134970853619F5C12CD12C7601C701B60108DCA6
S11349808091CF01877011F0A895FACF80E8C80E06
S1134990D11CE11CF11CC11480E4D806E104F1042B
S11349A061F78091CF01877011F0A895FACF63DC8D
S11349B060E082E090E02DD1D1CF823631F489E5F8
S11349C07BDD80E079DD80E8CACF873451F490DD67
S11349D07C015BDDAE014F5F5F4F682FC7018EDD49
S11349E0BECF873651F484DD7C014FDDAE014F5FCD
S11349F05F4F682FC701EADD9DC0843469F445DD4B
S1134A00682F89819A8105D189819A81AB81BC8182
S1134A100196A11DB11D9ECF843681F489819A81AE
S1134A20F0D04ADD89819A81AB81BC810196A11DB8
S1134A30B11D89839A83AB83BC837CC0803509F420
S1134A408DCF8C3409F48ACF853469F48DE034DD5C
S1134A508DE032DD8DE030DD6FEF82E090E0D9D083
S1134A601092022067C0803711F483E578CF843731
S1134A7021F48BE721DD80E072CF833571F488E582
S1134A801BDD82E419DD8FE617DD8FE615DD84E793
S1134A9013DD8BE211DD8BE262CF863521F481E3F5
S1134AA00BDD87E35CCF833731F485E405DD84E9EE
S1134AB003DD8EE154CF8B3109F450CF9091032064
S1134AC0E92FF0E0EC57FF4D808381E0890F8830B7
S1134AD018F4809303202EC080918420823459F4EA
S1134AE080918A208F3F29F480918B20803119F4A2
S1134AF009C0883719F0E4E8F0E217C080918B20F0
S1134B008231C9F788E5D8DC8FE4D6DC80E0D4DCD8
S1134B1082E0D2DC80E0D0DC88E0CEDC88EECCDC45
S1134B208FE3CADC1092032005C0818181930E17A4
S1134B301F07D9F74FDBFECE0CDEC1DB1092520605
S1134B4081E08093E2078093E6070C94000080E004
S1134B5090E02496CDBFDEBFDF91CF911F910F91DE
S1134B60FF90EF90DF90CF900895A0E0B0E0EAEBE3
S1134B70F5E26FC0C0E20FEF11E0D5E3FF24F39438
S1134B8041155105B9F1262F2F713C2F321B232FCC
S1134B9030E04217530708F49A01D22EF801E21BC1
S1134BA0F30BE617F70708F47BD0E091CF01E7FD9C
S1134BB0FCCFC82EDB01B05FFC01E090CF01E7FC25
S1134BC0FCCFE190ED92EE2EEC18ED14B0F31092C0
S1134BD0C2017093C1016093C001D093CA01E8ED92
S1134BE0E4BFF092CB01820F931F620F731F421B2D
S1134BF0530BC6CFCDB7DEB7E8E044C06050704F6A
S1134C0053C003D0808199270895FC01E050F04FF0
S1134C100895262FAF93BF93E0ECF1E0378537FD7D
S1134C20FDCFDC01A050B04F2C9325E3228728ED63
S1134C3031E024BF33870196BF91AF9108952F923D
S1134C403F924F925F926F927F928F929F92AF9218
S1134C50BF92CF92DF92EF92FF920F931F93CF9365
S1134C60DF93CDB7DEB7CA1BDB0BCDBFDEBF099424
S1134C702A88398848885F846E847D848C849B84E8
S1134C80AA84B984C884DF80EE80FD800C811B81F6
S1134C90AA81B981CE0FD11DCDBFDEBFED0108952C
S1134CA081E090E0F89409C0FB01DC0102C00190AE
S1114CB00D9241505040D8F70895F894FFCF6C
S9034000BC
